:020000040800F2
:10000000784C002041020008490200084B02000819
:100010004D0200084F0200085102000800000000D5
:10002000000000000000000000000000790100084E
:100030005502000800000000F10100082D02000830
:100040005B0200085B0200085B0200085B0200081C
:100050005B0200085B0200085B0200085B0200080C
:100060005B0200085B0200085B020008313F0008E9
:10007000713F00085B0200085B0200085B02000899
:10008000AD3F0008314000085B0200085B02000839
:100090005B0200085B0200085B0200085B020008CC
:1000A0005B0200085B0200085B0200085B020008BC
:1000B000856D00085B0200085B0200085B02000817
:1000C0005B0200085B0200085B0200085969000837
:1000D0005B0200085B020008557100083D720008D1
:1000E0005B0200085B0200085B020008DFF81CD01E
:1000F00000F05AFD0AF0CAFC002103480AF07AFD1C
:100100000AF0D6FCFEE700002C020020784C00200C
:1001100080F309887047EFF309807047684680F3E1
:10012000098804480078C00714BF0220032080F328
:100130001488704728F10008DFF818C0EFF3058332
:100140001B0618BF6047EFF31483DB0708BF604747
:1001500000DF70474FBC0008DFF818C0EFF30583DD
:100160001B0618BF6047EFF31483DB0708BF604727
:1001700000DF704735BE0008EFF30980816911F890
:10018000021CF1B990E80F10E047EFF3098C8CE8FE
:100190000700144B93E8060091420FD039B12CE9C7
:1001A000F00FC1F828C00CB40CF02EFA0CBC1A6089
:1001B000D2F828C0BCE8F00F8CF309886FF0020E6B
:1001C000704710B5084A1268914209D8074C54F894
:1001D000214090E80F10A047EFF3098C8CE80F0046
:1001E00010BD000058020020E40C0008E40C0008D8
:1001F0000CF0A0F80C4B93E80600914210D0EFF3FE
:10020000098C2CE9F00FC1F828C00CB40CF0FCF9F3
:100210000CBC1A60D2F828C0BCE8F00F8CF3098837
:100220006FF0020E70470000580200200CF0B4FA84
:10023000E0E700000AF05AFD0CF0AEFADAE7000041
:100240000648804706480047FEE7FEE7FEE7FEE770
:10025000FEE7FEE7FEE7FEE7FEE7FEE7196D0008B2
:10026000ED0000082DE9F05F0546002092469B4610
:1002700088460646814640241BE0284641464746BC
:10028000224600F0A2FB53465A46C01A914110D3B1
:1002900011461846224600F089FB2D1A67EB01082B
:1002A0004F4622460120002100F080FB17EB000999
:1002B0004E41201EA4F10104DFDC484631462A46A7
:1002C0004346BDE8F09F40EA01039B0703D009E0E5
:1002D00008C9121F08C0042AFAD203E011F8013B32
:1002E00000F8013B521EF9D27047D2B201E000F88B
:1002F000012B491EFBD270470022F6E710B51346CA
:100300000A4604461946FFF7F0FF204610BD421E7C
:1003100012F8013F002BFBD111F8013B02F8013B21
:10032000002BF9D1704730B505462A460B4612F826
:10033000010B13F8014B08B1A042F8D01CB1002802
:1003400002D06D1CF1E7284630BD421C10F8011B9D
:100350000029FBD1801A704710B5002200E0521C22
:10036000835C8C5CA34201D1002BF8D1D8B2E1B2FE
:10037000401A10BD034611F8012B00F8012B002A8A
:10038000F9D11846704730B505460020034600E015
:100390005B1C934205D2EC5CC85C201A01D1002C96
:1003A000F6D130BD30B50546002008E00A4602E02F
:1003B000A34207D0521C1378002BF9D1401C2C5CAF
:1003C000002CF3D130BD70B5064607F0E9FA046899
:1003D00005460A220021304600F019FB2C6070BD52
:1003E000F0B480EA0102D40F4200B2EB410F02D216
:1003F0000246084611464A0042D0C30DDDB2C1F3A1
:10040000C752AD1A202D35DAC1F3160141F40002AE
:1004100004B15242C5F1200602FA06F12A41104405
:10042000B3EBD05F23D0C4B1012DA0EBC35009DCE6
:10043000F0BC4FF0004202EAC352DBB200F500000C
:1004400000F026BB400000F1807000EBC350A0F12B
:10045000807040EAD170490009E0490841EAC07162
:10046000A0EBC35000F50000400800EBC350F0BC07
:1004700000F005BB6142012202EB4101001BF6E7DF
:10048000F0BC704781F00041AAE780F00040A7E788
:1004900080EA010210B502F00043400022D04A0079
:1004A0001FD0010E01EB1261C0F35600C2F35602D9
:1004B00040F4000042F40002A0FB022000047F3957
:1004C000140400D0401C50EA124001D44000491EE0
:1004D000C2B20C0604EBD010401C4008802A02D0A7
:1004E00003E0002010BD20F00100002900DA002008
:1004F000184310BD30B480EA010202F0004530F02C
:10050000004221F0004013D090B1C30DD40DC2F3CE
:100510001601C0F31600E41A41F4000140F4000291
:100520007D34914201D3641C00E04900002C02DAC2
:1005300030BC002070474FF400000023914201D3EB
:10054000891A034340084FEA4101F7D151B1914262
:1005500002D14FF0004105E002D24FF0010101E06D
:100560006FF0010103EBC450284430BC00F087BA9F
:100570002DE9FE4F804681EA0300C00F0C46009033
:1005800021F0004123F00045B8EB0200A94105D25B
:100590004046214690461C460B46024623F000404A
:1005A000104347D0270DC7F30A00C3F30A51029046
:1005B000401A019040286BDAC3F3130040F4801B0B
:1005C0000098924620B10023D2EB030A63EB0B0B99
:1005D00001985946C0F14002504600F0E7F906463E
:1005E0000D4650465946019A00F0FFF910EB0800FD
:1005F0006141002487EA115284EAE7731A4340D02C
:10060000009A62B3019A012A4FEA075215DC001BD7
:1006100061EB02014FF0004202EA0752CDE90042CD
:10062000001C41F5801132462B4600F06EFA03B0F3
:10063000BDE8F08F40462146F9E7001B61EB02015F
:10064000001C41F5801300185B412018A2F500172B
:1006500047EB030140EAD570B6196D4111E06D0812
:100660004FEA360645EAC0754FEA0752001B61EBB8
:100670000201001C41F5801149084FEA30000019C1
:10068000514132462B4603B0BDE8F04F00F02EBA80
:100690000098012240000023D0EB020263EBE073DC
:1006A000009821464FEAE074B8EB000061EB0401CA
:1006B000E9E783F000435BE781F0004158E72DE96B
:1006C000FE4F81EA030404F0004421F0004100944D
:1006D0004FF0000B23F0004350EA01045ED052EAD1
:1006E00003045BD0C3F30A54C1F30A552C44A4F2AB
:1006F000F3340194A0FB0254C1F3130141F48011BF
:10070000C3F3130343F4801301FB024400FB034EC5
:10071000840A970A44EA815447EA8357A4FB07688E
:1007200002958D0A05FB07854FEA932C04FB0C54B8
:100730002705029D4FEA065847EA1637B5EB08052C
:100740006EEB070C870E920E47EA811742EA83127E
:10075000A7FB0201B6EB0B0164EB00042B0D43EA8F
:100760000C335E1844EB1C50DA465146E7FB02019D
:10077000C5F313044FEA0B3343EA14534FEA043230
:10078000019C43EA0603A4F10C040294009CCDE909
:1007900000B400F0BAF903B0BDE8F08F00200146C4
:1007A000F9E72DE9F04D81EA030404F0004B21F054
:1007B000004514464FF0000A23F0004150EA0502BC
:1007C00020D054EA01021DD0C5F30A570246C5F3F2
:1007D0001303C1F31300C1F30A5640F4801543F428
:1007E0008013A7EB0608101BD64608F2FD3873EB02
:1007F000050002D308F1010801E092185B41B8F14D
:10080000000F03DA00200146BDE8F08D00204FF410
:100810008011064684460EE0171B73EB050705D3CF
:10082000121B63EB050306434CEA010C49084FEA2F
:10083000300092185B4150EA0107EDD152EA030003
:1008400012D082EA040083EA0501084305D0101B98
:10085000AB4106D20122002306E000224FF0004304
:1008600002E06FF0010253101AEB06004CEB085146
:1008700010EB0A0041EB0B01BDE8F04D00F036B97A
:10088000C10F80EAE0700844CA079623002100F0F7
:10089000FFB896230022114600F0FAB820F000407D
:1008A000C10DC0F3160040F400007F2901DA0020DA
:1008B0007047962903DCC1F19601C840704796390C
:1008C0008840704700F0004230F000400AD0C10D6F
:1008D00001F56071C0F3160042EA0151C2084007F9
:1008E00011437047002001467047000030B5041ED8
:1008F00071F1000404DB4FF00044404264EB01015D
:10090000141E73F1000405DB1C464FF000435242F5
:1009100063EB04038B4208BF824230BD30B5041E36
:1009200071F1000404DB4FF00044404264EB01012C
:10093000141E73F1000405DB1C464FF000435242C5
:1009400063EB0403994208BF904230BD01F00043BD
:1009500030B421F0004150EA010206D00A0DA2F5A0
:100960006072C1F31301002A02DC30BC0020704722
:10097000440F44EAC104C100E01830BC00EBC2508F
:1009800000F07DB8002801DBC0F10040002901DB48
:10099000C1F1004181427047002801DBC0F10040F5
:1009A000002901DBC1F1004188427047202A04DBA5
:1009B000203A00FA02F1002070479140C2F1200372
:1009C00020FA03F3194390407047202A04DB203AB1
:1009D00021FA02F00021704721FA02F3D040C2F15F
:1009E00020029140084319467047202A06DBCB17A6
:1009F000203A41FA02F043EAE07306E041FA02F3DA
:100A0000D040C2F1200291400843194670472DE9B9
:100A1000F04791460F4680460446002614F8015BD5
:100A20002DB100F0D3F80068405DC007F6D12B2D42
:100A300002D02D2D18D0641E4A463946204600F0BB
:100A4000C9F827B13968A14201D1C7F80080710502
:100A50004FF002040BD54042002803DD06F0A0FF52
:100A60000460A007BDE8F08746F48066E4E700284C
:100A7000F8DA06F095FF04606FF00040F2E7002915
:100A8000A8BF7047401C490008BF20F00100704714
:100A900010B4B0FA80FC00FA0CF050EA010404BF74
:100AA00010BC704749B1CCF1200421FA04F411FACA
:100AB0000CF118BF012121430843A3EB0C01CB1D0E
:100AC0004FEA00614FEA102042BF002010BC70477F
:100AD00000EBC35010440029A4BF10BC7047401C59
:100AE000490008BF20F0010010BC704710B5141E6B
:100AF00073F1000408DA401C41F1000192185B41D7
:100B00001A4301D120F0010010BD2DE9F04D9246AD
:100B10009B4611B1B1FA81F202E0B0FA80F22032C4
:100B20009046FFF743FF04460F4640EA0A0041EAB9
:100B30000B0153465A46084313D0114653EA0100AD
:100B400019D0C8F140025046FFF73FFF05460E4658
:100B5000504659464246FFF729FF084305D0012079
:100B600004E020463946BDE8F08D0020054346EA02
:100B7000E0762C4337430A986305E40AA0EB0800AB
:100B80000022FD0A44EA47540A3002D500200146FB
:100B9000E9E7010510196941DDE9084500196941D6
:100BA000BDE8F04DA2E70000064C074D06E0E06806
:100BB00040F0010394E8070098471034AC42F6D3A4
:100BC000FFF798FAECF100080CF2000800487047B3
:100BD000E8F100082DE9F05F82460078002715460D
:100BE0008B460AF10104B946302801D09DB113E0CB
:100BF00014F8010B0127782803D0582801D045B1FB
:100C00000AE00DB1102D07D10027102514F8010BB3
:100C100002E0082500E00A250026B0460EE005FBAC
:100C2000080005FB06F1012701EB10461FFA80F8CA
:100C3000B6F5803F00D3B94614F8010B294600F001
:100C400018F80028EBDABBF1000F05D00FB1641ED5
:100C500000E05446CBF80040B9F1000F06D006F092
:100C60009FFE02210160C81EBDE8F09F48EA0640D1
:100C7000FAE73A2800D2303820F02002412A01D386
:100C8000A2F13700884201D34FF0FF30704770B5B2
:100C90008C1810F8015B15F0070301D110F8013B27
:100CA0002A1106D110F8012B03E010F8016B01F8AE
:100CB000016B5B1EF9D12B0705D40023521E0DD406
:100CC00001F8013BFAE710F8013BCB1A921C03E054
:100CD00013F8015B01F8015B521EF9D5A142D8D38C
:100CE000002070BD0000000010B5044613480068E5
:100CF00048B1C4EBC400124A02EBC0004168204670
:100D00000E4A126890470F48006848B1C4EBC4000F
:100D10000B4A02EBC000018920460A4A126890473C
:100D20000948006848B1C4EBC400054A02EBC000A2
:100D300081782046044A1268904710BDEC010020DB
:100D400028150020F0010020F401002010B5012139
:100D5000034800F0BAF80121014800F003F810BD83
:100D60000024014021B1826842F00102826003E068
:100D7000826822F001028260704721B1826842F4E9
:100D80008072826003E0826822F480728260704721
:100D9000014600208A6802F004020AB1012000E046
:100DA00000207047014600208A6802F008020AB15C
:100DB000012000E00020704730B5024600200023EB
:100DC00050680F4C20400D790C6844EA05242043FC
:100DD000506090680B4C2040D1E902542C434D796F
:100DE00044EA450420439060D06A20F470000C7CF3
:100DF000641EE4B2234340EA0350D06230BD0000D9
:100E0000FFFEF0FFFDF7F1FFF0B504460D460020B0
:100E10000021092D11DDE068A5F10A0606EB460761
:100E2000072606FA07F18843A5F10A0606EB4606EF
:100E300003FA06F10843E0600CE0206905EB450782
:100E4000072606FA07F1884305EB450603FA06F183
:100E500008432061072A0FDA606B561E06EB8607EF
:100E60001F2606FA07F18843561E06EB860605FA8A
:100E700006F10843606322E00D2A0FDA206BD61FCB
:100E800006EB86071F2606FA07F18843D61F06EBF6
:100E9000860605FA06F10843206310E0E06AA2F135
:100EA0000D0606EB86071F2606FA07F18843A2F116
:100EB0000D0606EB860605FA06F10843E062F0BD72
:100EC000816841F008018160704721B1826842F475
:100ED000A002826003E0826822F4A0028260704770
:100EE000816841F004018160704700210160017157
:100EF00041718160C16001210174704710B50146E4
:100F0000CAB20B1243EA022010BD014648890A8981
:100F1000801A8A88521E104080B2704710B503466E
:100F20000C461846FFF7F1FF10B96FF0060010BD30
:100F30001989186850F8210020601889401C998888
:100F4000491E084018810020F1E710B503460C4601
:100F50001846FFF7DAFF5968491E884202D16FF040
:100F6000050010BD5989186840F821405889401C77
:100F70009988491E084058810020F2E770B5024662
:100F80000C46FF25FF2309E012F8010B80EA05015A
:100F90000648405C80EA03050548435C2000A4F154
:100FA0000106B4B2F0D143EA052070BD10EF00088D
:100FB00010F0000801B592B0129830B101287DD030
:100FC000022842F0F18601F059BF1298C0EBC00030
:100FD000FE4911F83000082871D0092870D00A287D
:100FE00002D00B286DD100E000BF1298C0EBC0000A
:100FF000F64901EBC000808C0290FFF74AFC039099
:10100000FFF760FC0022F24BCDE90401FFF7C9FBBA
:10101000CDE90601FFF79AFC0F901298C0EBC001D2
:10102000EA4800EBC100B0F926000290FFF728FC67
:101030000390FFF747FC0022E64BCDE90401FFF7E0
:10104000B0FBCDE90601FFF781FC0E90129800EB92
:101050004000E14901EB800000890390FFF719FC93
:101060000590129800EB4000DB4901EB8000C0883E
:101070000390FFF70EFC04900599FFF703FA079021
:10108000129800EB4000D44901EB800000890390E6
:10109000FFF7FFFB0590129800EB4000CE4931F8B6
:1010A00020000390FFF7F5FB04900599FFF7EAF99C
:1010B00006900799FFF71EFA0D9003E0FDE315E394
:1010C00015E3FBE30F990D98FFF7E2F907900E99EE
:1010D000FFF786F90A900A98FFF7F4FBBF4AC04B66
:1010E000CDE90601FFF702FC01D200200A90BD48BD
:1010F0000068FFF7E7FB0022BB4BCDE90601FFF7D5
:101100000DFC02D20020B74908601298C0EBC00065
:10111000AE4911F830000A280DD1B2480068FFF737
:10112000D1FBAE4AAE4BCDE90601FFF7DFFB02D2A1
:101130000020AC4908601298C0EBC000A34911F828
:1011400030000B280ED1A7480068FFF7BBFBA34A6D
:10115000A34BCDE90601FFF7C9FB03D24FF07E5048
:10116000A0490860A1490A98FFF792F909909F49A0
:101170009C480068FFF78CF90890DDE90810FFF73C
:1011800081F99B490790FFF707FC02D895490A9817
:101190000860DDE90801FFF775F995490790FFF749
:1011A000FBFB02D88F490A980860DDE90801FFF7C8
:1011B00069F90590FFF786FB8E4A8F4BCDE9060152
:1011C000FFF794FB07D800210A98FFF7DBFB02D159
:1011D00084490A980860DDE90810FFF753F9059083
:1011E000FFF770FB834A844BCDE90601FFF77EFBD6
:1011F00007D800210A98FFF7C5FB02D179490A9860
:10120000086078480068FFF75DFB7C4A7C4BCDE9BD
:101210000001FFF754FACDE904010A98FFF752FBE9
:10122000744A784BCDE90001FFF749FACDE9020194
:10123000DDE90423FFF79CF9CDE90601FFF786FB02
:101240000A906B490A98FFF79DFB0CD20A98FFF7AA
:1012500039FB624A624BCDE90601FFF75FFB02D220
:1012600060490A980860129800EB40005A4931F82A
:101270002010129800EB4000574A02EB80000089D2
:10128000A0F5007081420BDA00200A9055490860F1
:1012900001211298C0EBC0004C4A02EBC0008170E3
:1012A0001298C0EBC000494911F830000B2814D146
:1012B0000A98FFF707FB0022534BCDE90601FFF721
:1012C00015FB0AD24FF07E500A9001211298C0EB14
:1012D000C0003E4A02EBC00081704C490A98FFF7FB
:1012E00009F94B490790FFF7D3F810904849109837
:1012F000FFF752FB01D2464810900A98FFF7E2FA36
:101300000022444BCDE90601FFF708FB01D23F481C
:101310000A901298C0EBC0012C4810F831000A283E
:1013200053D11298C0EBC000284901EBC000C1891D
:101330001298C0EBC000254A02EBC000008A081AD0
:101340000190FFF79DFA002103901098FFF79AF89B
:1013500002900399FFF79CF82D490490FFF7CAF813
:1013600006901298C0EBC001184800EBC100008A3B
:101370000490FFF78EFA05900699FFF731F8079071
:10138000FFF78CFA81B21298C0EBC0000F4A02EB53
:10139000C00001811299C1EBC10102EBC1010A98A1
:1013A00048601298C0EBC000114601EBC0000189F3
:1013B0001298C0EBC00002EBC000408A81422EDBD5
:1013C00002211298C0EBC00026E0A0E02815002002
:1013D00000408F40006AF840D0150020FCA9F1D2EF
:1013E0004D62403FCC0100200000244000007A44C0
:1013F000000020419A9999999999C93FCDCCCCCCBC
:10140000CCCCEC3F9999B93F0000F03F0000A040E0
:101410000060EA460000144002EBC00081701298A0
:10142000C0EBC000FE4901EBC00001891298C0EB7F
:10143000C000FB4A02EBC000C089814206DB0421E8
:101440001298C0EBC00002EBC00081701298C0EB94
:10145000C000F34901EBC00001891298C0EBC00045
:10146000EF4A02EBC000808A814206DC0321129819
:10147000C0EBC00002EBC00081701298C0EBC0004E
:10148000E74901EBC00001891298C0EBC000E44AB3
:1014900002EBC000008A814206DC05211298C0EBF5
:1014A000C00002EBC00081701298C0EBC000DC49A4
:1014B00001EBC00001891298C0EBC000D84A02EBD2
:1014C000C000408AA0F28F20814206DA00211298E3
:1014D000C0EBC00002EBC00081701298C0EBC000EE
:1014E000CF4901EBC00001891298C0EBC000CC4A83
:1014F00002EBC000808A00F28F20814206DD0021CD
:101500001298C0EBC00002EBC0008170EDE01298B1
:10151000C0EBC000C24911F830000B28F6D10A9880
:10152000FFF7D0F90022BF4BCDE90601FFF7DEF946
:1015300005D24FF07E500A90BB48109008E0BB499E
:101540001098FFF729FA03D2B8481090B8480A90CB
:101550001298C0EBC000B24901EBC000C1891298DB
:10156000C0EBC000AE4A02EBC000008A081A01902E
:10157000FFF786F9AC4903901098FEF783FF0290BD
:101580000399FEF785FFAB490490FEF7B3FF069081
:101590001298C0EBC001A24800EBC100008A049081
:1015A000FFF777F905900699FEF71AFF0790FFF706
:1015B00075F981B21298C0EBC000994A02EBC000E5
:1015C00001811299C1EBC10102EBC1010A98486087
:1015D0001298C0EBC000114601EBC00001891298BF
:1015E000C0EBC00002EBC000408A814206DB022152
:1015F0001298C0EBC00002EBC00081701298C0EBE3
:10160000C000874901EBC00001891298C0EBC000FF
:10161000834A02EBC000C089814206DB0421129894
:10162000C0EBC00002EBC00081701298C0EBC0009C
:101630007B4901EBC00001891298C0EBC000784AD9
:1016400002EBC000808A814206DC03211298C0EBC5
:10165000C00002EBC00081701298C0EBC00070495E
:1016600001EBC00001891298C0EBC0006C4A02EB8C
:10167000C000008A814206DC05211298C0EBC00040
:1016800002EBC00081701298C0EBC000644901EB0E
:10169000C00001891298C0EBC000614A02EBC00093
:1016A000408AA0F28F20814206DA00211298C0EB16
:1016B000C00002EBC00081701298C0EBC000584916
:1016C00001EBC00001891298C0EBC000544A02EB44
:1016D000C000808A00F28F20814206DD002112982E
:1016E000C0EBC00002EBC0008170FDE300BF1298A8
:1016F000C0EBC0004A4901EBC000008D0690FFF727
:10170000C8F84D490790FEF7F5FE0F901298C0EB10
:10171000C000434901EBC000B0F92A000790FFF771
:10172000AFF80E90129800EB4000444901EB8000A6
:1017300000890390FFF7ADF80590129800EB400088
:101740003E4901EB8000C0880390FFF7A2F80490A7
:101750000599FEF797FE0790129800EB4000374975
:1017600001EB800000890390FFF793F80590129831
:1017700000EB4000314931F820000390FFF789F871
:1017800004900599FEF77EFE06900799FEF7B2FEDB
:101790000D90129800EB4000284901EB8000008971
:1017A0000390FFF776F80590129800EB400023496C
:1017B00001EB8000C0880390FFF76BF80490059957
:1017C000FEF760FE0790129800EB40001B4901EB0A
:1017D000800000890390FFF75CF80590129800EBF9
:1017E0004000164901EB800040880390FFF751F854
:1017F00004900599FEF746FE06900799FEF77AFEDB
:101800000C901298C0EBC000054901EBC000B0F984
:1018100026000490FFF734F80949059012E0000013
:10182000281500200000F03F0080BB450060EA461C
:101830000000A0400080BB460000C842D015002038
:101840000050C347FEF756FE07901298C0EBC00049
:10185000FE4901EBC000808C0390FFF71AF8FC49A9
:101860000490FEF747FE05900D99FEF711FE0690D5
:101870000799FEF7B5FD0B901298C0EBC000F34935
:1018800001EBC000B0F926000490FEF7F9FFF14922
:101890000590FEF72FFE07901298C0EBC000EB49B1
:1018A00001EBC000808C0390FEF7F3FFE849049041
:1018B000FEF720FE05900C9901E02EE329E3FEF7E8
:1018C000E7FD06900799FEF78BFD0A90DDE90A1007
:1018D000FEF7D8FD0690E04801680698FEF70AFE7C
:1018E000DB490790FEF7D4FDDC490860DDE90A100A
:1018F000FEF7C8FD06900F99FEF7FCFDD44907904E
:10190000FEF7C6FD0A900A98FEF7DCFFD44AD54BD5
:10191000CDE90601FEF7EAFF01D200200A901298F5
:10192000C0EBC000C94911F8300008280DD1CE48DD
:101930000068FEF7C7FFCA4ACA4BCDE90601FEF7A9
:10194000D5FF02D20020C8490860C1490A98FEF7B5
:101950009FFD0990BE49C4480068FEF799FD0890B4
:10196000DDE90810FEF78EFDC0490790FFF714F877
:1019700002D8BD490A980860DDE90801FEF782FD3A
:10198000BA490790FFF708F802D8B7490A980860E3
:10199000DDE90801FEF776FD0590FEF793FFB44AF6
:1019A000B44BCDE90601FEF7A1FF07D800210A9844
:1019B000FEF7E8FF02D1AC490A980860DDE908109B
:1019C000FEF760FD0590FEF77DFFA94AA94BCDE922
:1019D0000601FEF78BFF07D800210A98FEF7D2FF19
:1019E00002D1A1490A9808609F480068FEF76AFF83
:1019F000A14AA24BCDE90001FEF761FECDE9040149
:101A00000A98FEF75FFF9A4A9D4BCDE90001FEF769
:101A100056FECDE90201DDE90423FEF7A9FDCDE97B
:101A20000601FEF793FF0A9096490A98FEF7AAFF6F
:101A30000CD20A98FEF746FF894A8A4BCDE9060187
:101A4000FEF76CFF02D288490A9808601298C0EB32
:101A5000C0007E4911F83000092818D1824800687A
:101A6000FEF730FF884A894BCDE90601FEF73EFFBD
:101A70000DD24FF081400A9000207B49086001217F
:101A80001298C0EBC000714A02EBC000817080491F
:101A90000A98FEF72FFD7F490790FEF7F9FC10909A
:101AA0007C491098FEF778FF01D27A4810900A9886
:101AB000FEF708FF0022784BCDE90601FEF72EFF66
:101AC00001D273480A901298C0EBC0005F4911F828
:101AD000300008287ED171491098FEF75DFF03D2CF
:101AE0006E4810906E480A900A98FEF7EBFE0022AE
:101AF0006C4BCDE90601FEF711FF03D268480A904E
:101B0000664810901298C0EBC000504901EBC0002D
:101B1000C1891298C0EBC0004C4A02EBC000008A99
:101B2000081A0190FEF7ACFE002103901098FEF712
:101B3000A9FC02900399FEF7ABFC58490490FEF70C
:101B4000D9FC06901298C0EBC000404901EBC000E0
:101B5000008A0490FEF79DFE05900699FEF740FC72
:101B60000790FEF79BFE81B21298C0EBC000374A87
:101B700002EBC00001811299C1EBC10102EBC1016E
:101B80000A9848601298C0EBC000114601EBC000F3
:101B900001891298C0EBC00002EBC000408A81426C
:101BA00006DB02211298C0EBC00002EBC00081707E
:101BB0001298C0EBC000254901EBC00001891298C2
:101BC000C0EBC000214A02EBC000C089814208DBA3
:101BD000042100E095E01298C0EBC00002EBC000C9
:101BE00081701298C0EBC001184800EBC100018958
:101BF0001298C0EBC000154A02EBC000808A8142F7
:101C000006DC03211298C0EBC00002EBC00081701B
:101C10001298C0EBC0000D4901EBC0000189129879
:101C2000C0EBC000094A02EBC000008A814206DC1A
:101C300005211298C0EBC00002EBC0008170129821
:101C4000C0EBC000014901EBC0002DE028150020C9
:101C500000007A440050C347DC010020D801002076
:101C6000FCA9F1D24D62403FCC0100200000484267
:101C70009A9999999999C93FCDCCCCCCCCCCEC3FD1
:101C80009999B93F0000F041AE47E17A14AE0F4098
:101C90000000A0410060EA460000344000606A464F
:101CA000000020410000244001891298C0EBC000D0
:101CB000FE4A02EBC000408AA0F28F20814206DA81
:101CC00000211298C0EBC00002EBC0008170129896
:101CD000C0EBC000F54901EBC00001891298C0EBD0
:101CE000C000F24A02EBC000808A00F28F208142DD
:101CF00006DD00211298C0EBC00002EBC00081702D
:101D000006E11298C0EBC000E84911F8300009283C
:101D1000F6D1E7491098FEF735FE05D2E448109059
:101D20004FF081400A9008E0E2491098FEF734FE37
:101D300003D2E0481090E0480A900A98FEF7C2FDEE
:101D40000022DE4BCDE90601FEF7D0FD05D24FF0B3
:101D500081400A90D64810900BE00A98FEF7B2FD39
:101D60000022D74BCDE90601FEF7D8FD01D2D148BC
:101D700010901298C0EBC000CC4901EBC000C189A3
:101D80001298C0EBC000C94A02EBC000008A081AD2
:101D90000190FEF775FDC64903901098FEF772FB9F
:101DA00002900399FEF774FBC6490490FEF7A2FB6C
:101DB00006901298C0EBC000BC4901EBC000008A3D
:101DC0000490FEF766FD05900699FEF709FB079063
:101DD000FEF764FD81B21298C0EBC000B34A02EB7B
:101DE000C00001811299C1EBC10102EBC1010A9847
:101DF00048601298C0EBC000114601EBC000018999
:101E00001298C0EBC00002EBC000408A814206DBA2
:101E100002211298C0EBC00002EBC0008170129842
:101E2000C0EBC000A14901EBC00001891298C0EBD2
:101E3000C0009E4A02EBC000C089814206DB04213B
:101E40001298C0EBC00002EBC00081701298C0EB8A
:101E5000C000964901EBC00001891298C0EBC00098
:101E6000924A02EBC000808A814206DC032112986C
:101E7000C0EBC00002EBC00081701298C0EBC00044
:101E80008A4901EBC00001891298C0EBC000874A63
:101E900002EBC000008A814206DC05211298C0EBEB
:101EA000C00002EBC00081701298C0EBC0007F49F7
:101EB00001EBC00001891298C0EBC0007B4A02EB25
:101EC000C000408AA0F28F20814206DA00211298D9
:101ED000C0EBC00002EBC00081701298C0EBC000E4
:101EE000724901EBC00000E014E001891298C0EBD8
:101EF000C0006E4A02EBC000808A00F28F2081424F
:101F000006DD00211298C0EBC00002EBC00081701A
:101F100000E000BF00BF01F048BF1298C0EBC00056
:101F2000624911F8300008287ED009287DD00A289F
:101F300002D00B287AD100E000BF1298C0EBC0009D
:101F40005A4901EBC000808C0690FEF7A2FC5E4966
:101F50000790FEF7CFFA0F901298C0EBC0005349DC
:101F600001EBC000B0F926000690FEF789FC574946
:101F70000790FEF7BFFA0E90129800EB400154480C
:101F800000EB810000890390FEF783FC0590129816
:101F900000EB40004E4901EB8000C0880390FEF743
:101FA00078FC04900599FEF76DFA0790129800EB03
:101FB0004000474901EB800000890390FEF769FC6F
:101FC0000590129800EB4000414931F82000039041
:101FD000FEF75FFC04900599FEF754FA0690079906
:101FE000FEF788FA0D900F990D98FEF751FA0790B9
:101FF0000E99FEF7F5F90A900A98FEF763FC354A48
:10200000354BCDE90601FEF771FC01D200200A90A4
:1020100032480068FEF756FC0022314BCDE906013C
:10202000FEF77CFC06D202E010E310E3FEE30020A2
:102030002A4908601298C0EBC0011C4810F8310012
:102040000A280DD125480068FEF73CFC214A224BA6
:10205000CDE90601FEF74AFC02D200201F490860C4
:102060001298C0EBC000114911F830000B280ED1B6
:102070001A480068FEF726FC164A174BCDE9060100
:10208000FEF734FC03D24FF07E50144908600E492D
:102090000A98FEF7FDF909900B4910480068FEF711
:1020A000F7F90890DDE908101CE000002815002071
:1020B0000080BB450060EA460000A04100001040DF
:1020C000000034400080BB4600007A440050C34703
:1020D000D0150020FCA9F1D24D62403FD001002074
:1020E00000002440FEF7CEF9FE490790FEF754FCAD
:1020F00002D8FD490A980860DDE90801FEF7C2F937
:10210000F8490790FEF748FC02D8F7490A9808609A
:10211000DDE90801FEF7B6F90590FEF7D3FBF34AB7
:10212000F34BCDE90601FEF7E1FB07D800210A9841
:10213000FEF728FC02D1EC490A980860DDE9081096
:10214000FEF7A0F90590FEF7BDFBE84AE84BCDE9A4
:102150000601FEF7CBFB07D800210A98FEF712FC18
:1021600002D1E1490A980860DF480068FEF7AAFB3F
:10217000E04AE14BCDE90001FEF7A1FACDE9040107
:102180000A98FEF79FFBD94ADC4BCDE90001FEF728
:1021900096FACDE90201DDE90423FEF7E9F9CDE97C
:1021A0000601FEF7D3FB0A90CE490A98FEF7EAFB38
:1021B0000CD20A98FEF786FBD14AD24BCDE9060134
:1021C000FEF7ACFB02D2C8490A980860129800EBEF
:1021D0004000CD4931F82010129800EB4000CA4A67
:1021E00002EB80000089A0F5007081420BDA00202C
:1021F0000A90BD49086001211298C0EBC000C34A93
:1022000002EBC00081701298C0EBC000BF4911F80A
:1022100030000B2814D10A98FEF754FB0022BC4B67
:10222000CDE90601FEF762FB0AD24FF07E500A901C
:1022300001211298C0EBC000B44A02EBC0008170CB
:10224000B4490A98FEF756F9B3490790FEF720F90A
:102250001090B1491098FEF79FFB01D2AE48109044
:102260000A98FEF72FFB0022AC4BCDE90601FEF7E2
:1022700055FB01D2A7480A901298C0EBC000A349B1
:1022800011F830000A287DD11298C0EBC00001EB94
:10229000C000C1891298C0EBC0009C4A02EBC0008C
:1022A000008A081A0190FEF7EBFA002103901098BB
:1022B000FEF7E8F802900399FEF7EAF896490490D1
:1022C000FEF718F906901298C0EBC0018F4800EB9A
:1022D000C100008A0490FEF7DCFA05900699FEF72B
:1022E0007FF80790FEF7DAFA81B21298C0EBC000CF
:1022F000864A02EBC00001811299C1EBC10102EBD9
:10230000C1010A9848601298C0EBC000114601EB69
:10231000C00001891298C0EBC00002EBC000408AE7
:10232000814206DB02211298C0EBC00002EBC00024
:1023300081701298C0EBC000744901EBC0000189A4
:102340001298C0EBC000714A02EBC000C089814204
:1023500006DB04211298C0EBC00002EBC0008170C4
:102360001298C0EBC000694901EBC00001891298C6
:10237000C0EBC000654A02EBC000808A814208DCE5
:10238000032100E04FE01298C0EBC00002EBC00058
:1023900081701298C0EBC0005C4901EBC00001895C
:1023A0001298C0EBC000594A02EBC000008A81427B
:1023B00006DC05211298C0EBC00002EBC000817062
:1023C0001298C0EBC000514901EBC000018912987E
:1023D000C0EBC0004D4A02EBC000408AA0F28F2043
:1023E000814206DA00211298C0EBC00002EBC00067
:1023F00081701298C0EBC000444901EBC000018914
:102400001298C0EBC000414A02EBC000808A00F283
:102410008F20814206DD00211298C0EBC00002EB44
:10242000C000817011E11298C0EBC000374911F86B
:1024300030000B2855D10A98FEF744FA0022344B9D
:10244000CDE90601FEF752FA05D24FF07E500A9010
:102450003348109008E030491098FEF79DFA03D2F7
:102460002D4810902B480A901298C0EBC0002749C5
:1024700001EBC000C1891298C0EBC000234A02EBF7
:10248000C000008A081A0190FEF7FAF92449039067
:102490001098FDF7F7FF02900399FDF7F9FF214926
:1024A0000490FEF727F806901298C0EBC000174979
:1024B00001EBC000008A0490FEF7EBF90590069945
:1024C000FDF78EFF0790FEF7E9F981B21298C0EB95
:1024D000C0000E4A02EBC00001811299C1EBC1019C
:1024E00022E0B2E000002041D00100209A999999A1
:1024F0009999C93FCDCCCCCCCCCCEC3F9999B93F84
:10250000FCA9F1D24D62403FD015002028150020D3
:102510000000F03F0000A0400060EA4600001440C8
:102520000080BB450080BB4602EBC1010A984860B1
:102530001298C0EBC000114601EBC000018912984F
:10254000C0EBC00002EBC000408A814206DB0221E2
:102550001298C0EBC00002EBC00081701298C0EB73
:10256000C000FE4901EBC00001891298C0EBC00019
:10257000FA4A02EBC000C089814206DB04211298AE
:10258000C0EBC00002EBC00081701298C0EBC0002D
:10259000F24901EBC00001891298C0EBC000EF4A7C
:1025A00002EBC000808A814206DC03211298C0EB56
:1025B000C00002EBC00081701298C0EBC000E74978
:1025C00001EBC00001891298C0EBC000E34A02EBA6
:1025D000C000008A814206DC05211298C0EBC000D1
:1025E00002EBC00081701298C0EBC000DB4901EB28
:1025F000C00001891298C0EBC000D84A02EBC000AD
:10260000408AA0F28F20814206DA00211298C0EBA6
:10261000C00002EBC00081701298C0EBC000CF492F
:1026200001EBC00001891298C0EBC000CB4A02EB5D
:10263000C000808A00F28F20814206DD00211298BE
:10264000C0EBC00002EBC0008170FDE300BF129838
:10265000C0EBC000C14901EBC000008D0690FEF741
:1026600018F9BF490790FDF745FF0F901298C0EB8E
:10267000C000BA4901EBC000B0F92A000790FEF78C
:10268000FFF80E90129800EB4000B64901EB800075
:1026900000890390FEF7FDF80590129800EB4000CA
:1026A000B04901EB8000C0880390FEF7F2F8049077
:1026B0000599FDF7E7FE0790129800EB4000A94945
:1026C00001EB800000890390FEF7E3F80590129873
:1026D00000EB4000A34931F820000390FEF7D9F841
:1026E00004900599FDF7CEFE06900799FDF702FFCD
:1026F0000D90129800EB40009A4901EB8000008990
:102700000390FEF7C6F80590129800EB400095493B
:1027100001EB8000C0880390FEF7BBF80490059998
:10272000FDF7B0FE0790129800EB40008D4901EBD9
:10273000800000890390FEF7ACF80590129800EB3A
:102740004000884901EB800040880390FEF7A1F823
:1027500004900599FDF796FE06900799FDF7CAFECD
:102760000C901298C0EBC0007C4901EBC000B0F99E
:1027700026000490FEF784F87B490590FDF7BAFE29
:1027800007901298C0EBC000744901EBC000808C28
:102790000390FEF77EF875490490FDF7ABFE0590B7
:1027A0000D99FDF775FE06900799FDF719FE0B9040
:1027B0001298C0EBC000694901EBC000B0F92600D7
:1027C0000490FEF75DF868490590FDF793FE0790C9
:1027D0001298C0EBC000614901EBC000808C0390EF
:1027E000FEF757F861490490FDF784FE05900C99B7
:1027F000FDF74EFE06900799FDF7F2FD0A90DDE920
:102800000A10FDF73FFE0690594801680698FDF74B
:1028100071FE56490790FDF73BFE56490860DDE919
:102820000A10FDF72FFE06900F9900E023E3FDF755
:1028300061FE4E490790FDF72BFE0A900A98FEF7BD
:1028400041F84D4A4D4BCDE90601FEF74FF801D254
:1028500000200A901298C0EBC000404911F83000E7
:1028600008280DD146480068FEF72CF8424A434B31
:10287000CDE90601FEF73AF802D20020404908608F
:102880003A490A98FDF704FE099038493C48006827
:10289000FDF7FEFD0890DDE90810FDF7F3FD39496D
:1028A0000790FEF779F802D835490A980860DDE903
:1028B0000801FDF7E7FD33490790FEF76DF802D8F0
:1028C0002F490A980860DDE90801FDF7DBFD059056
:1028D000FDF7F8FF2C4A2D4BCDE90601FEF706F86F
:1028E00007D800210A98FEF74DF802D124490A982A
:1028F0000860DDE90810FDF7C5FD0590FDF7E2FF72
:10290000214A224BCDE90601FDF7F0FF07D800214F
:102910000A98FEF737F802D119490A980860184852
:102920000068FDF7CFFF1A4A1A4BCDE90001FDF709
:10293000C6FECDE904010A98FDF7C4FF124A164B02
:10294000CDE90001FDF7BBFECDE90201DDE904237D
:10295000FDF70EFECDE9060120E00000281500205D
:102960000000C842D01500200050C34700007A4440
:10297000DC010020D8010020FCA9F1D24D62403FCB
:10298000D0010020000048429A9999999999C93F2D
:10299000CDCCCCCCCCCCEC3F9999B93FFDF7D6FF50
:1029A0000A90FE490A98FDF7EDFF0CD20A98FDF750
:1029B00089FFFB4AFB4BCDE90601FDF7AFFF02D2D1
:1029C000F9490A9808601298C0EBC000F74911F85D
:1029D0003000092819D1F4480068FDF773FFF44A64
:1029E000F44BCDE90601FDF781FF0ED24FF0814097
:1029F0000A904FF07E50EC49086001211298C0EB1C
:102A0000C000EA4A02EBC0008170EB490A98FDF76A
:102A100071FDEA490790FDF73BFD1090E7491098DA
:102A2000FDF7BAFF01D2E54810900A98FDF74AFF7A
:102A30000022E34BCDE90601FDF770FF01D2DE482D
:102A40000A901298C0EBC000D84911F8300008284D
:102A50007ED1DC491098FDF79FFF03D2D948109032
:102A6000D9480A900A98FDF72DFF0022D74BCDE9EF
:102A70000601FDF753FF03D2D3480A90D1481090C6
:102A80001298C0EBC000C94901EBC000C18912987F
:102A9000C0EBC000C54A02EBC000008A081A0190D2
:102AA000FDF7EEFE002103901098FDF7EBFC02907D
:102AB0000399FDF7EDFCC3490490FDF71BFD06905B
:102AC0001298C0EBC001B94800EBC100008A049025
:102AD000FDF7DFFE05900699FDF782FC0790FDF7F4
:102AE000DDFE81B21298C0EBC000B04A02EBC0001C
:102AF00001811299C1EBC10102EBC1010A98486042
:102B00001298C0EBC000114601EBC0000189129879
:102B1000C0EBC00002EBC000408A814206DB02210C
:102B20001298C0EBC00002EBC00081701298C0EB9D
:102B3000C0009E4901EBC00001891298C0EBC000A3
:102B40009A4A02EBC000C089814208DB042100E000
:102B500066E01298C0EBC00002EBC00081701298D2
:102B6000C0EBC000914901EBC00001891298C0EB95
:102B7000C0008E4A02EBC000808A814206DC03213D
:102B80001298C0EBC00002EBC00081701298C0EB3D
:102B9000C000864901EBC00001891298C0EBC0005B
:102BA000824A02EBC000008A814206DC05211298AD
:102BB000C0EBC00002EBC00081701298C0EBC000F7
:102BC0007A4901EBC00001891298C0EBC000774A36
:102BD00002EBC000408AA0F28F20814206DA002179
:102BE0001298C0EBC00002EBC00081701298C0EBDD
:102BF000C0006E4901EBC00001891298C0EBC00013
:102C00006A4A02EBC000808A00F28F20814206DD12
:102C100000211298C0EBC00002EBC000817029E1D6
:102C20001298C0EBC000614911F8300009287DD12D
:102C300067491098FDF7A6FE05D2654810904FF041
:102C400081400A9008E05D491098FDF7A5FE03D287
:102C50005A48109058480A900A98FDF733FE00220F
:102C60005C4BCDE90601FDF741FE05D24FF08140F6
:102C70000A90574810900BE00A98FDF723FE0022B7
:102C80004F4BCDE90601FDF749FE01D24B481090AC
:102C90001298C0EBC000454901EBC000C1891298F1
:102CA000C0EBC000414A02EBC000008A081A019044
:102CB000FDF7E6FD464903901098FDF7E3FB02900F
:102CC0000399FDF7E5FB44490490FDF713FC0690DA
:102CD0001298C0EBC000354901EBC000008A049097
:102CE000FDF7D7FD05900699FDF77AFB0790FDF7F4
:102CF000D5FD81B21298C0EBC0002C4A02EBC00097
:102D000001811299C1EBC10102EBC1010A9848602F
:102D10001298C0EBC000114601EBC0000189129867
:102D2000C0EBC00002EBC000408A00E0A2E081429C
:102D300006DB02211298C0EBC00002EBC0008170DC
:102D40001298C0EBC000194901EBC000018912982C
:102D5000C0EBC000154A02EBC000C089814206DB0F
:102D600004211298C0EBC00002EBC00081701298E1
:102D7000C0EBC0000D4901EBC00001891298C0EB07
:102D8000C0000A4A02EBC000808A814227DC03218E
:102D90001298C0EBC00002EBC0001FE00000F04141
:102DA000FCA9F1D24D62403FD0010020281500203F
:102DB000AE47E17A14AE0F400000A0410060EA4641
:102DC0000000344000606A460000204100002440BA
:102DD0000080BB45000010400080BB468170129807
:102DE000C0EBC000FE4901EBC00001891298C0EBA6
:102DF000C000FB4A02EBC000008A814206DC0521CC
:102E00001298C0EBC00002EBC00081701298C0EBBA
:102E1000C000F34901EBC00001891298C0EBC0006B
:102E2000EF4A02EBC000408AA0F28F20814206DA0E
:102E300000211298C0EBC00002EBC0008170129814
:102E4000C0EBC000E64900E016E001EBC0000189DC
:102E50001298C0EBC000E24A02EBC000808A00F288
:102E60008F20814206DD00211298C0EBC00002EBEA
:102E7000C000817000E000BF00BFFDE31298C0EB0E
:102E8000C000D74911F8300008287DD009287CD02F
:102E90000A2802D00B2879D100E000BF1298C0EBBD
:102EA000C000CF4901EBC000808C0690FDF7F1FC1B
:102EB000CC490790FDF71EFB0F901298C0EBC000A5
:102EC000C74901EBC000B0F926000690FDF7D8FC19
:102ED000C5490790FDF70EFB0E90129800EB4000DD
:102EE000C24901EB800000890390FDF7D2FC0590F8
:102EF000129800EB4000BD4901EB8000C0880390B0
:102F0000FDF7C7FC04900599FDF7BCFA07901298ED
:102F100000EB4000B54901EB800000890390FDF70C
:102F2000B8FC0590129800EB4000B04931F8200041
:102F30000390FDF7AEFC04900599FDF7A3FA069007
:102F40000799FDF7D7FA0D900F990D98FDF7A0FAA4
:102F500007900E99FDF744FA0A900A98FDF7B2FC23
:102F6000A34AA44BCDE90601FDF7C0FC01D2002025
:102F70000A90A1480068FDF7A5FC00229F4BCDE90F
:102F80000601FDF7CBFC02E0F7E2F7E2FEE302D236
:102F90000020994908601298C0EBC000904911F8D0
:102FA00030000A280DD194480068FDF78BFC904A48
:102FB000904BCDE90601FDF799FC02D200218E4825
:102FC00001601298C0EBC000854911F830000B2851
:102FD0000ED189480068FDF775FC854A854BCDE91F
:102FE0000601FDF783FC03D24FF07E508249086052
:102FF0007C490A98FDF74CFA09907A497E480068A6
:10300000FDF746FA0890DDE90810FDF73BFA7C4928
:103010000790FDF7C1FC02D877490A980860DDE9FE
:103020000801FDF72FFA76490790FDF7B5FC02D8A5
:1030300071490A980860DDE90801FDF723FA059057
:10304000FDF740FC6F4A704BCDE90601FDF74EFCE1
:1030500007D800210A98FDF795FC02D166490A9825
:103060000860DDE90810FDF70DFA0590FDF72AFC70
:10307000644A654BCDE90601FDF738FC07D800210D
:103080000A98FDF77FFC02D15B490A9808605A480C
:103090000068FDF717FC5D4A5D4BCDE90001FDF7C7
:1030A0000EFBCDE904010A98FDF70CFC554A594B7B
:1030B000CDE90001FDF703FBCDE90201DDE90423C1
:1030C000FDF756FACDE90601FDF740FC0A904C49A0
:1030D0000A98FDF757FC0CD20A98FDF7F3FB444A17
:1030E000444BCDE90601FDF719FC02D242490A988A
:1030F0000860129800EB40003C4931F8201012980B
:1031000000EB4000394A02EB80000089A0F5007016
:1031100081420BDA00200A90374908600121129899
:10312000C0EBC0002E4A02EBC00081701298C0EBC9
:10313000C0002B4911F830000B2814D10A98FDF774
:10314000C1FB0022344BCDE90601FDF7CFFB0AD2CB
:103150004FF07E500A9001211298C0EBC000204A27
:1031600002EBC00081702D490A98FDF7C3F92C4984
:103170000790FDF78DF9109029491098FDF70CFC88
:1031800001D2274810900A98FDF79CFB0022254B9E
:10319000CDE90601FDF7C2FB01D220480A90129842
:1031A000C0EBC0000E4911F830000A287ED11298F9
:1031B000C0EBC00001EBC000C1891298C0EBC00099
:1031C000074A02EBC000008A081A0190FDF758FB7D
:1031D000002103901098FDF755F90290039923E020
:1031E0002815002000007A440050C347D015002065
:1031F000FCA9F1D24D62403FD401002000002440E0
:10320000000020419A9999999999C93FCDCCCCCC8D
:10321000CCCCEC3F9999B93F0000F03F0000A040B2
:103220000060EA4600001440FDF732F9FE490490C0
:10323000FDF760F906901298C0EBC000FB4901EB66
:10324000C000008A0490FDF724FB05900699FDF765
:10325000C7F80790FDF722FB81B21298C0EBC000BF
:10326000F24A02EBC00001811299C1EBC10102EBED
:10327000C1010A9848601298C0EBC000114601EBEA
:10328000C00001891298C0EBC00002EBC000408A68
:10329000814206DB02211298C0EBC00002EBC000A5
:1032A00081701298C0EBC001E04800E074E000EBD0
:1032B000C10001891298C0EBC000DC4A02EBC000DB
:1032C000C089814206DB04211298C0EBC00002EBEA
:1032D000C00081701298C0EBC000D44901EBC0005F
:1032E00001891298C0EBC000D04A02EBC000808A6E
:1032F000814206DC03211298C0EBC00002EBC00043
:1033000081701298C0EBC000C84901EBC000018970
:103310001298C0EBC000C54A02EBC000008A81428F
:1033200006DC05211298C0EBC00002EBC0008170E2
:103330001298C0EBC000BD4901EBC0000189129892
:10334000C0EBC000B94A02EBC000408AA0F28F2057
:10335000814207DA00211298C0EBC002B34800EBAB
:10336000C20081701298C0EBC000B04901EBC000F0
:1033700001891298C0EBC000AC4A02EBC000808A01
:1033800000F28F20814206DD00211298C0EBC000C0
:1033900002EBC0008170EFE01298C0EBC001A348BF
:1033A00010F831000B287DD10A98FDF78BFA002226
:1033B0009F4BCDE90601FDF799FA05D24FF07E50FB
:1033C0000A909C48109008E097491098FDF7E4FA9D
:1033D00003D29548109098480A901298C0EBC0000C
:1033E000924901EBC000C1891298C0EBC0008F4A1E
:1033F00002EBC000008A081A0190FDF741FA8D49DE
:1034000003901098FDF73EF802900399FDF740F8FD
:103410008A490490FDF76EF806901298C0EBC00040
:10342000824901EBC000008A0490FDF732FA059052
:103430000699FCF7D5FF0790FDF730FA81B2129894
:10344000C0EBC000794A02EBC00001811299C1EBC8
:10345000C10102EBC1010A9848601298C0EBC0009C
:10346000114601EBC00001891298C0EBC00002EBCD
:10347000C000408A814206DB02211298C0EBC000E6
:1034800002EBC00081701298C0EBC000674901EBED
:10349000C00001891298C0EBC000644A02EBC00072
:1034A000C08900E068E0814206DB04211298C0EB8D
:1034B000C00002EBC00081701298C0EBC0005B49F5
:1034C00001EBC00001891298C0EBC000574A02EB23
:1034D000C000808A814206DC03211298C0EBC00044
:1034E00002EBC00081701298C0EBC0004F4901EBA5
:1034F000C00001891298C0EBC0004C4A02EBC0002A
:10350000008A814206DC05211298C0EBC00002EB64
:10351000C00081701298C0EBC000444901EBC000AC
:1035200001891298C0EBC000404A02EBC000408AFB
:10353000A0F28F20814206DA00211298C0EBC00071
:1035400002EBC00081701298C0EBC000374901EB5C
:10355000C00001891298C0EBC000344A02EBC000E1
:10356000808A00F28F20814206DD00211298C0EB94
:10357000C00002EBC0008170FEE300BF1298C0EBF8
:10358000C0002A4901EBC000008D0690FDF781F9CB
:103590002B490790FCF7AEFF0F901298C0EBC000CC
:1035A000224901EBC000B0F92A000790FDF768F945
:1035B0000E90129800EB4000224901EB8000008938
:1035C0000390FDF766F90590129800EB40001D4945
:1035D00001EB8000C0880390FDF75BF9049005992A
:1035E000FCF750FF0790129800EB4000154901EBE3
:1035F000800000890390FDF74CF90590129800EBCC
:103600004000104931F820000390FDF742F9049082
:103610000599FCF737FF06900799FCF76BFF0D90B3
:10362000129800EB40000FE00060EA4628150020E9
:103630000000F03F0080BB450000A0400080BB467A
:103640000000C842D0150020FD4901EB8000008930
:103650000390FDF71EF90590129800EB4000F84921
:1036600001EB8000C0880390FDF713F904900599E1
:10367000FCF708FF079000E095E3129800EB40008C
:10368000EF4901EB800000890390FDF702F90590F6
:10369000129800EB4000EA4901EB8000408803905B
:1036A000FDF7F7F804900599FCF7ECFE06900799F2
:1036B000FCF720FF0C901298C0EBC000E14901EB31
:1036C000C000B0F926000490FDF7DAF8DE49059055
:1036D000FCF710FF07901298C0EBC000D94901EB2E
:1036E000C000808C0390FDF7D4F8D8490490FCF713
:1036F00001FF05900D99FCF7CBFE06900799FCF7AA
:103700006FFE0B901298C0EBC000CE4901EBC000D9
:10371000B0F926000490FDF7B3F8CB490590FCF70B
:10372000E9FE07901298C0EBC000C64901EBC0004B
:10373000808C0390FDF7ADF8C4490490FCF7DAFEE5
:1037400005900C99FCF7A4FE06900799FCF748FE3B
:103750000A90DDE90A10FCF795FE0690BC48016866
:103760000698FCF7C7FEB9490790FCF791FEB949E6
:103770000860DDE90A10FCF785FE06900F99FCF75A
:10378000B9FEB2490790FCF783FE00E009E30A9016
:103790000A98FDF797F8B04AB04BCDE90601FDF75E
:1037A000A5F801D200200A901298C0EBC000A549EC
:1037B00011F8300008280DD1A9480068FDF782F8FB
:1037C000A54AA64BCDE90601FDF790F802D20020EC
:1037D000A34908609D490A98FCF75AFE09909B4945
:1037E0009F480068FCF754FE0890DDE90810FCF7DC
:1037F00049FE9C490790FDF7CFF802D898490A98EE
:103800000860DDE90801FCF73DFE96490790FDF7E9
:10381000C3F802D892490A980860DDE90801FCF76C
:1038200031FE0590FDF74EF88F4A904BCDE9060129
:10383000FDF75CF807D800210A98FDF7A3F802D13C
:1038400087490A980860DDE90810FCF71BFE05901F
:10385000FDF738F8844A854BCDE90601FDF746F8B7
:1038600007D800210A98FDF78DF802D17C490A9803
:1038700008607B480068FDF725F87D4A7D4BCDE95F
:103880000001FCF71CFFCDE904010A98FDF71AF8C6
:10389000754A794BCDE90001FCF711FFCDE9020132
:1038A000DDE90423FCF764FECDE90601FDF74EF8DF
:1038B0000A9072490A98FDF765F80CD20A98FDF74C
:1038C00001F8654A654BCDE90601FDF727F802D2FC
:1038D00063490A9808601298C0EBC000594911F872
:1038E0003000092818D15E480068FCF7EBFF644AF5
:1038F000644BCDE90601FCF7F9FF0DD24FF0814092
:103900000A9000205649086001211298C0EBC000BF
:103910004C4A02EBC00081705B490A98FCF7EAFD53
:103920005A490790FCF7B4FD109058491098FDF7DC
:1039300033F801D2554810900A98FCF7C3FF0022D3
:10394000534BCDE90601FCF7E9FF01D24E480A903E
:103950001298C0EBC0003B4911F8300008286ED126
:103960004C491098FDF718F803D24A4810904A487D
:103970000A900A98FCF7A6FF0022484BCDE9060101
:10398000FCF7CCFF03D244480A90424810901298AA
:10399000C0EBC0002B4901EBC000C1891298C0EBFD
:1039A000C000284A02EBC000008A081A0190FCF708
:1039B00067FF002103901098FCF764FD02900399C3
:1039C000FCF766FD33490490FCF794FD06901298CD
:1039D000C0EBC0001B4901EBC000008A0490FCF75B
:1039E00058FF05900699FCF7FBFC0790FCF756FF83
:1039F00081B21298C0EBC000124A02EBC0000181F4
:103A00001299C1EBC10102EBC1010A9848601298FA
:103A1000C0EBC000114601EBC00001891298C0EB59
:103A2000C00002EBC000408A814206DB02211298EE
:103A3000C0EBC00002EBC0008170129830E0A6E03D
:103A4000D0150020281500200050C34700007A44FC
:103A5000DC010020D8010020FCA9F1D24D62403FDA
:103A6000D4010020000048429A9999999999C93F38
:103A7000CDCCCCCCCCCCEC3F9999B93F0000F041F7
:103A8000AE47E17A14AE0F400000A0410060EA4664
:103A90000000344000606A460000204100002440DD
:103AA000C0EBC000C24901EBC00001891298C0EB15
:103AB000C000BF4A02EBC000C089814206DB04217E
:103AC0001298C0EBC00002EBC00081701298C0EBEE
:103AD000C000B74901EBC00001891298C0EBC000DB
:103AE000B34A02EBC000808A814206DC03211298AF
:103AF000C0EBC00002EBC00081701298C0EBC000A8
:103B0000AB4901EBC00001891298C0EBC000A84A84
:103B100002EBC000008A814206DC05211298C0EB4E
:103B2000C00002EBC00081701298C0EBC000A04939
:103B300001EBC00001891298C0EBC0009C4A02EB67
:103B4000C000408AA0F28F20814206DA002112983C
:103B5000C0EBC00002EBC00081701298C0EBC00047
:103B6000934901EBC00001891298C0EBC000904A54
:103B700002EBC000808A00F28F20814206DD002126
:103B80001298C0EBC00002EBC000817008E11298EF
:103B9000C0EBC000864911F8300009287ED1854964
:103BA0001098FCF7EFFE05D2824810904FF081404C
:103BB0000A9008E080491098FCF7EEFE03D27E4898
:103BC00010907E480A900A98FCF77CFE00227C4BFD
:103BD000CDE90601FCF78AFE05D24FF081400A903C
:103BE000744810900BE00A98FCF76CFE0022754BAD
:103BF000CDE90601FCF792FE01D26F4810901298B1
:103C0000C0EBC0006A4901EBC000C1891298C0EB4B
:103C1000C000674A02EBC000008A081A0190FCF756
:103C20002FFE644903901098FCF72CFC0290039936
:103C3000FCF72EFC64490490FCF75CFC069012989B
:103C4000C0EBC0005A4901EBC000008A0490FCF7A9
:103C500020FE05900699FCF7C3FB0790FCF71EFEBB
:103C600081B21298C0EBC000514A02EBC000018142
:103C70001299C1EBC10102EBC1010A984860129888
:103C8000C0EBC000114601EBC00001891298C0EBE7
:103C9000C00002EBC000408A814200E080E006DB09
:103CA00002211298C0EBC00002EBC0008170129894
:103CB000C0EBC0003E4901EBC00001891298C0EB87
:103CC000C0003B4A02EBC000C089814206DB0421F0
:103CD0001298C0EBC00002EBC00081701298C0EBDC
:103CE000C000334901EBC00001891298C0EBC0004D
:103CF0002F4A02EBC000808A814206DC0321129821
:103D0000C0EBC00002EBC00081701298C0EBC00095
:103D1000274901EBC00001891298C0EBC000244A7A
:103D200002EBC000008A814206DC05211298C0EB3C
:103D3000C00002EBC00081701298C0EBC0001C49AB
:103D400001EBC00001891298C0EBC000184A02EBD9
:103D5000C000408AA0F28F20814206DA002112982A
:103D6000C0EBC00002EBC00081701298C0EBC00035
:103D70000F4901EBC00000E014E001891298C0EB8C
:103D8000C0000B4A02EBC000808A00F28F20814203
:103D900006DD00211298C0EBC00002EBC00081706C
:103DA00000E000BF00BF00E000BF00BF13B000BDD7
:103DB000281500200080BB450060EA460000A041B5
:103DC00000001040000034400080BB4610B503489E
:103DD000007800F015FE00F005FF10BDB5010020D1
:103DE0002DE9F0410646884614461D4627462A46D8
:103DF0003946304600F04AF8BDE8F08101490160DB
:103E000070470000E13D000810B5042006F0A4FC56
:103E100004460CB9002010BD2046FFF7EFFF2046F6
:103E2000F9E74FF4007006F097FC064600244FF4C3
:103E300000713046FCF760FA27E00A2006F01AFE0F
:103E40004FF40071304608F0C5FE0446002C00DC3B
:103E50001BE0304605F0E0F968B9304605F078FE21
:103E600000BF3046FCF771FA85B22946304608F0AB
:103E700005FF0028F5D1304604F036FB20B9304666
:103E800004F0D2FB04F08AFB00BFD6E770B506460B
:103E90000C461546304604F027FB50B9074804602D
:103EA00007480560304604F0BFFB04F077FB0020B4
:103EB00070BD002001490860401EF9E75000002055
:103EC0005400002070B505460C46284621688847F6
:103ED0000F4908602846616888470D4948602846B0
:103EE000A16888470A4988602846216988470849A7
:103EF000C860284661698847054908612846E16825
:103F000088470349486108460068A860002070BDE2
:103F1000700C002010B50548006818B900F01EFEAE
:103F2000024908600148006810BD000058000020E8
:103F300010B5012000F094F998B10021094800F073
:103F4000D9F800210848FCF7C0FF00210648FCF71B
:103F500009FF01200549087000F08AF8012000F0EF
:103F6000BBF810BD0800024000240140AE01002053
:103F700010B5202000F074F998B10A49486800F0A3
:103F8000ABF808490868002100F0B4F840F2266157
:103F9000054803F0CFF9012240F22661024803F000
:103FA0000AFB10BDC8000020004800401CB54FF4BB
:103FB000001000F055F980B31849C868002100F0DE
:103FC00099F81649086900F087F8154805F0FEFED3
:103FD00004461249C86800F03FF9201A1149888048
:103FE00001AA69460E480AF0C7F80C490098C9684A
:103FF000C860BDF904000949C96848600749C86834
:10400000012100F077F80848006801690648006857
:1040100088470648006806F0D5FD1CBDE00000207A
:10402000C0130020DC14002048000020780100208C
:1040300010B54FF0007000F013F998B10A494868C4
:1040400000F04AF808490868002100F053F840F2EF
:104050002661064803F06EF9012240F2266103480A
:1040600003F0A9FA10BD0000E00000200044004069
:1040700000B58BB01449C86800F048F813480090A8
:104080001348019000200290C82003900020049063
:104090008020059040000690800007902020089026
:1040A000002009900A9069460A4800F072F9064912
:1040B0000122C868022100F063F90349C8680121A0
:1040C00000F018F80BB000BD080100204C2401409E
:1040D000781600200800024000F0805111B1034919
:1040E000086001E002494860704700000404024093
:1040F0000000024021B1026842F00102026004E0C7
:1041000002684FF6FE731A400260704701684FF66E
:10411000FE72114001600021016041608160C16058
:104120004B49884208D14A490839496841F00F0192
:10413000474A083A51608AE045491431884208D11B
:1041400043490839496841F0F001414A083A516051
:104150007DE03F492831884208D13D490839496806
:1041600041F470613A4A083A516070E038493C3194
:10417000884208D136490839496841F47041344AC7
:10418000083A516063E032495031884208D13049E1
:104190000839496841F470212D4A083A516056E0C7
:1041A0002B496431884208D129490839496841F4CA
:1041B0007001274A083A516049E025497831884220
:1041C00008D123490839496841F07061204A083A0A
:1041D00051603CE01F49884206D1011F096841F047
:1041E0000F01021F116032E01A491431884208D1D0
:1041F0001849091F096841F0F001164A121F1160A1
:1042000025E014492831884208D11249091F09685C
:1042100041F470610F4A121F116018E00D493C31E2
:10422000884208D10B49091F096841F47041094AC5
:10423000121F11600BE007495031884207D1054930
:10424000091F096841F47021024A121F116070476A
:1042500008000240080402400146486880B27047E6
:1042600001460020002201F0805313B1054B1A686B
:1042700001E0054B1A6802EA01030BB1012000E0DE
:1042800000207047000402400000024000B58DB0DD
:104290000121084602F044F8344908680021FFF77C
:1042A00029FF32490868FFF731FF31480290314851
:1042B000039010200490400105900020069080207B
:1042C00007900020089009900A904FF480500B90BE
:1042D00000200C902549086802A900F05AF82349EB
:1042E0004868FFF7F9FE214908680021FFF702FF3F
:1042F0001E4901220868022100F042F801AA69461D
:104300001D4809F039FF1949C8680021FFF7F2FE7E
:104310001649C868FFF7FAFE154802900098039006
:1043200000200490BDF90400059000200690802034
:1043300007900020089009900A904FF440500B908D
:1043400000200C900949C86802A900F022F807492A
:104350000869FFF7C1FE0549C8680121FFF7CAFED9
:1043600006490098C8600DB000BD0000C8000020DC
:1043700004480040B00C0020880C0020B00F002042
:104380001AB103680B43036002E003688B430360C8
:10439000704710B50022026847F6F0739A430C6A22
:1043A0008B6823430C6923434C6923438C69234363
:1043B000CC6923434C6A23438C6A23431A4302602B
:1043C000CB6843600B6883604B68C36010BD00001E
:1043D00000B58DB00121084601F0A2FF2F49086801
:1043E0000021FFF787FE2D490868FFF78FFE2C4854
:1043F00002902C48039010200490000105900020AA
:104400000690802007900020089009900A900B9059
:104410000C902249086802A9FFF7BBFF1F494868B2
:10442000FFF75AFE1D4908680021FFF763FE1B498C
:10443000012208680221FFF7A3FF01AA69461A4872
:1044400009F09AFE1549C8680021FFF753FE134989
:10445000C868FFF75BFE12480290009803900020A6
:104460000490BDF90400059000200690802007907C
:104470000020089009900A900B900C900749C8689A
:1044800002A9FFF786FF05490869FFF725FE0349E2
:10449000C8680121FFF72EFE0DB000BDE00000202E
:1044A00004440040C00F0020C0130020F0B50D46AA
:1044B000002120B101287AD0022879D1AFE100246F
:1044C0001EE0002216E0FE4E36F81270B446561C6E
:1044D0003CF81660B7420BDD664636F812103746D8
:1044E000561C37F8166027F81260561C27F816106D
:1044F000561CF2B2C4F1C7069642E4DC661CF4B264
:10450000C72CDEDB0021582305E0ED4E36F81360A2
:1045100031445E1CF3B2712BF7DB1926B1FBF6F1C7
:10452000E84F398035B1012D2DD0022D56D0032D05
:104530007ED182E0C0EBC006E34F17F83660082E4C
:1045400005D0C0EBC00617F83660092E07D100EB86
:104550004007DFF878C30CEB8707798012E0C0EBE7
:10456000C006D94F17F836600A2E05D0C0EBC0063A
:1045700017F836600B2E05D100EB4007DFF84CC36F
:104580002CF8271072E0C0EBC006CF4F17F836604A
:10459000082E05D0C0EBC00617F83660092E08D1EA
:1045A00000EB4007DFF824C32CF8271015E05FE08C
:1045B0001CE2C0EBC006C44F17F836600A2E05D0C7
:1045C000C0EBC00617F836600B2E06D100EB400793
:1045D000DFF8F8C20CEB8707398147E0C0EBC00673
:1045E000B94F17F83660082E05D0C0EBC00617F893
:1045F0003660092E07D100EB4007DFF8D0C20CEB84
:104600008707398118E0C0EBC006AF4F17F8366056
:104610000A2E05D0C0EBC00617F836600B2E0BD162
:1046200000EB4007DFF8A4C20CEB8707F98000E03D
:104630001BE00126A64F3E7018E0C0EBC006A24F5B
:1046400017F83660082E05D0C0EBC00617F83660A4
:10465000092E09D100EB4007DFF870C20CEB870789
:10466000F98001269A4F3E7000E000BF00BFBEE116
:1046700000241EE0002216E0914E36F81270B44677
:10468000561C3CF81660B7420BDD664636F8121031
:104690003746561C37F8166027F81260561C27F864
:1046A0001610561CF2B2C4F1C7069642E4DC661C32
:1046B000F4B2C72CDEDB0021582305E0804E36F82B
:1046C000136031445E1CF3B2712BF7DB1926B1FB8A
:1046D000F6F1804F398035B1012D2DD0022D54D007
:1046E000032D7DD180E0C0EBC006774F17F8366010
:1046F000082E05D0C0EBC00617F83660092E07D18A
:1047000000EB4007DFF8C4C10CEB8707798012E0AB
:10471000C0EBC0066C4F17F836600A2E05D0C0EB10
:10472000C00617F836600B2E05D100EB4007DFF806
:104730009CC12CF8271070E0C0EBC006624F17F840
:104740003660082E05D0C0EBC00617F83660092E7B
:1047500006D100EB4007DFF874C12CF8271013E0F6
:10476000C0EBC006584F17F836600A2E05D0C0EBD4
:10477000C00617F836600B2E06D100EB4007DFF8B5
:104780004CC10CEB8707398147E0C0EBC0064E4FA8
:1047900017F83660082E05D0C0EBC00617F8366053
:1047A000092E07D100EB4007DFF820C10CEB87078B
:1047B000398118E0C0EBC006434F17F836600A2E67
:1047C00005D0C0EBC00617F836600B2E0BD100EBFE
:1047D0004007DFF8F8C00CEB8707F980012600E0FE
:1047E0001AE03D4F3E7018E0C0EBC006364F17F898
:1047F0003660082E05D0C0EBC00617F83660092ECB
:1048000009D100EB4007DFF8C4C00CEB8707F98043
:104810000126314F3E7000E000BF00BFE7E00024FA
:104820001EE0002216E0264E36F81270B446561CE2
:104830003CF81660B7420BDD664636F81210374674
:10484000561C37F8166027F81260561C27F8161009
:10485000561CF2B2C4F1C7069642E4DC661CF4B200
:10486000C72CDEDB0021582305E0154E36F8136017
:1048700031445E1CF3B2712BF7DB1926B1FBF6F164
:10488000164F398035B1012D3ED0022D65D0032D54
:1048900078D190E0C0EBC0060B4F17F83660082EB9
:1048A00005D0C0EBC00617F83660092E18D100EB12
:1048B0004007DFF818C00CEB8707798023E0000081
:1048C00078160020C601002028150020D0150020F1
:1048D000C3010020C8010020C4010020CA0100203B
:1048E000C0EBC006434F17F836600A2E05D0C0EB68
:1048F000C00617F836600B2E05D100EB4007DFF835
:10490000F8C02CF827106FE0C0EBC006394F17F83D
:104910003660082E05D0C0EBC00617F83660092EA9
:1049200006D100EB4007DFF8D0C02CF8271013E0C9
:10493000C0EBC0062F4F17F836600A2E05D0C0EB2B
:10494000C00617F836600B2E06D100EB4007DFF8E3
:10495000A8C00CEB8707398146E0C0EBC006254FA5
:1049600017F83660082E05D0C0EBC00617F8366081
:10497000092E08D100EB4007DFF87CC00CEB87075D
:10498000398117E02FE0C0EBC0061A4F17F83660E8
:104990000A2E05D0C0EBC00617F836600B2E09D1E1
:1049A00000EB4007DFF850C00CEB8707F9800126C9
:1049B000124F3E7018E0C0EBC0060E4F17F836607D
:1049C000082E05D0C0EBC00617F83660092E09D1B5
:1049D00000EB4007DFF820C00CEB8707F9800126C9
:1049E000064F3E7000E000BF00BF00E000BF00BF08
:1049F000F0BD000028150020D0150020C5010020C2
:104A000010B504464148007801287ED100203F4976
:104A1000087024B1012C28D0022C74D14BE03C4802
:104A200000783C4908703A480078401C38490870C2
:104A3000002009F04DFA002202213748FFF7A0FCC0
:104A400000220121880702F0ECFA324801780020A8
:104A5000FFF72CFD012202212F48FFF791FC0122D4
:104A60001146900702F0DDFA4EE02C4800782C4900
:104A700008702A480078401C28490870012009F075
:104A800027FA002202212448FFF77AFC00220121A4
:104A9000880702F0C6FA224801780120FFF706FDD8
:104AA000012202211C48FFF76BFC012211469007EE
:104AB00002F0B7FA28E01B4800781B490870194833
:104AC0000078401C17490870022009F001FA002202
:104AD00002211148FFF754FC00220121880702F04F
:104AE000A0FA114801780220FFF7E0FC0122022120
:104AF0000948FFF745FC01221146900702F091FAA0
:104B000002E002E0FFE700BF00BF10BDAE010020E1
:104B1000B7010020B801002008000240B9010020C0
:104B2000BA010020BB010020BC01002070B5044682
:104B3000064890F8F40138B12046FBF706FC85B230
:104B40002946204608F09AF870BD0000E4090020CC
:104B50000149016070470000774B000810B5042040
:104B600005F0FAFD04460CB9002010BD2046FFF701
:104B7000EFFF2046F9E710B5044624B1012C05D01B
:104B8000022C09D105E001F0B1FB07E001F0D6FEEF
:104B900004E001F08BFD01E0002000BF00BF10BD6C
:104BA00000E0401C0178202902D101780029F8D1C9
:104BB000704700000149016070470000DB4B0008AE
:104BC00010B5042005F0C8FD04460CB9002010BD46
:104BD0002046FFF7EFFF2046F9E710B504464FF0F7
:104BE000FF3010BD10B54D480078012807D04C4863
:104BF0000078012803D04B48007801282CD1474881
:104C00000078012829D1002044490870002202219F
:104C10004548FFF7B5FB00220121880702F001FAA1
:104C200000204249087042490870FCF7C3F900208F
:104C3000FCF75AF83F48007820B901203D49087038
:104C400009F046F9012202213748FFF799FB0122BA
:104C50001146900702F0E5F95EE03148007801283E
:104C60002BD100202E490870002202212E48FFF788
:104C700087FB00220121880702F0D3F900202E498A
:104C800008702E4908700120FCF794F90120FCF708
:104C90002BF828480078012804D102202549087003
:104CA00009F016F9012202211F48FFF769FB0122D2
:104CB0001146900702F0B5F92EE01A480078012855
:104CC0002AD1002017490870002202211648FFF758
:104CD00057FB00220121880702F0A3F900201849A0
:104CE0000870184908700220FCF764F90220FBF7ED
:104CF000FBFF10480078022804D100200D490870FD
:104D000009F0E6F8012202210748FFF739FB0122EA
:104D10001146900702F085F910BD0000C301002084
:104D2000C4010020C501002008000240B801002095
:104D3000B7010020B5010020BA010020B901002010
:104D4000BC010020BB0100202DE9F04705460E46BE
:104D50009046994600F060FD074600240E48007812
:104D600030B90D48D0F8F811012008F0A3FB0AE093
:104D7000002406E0084A601CD2F8F81108F09AFBFB
:104D8000641C042CF6DB324629463846FB6C9847F7
:104D90000020BDE8F0870000E4090020014901601F
:104DA00070470000494D000810B5042005F0D4FC00
:104DB00004460CB9002010BD2046FFF7EFFF204647
:104DC000F9E700002DE9F0470646884691469A46E5
:104DD00000F022FD0446002500272046E1688847B0
:104DE00000BF13E00D4800EB051132462046236A50
:104DF0009847093038B9781C07B2032F06DD681CC4
:104E000005B2002702E0681C05B20027042DE9DB8B
:104E10002046216988470020BDE8F087980B0020D4
:104E20000149016070470000C54D000810B504201D
:104E300005F092FC04460CB9002010BD2046FFF797
:104E4000EFFF2046F9E72DE9F04105460C461746ED
:104E500098460026A1B2284607F010FF064606F144
:104E6000080018B9642005F005FE02E00A2005F0EC
:104E700001FE0020BDE8F08101490160704700009B
:104E8000474E000810B5042005F066FC04460CB936
:104E9000002010BD2046FFF7EFFF2046F9E7000095
:104EA00008B50320ADF8000010208DF803000320A2
:104EB0008DF8020069462F4800F072F82E4880886D
:104EC000ADF8000010208DF8030003208DF80200DB
:104ED00029490868694600F063F828488088ADF8D9
:104EE000000010208DF8030003208DF802002349F4
:104EF0000868694600F054F821488088ADF8000041
:104F000010208DF8030003208DF802001C4908686A
:104F1000694600F045F81A4A9188106800F0CBF80D
:104F2000184880881849898808431849898808439F
:104F3000ADF8000010208DF8030002208DF802006B
:104F400069460C4800F02CF811488088114989887E
:104F50000843114989880843ADF8000010208DF8F6
:104F6000030002208DF8020069460C4800F018F892
:104F700008BD0000000C01408800002090000020C7
:104F800078000020200100202801002030010020AE
:104F9000380100204001002048010020001001409D
:104FA0002DE9F041024600250026002000230024C0
:104FB000002791F803C00CF00F0591F803C00CF026
:104FC000100CBCF1000F03D091F802C04CEA0505AB
:104FD00091F800C0BCF1000F31D0146800202BE024
:104FE0004FF0010C0CFA00F3B1F800C00CEA030614
:104FF0009E4220D183004FF00F0C0CFA03F7BC4304
:1050000005FA03FC4CEA040491F803C0BCF1280F34
:1050100006D14FF0010C0CFA00FCC2F814C00AE0F3
:1050200091F803C0BCF1480F05D14FF0010C0CFA08
:1050300000FCC2F810C0401C0828D1D31460B1F89D
:1050400000C0BCF1FF0F34DD546800202EE000F1F9
:10505000080C4FF0010808FA0CF3B1F800C00CEA94
:1050600003069E4221D183004FF00F0C0CFA03F788
:10507000BC4305FA03FC4CEA040491F803C0BCF1FC
:10508000280F05D100F1080C08FA0CF8C2F81480BA
:1050900091F803C0BCF1480F07D100F1080C4FF0A4
:1050A000010808FA0CF8C2F81080401C0828CED37A
:1050B0005460BDE8F08141617047016170470000B4
:1050C00010B50548006818B9FEF79EFE0249086051
:1050D0000148006810BD00006800002010B50548B8
:1050E000006818B9FFF76CFD0249086001480068C4
:1050F00010BD00006000002010B50548006818B918
:10510000FFF752FE024908600148006810BD000028
:105110007000002010B50548006818B9FFF786FE3A
:10512000024908600148006810BD000074000020BA
:1051300010B50548006818B9FFF7A4FE02490860D9
:105140000148006810BD00006C00002010B5054843
:10515000006818B900F092FE024908600148006832
:1051600010BD0000640000202DE9FC4705460F46F5
:1051700000F052FB06460024A0463046B16F884737
:105180000446002C0EDA36A12868FBF7F3F828460F
:105190002A6929689047052138463A6990470020D6
:1051A000BDE8FC8735480078002852D03046F168C9
:1051B000884749E03046716F88470446002C3DDB44
:1051C0002F4800EB84002E49103951F82410CDE906
:1051D00000102A49643101EB8413224629A1286872
:1051E00002F0CAFB28462A692968904724481038EB
:1051F00050F8240000902148643000EB84132048CC
:1052000000EB840221463046D6F840C0E04788B91A
:105210001B481030FBF799F881464B46184A10326C
:1052200021463046D6F848C0E0471DA128462A69E5
:10523000904703E01DA128462A69904708F101081C
:10524000B8F1040F00DD00E0B4E700BF304631697B
:105250008847022138463A6990470020A0E70000BD
:105260004E6F6E6520636F6E6E6E6563742C207278
:1052700065636F6E6E6563742E2E2E00E409002048
:10528000580B0020636E6E6E656374204443203AB1
:1052900025642C25732C25642C2573202E2E2E009E
:1052A000207375636365656420210A002066616967
:1052B0006C656420210A000000B50246104602F029
:1052C00041FB0148906000BD6951000810B51420F1
:1052D00005F042FA04460CB9002010BD2046FFF745
:1052E000EBFF2046F9E700002DE9FC4705460F4695
:1052F00000F092FA064600244FF00109A04646A1AC
:1053000028462A6990473046F168884700F056FBE6
:1053100073E0474800EB84004549103951F82410E8
:10532000CDE90010434901EB8413224642A12868CD
:1053300002F022FB28462A69296890473C48103829
:1053400050F8240000903B4800EB8413384800EBF1
:10535000840221463046D6F840C0E0478046B8F186
:10536000000F35D132E032481030FAF7EEFF8246B6
:1053700053462F4A103221463046D6F848C0E047FF
:105380008046B8F1000F19D132A128462A6990470A
:1053900028486438007848B926486438D0F8F811AD
:1053A000012008F087F84FF0000906E0214A643A2E
:1053B000601CD2F8F81108F07DF808E008F104004C
:1053C00020B927A128462A69904700E0CBE70AE0E8
:1053D00008F10F0038B94FF4FA6005F04BFB0021DB
:1053E00038463A699047601C04B24FF4FA6005F001
:1053F00041FB042C01DB0024A146B9F1000F88D148
:1054000000F0E2FA304631698847012138467A696E
:1054100090470020BDE8FC876770727320636E6E52
:10542000656374207374617465200D0A00000000C8
:10543000580B0020480A0020636E6E6E656374206E
:105440004443203A25642C25732C25642C25732095
:105450002E2E2E007375636365656420210A00009B
:1054600063616E206E6F742073656E642064617476
:105470006120210A0000000000B50246104602F03B
:1054800061FA0148906000BDE952000810B514208F
:1054900005F062F904460CB9002010BD2046FFF764
:1054A000EBFF2046F9E700002DE9FE4F04460D46CC
:1054B00000F0B2F90646A04600200290002781467F
:1054C0008246019040213748FAF716FF0521284609
:1054D0006A6990473448007838B133480078401EF4
:1054E000314908700020BDE8FE8F30A120462269B6
:1054F0009047FF202C4908703046F16888474AE001
:10550000B4F90400029002A8009023681A462549C5
:105510003046D6F824C0E0478146B9F1000F2DDBB4
:10552000002021490870002720E0264800EB0711E1
:105530001C4802F0EBFEB8B901972068D8F81410A7
:1055400001AB214AD1F800C00299E0478246BAF186
:10555000000F08D02068D8F8181000231A46D1F898
:1055600000C00299E04703E0781C07B2042FDCDB9F
:1055700000BF49463046F26A90470CE00AF1040049
:1055800020B9002128462A69904703E001212846D6
:105590002A69904700E0B3E700BF30463169884789
:1055A0000020A0E7300C00205C00002067707273C0
:1055B000206465616C20736D732073746174652061
:1055C0000D0A0000980B00200168000800B5024693
:1055D000104602F0B7F90148906000BDA9540008D8
:1055E00010B51C2005F0B8F804460CB9002010BD19
:1055F0002046FFF7EBFF2046F9E700002DE9F04FCA
:1056000085B004460E4600F007F9054627460020FF
:10561000049080468246029083460190B9E0BAF138
:10562000100F00DDB6E00AF101000FFA80FAB4F9BC
:1056300004000490226804AB03A92846D5F860C092
:10564000E0470290029800B1A4E02846E968884744
:10565000226804ABD5F86CC028460399E047029055
:10566000284629698847029800282FDB4E4AD2F83D
:10567000F811029A501C07F01DFF4CA12068FAF7A0
:1056800052FE8146B9F1000F0BD04AA12046226993
:1056900090476A6C2846029990473046F1698847DE
:1056A0007EE02068796902AB474AD1F800C00499CE
:1056B000E0472068F96900231A46D1F800C0049930
:1056C000E0476A6E28460399904762E0B4F9040007
:1056D000049040213D48FAF70FFE2846E9688847C4
:1056E0003A480090226804ABD5F870C02846039968
:1056F000E0478346284629698847BBF1000F2EDD25
:105700004FF000081FE0324800EB08112F4802F06C
:10571000FDFDA0B9CDF804802068B96901AB2D4A20
:10572000D1F800C00499E0470290029838B120688F
:10573000F96900231A46D1F800C00499E04708F13E
:1057400001000FFA80F8B8F1040FDCDB5946284657
:10575000EA6A90476A6E28460399904719E0AA6E54
:105760002846039990470290029800280CDB206895
:1057700019A1029A02F000F9204622692168904797
:105780004FF47A7005F076F96A6E284603999047CF
:1057900000BF44E700BF022130467269904700BF56
:1057A000002005B0BDE8F08FE4090020534D534DB3
:1057B0004F44450073776974636820746F20534DBC
:1057C000534D4F44450D0A00D9700008300C00209D
:1057D000980B00200168000874637020636C6F737D
:1057E00065203A202564200000B50246104602F0EC
:1057F000A9F80148906000BDFD55000810B52820AB
:1058000004F0AAFF04460CB9002010BD2046FFF7A3
:10581000EBFF2046F9E7000010B50548006818B90D
:1058200004F076FC024908600148006810BD0000E1
:10583000380000202DE9F04780460E46FFF7ECFFC8
:105840000546002400BF1AE0601C00F03DFFA8B927
:105850000F4A601CD2F8F81107F02CFE2846E968C0
:1058600088470C48FAF771FD81464B46094A2146A4
:105870002846AF6CB847284629698847641C042C21
:10588000E2DB03213046726990470020BDE8F087D3
:10589000E4090020E00B002000B50246104602F0AB
:1058A00051F80148906000BD3558000810B514202B
:1058B00004F052FF04460CB9002010BD2046FFF74B
:1058C000EBFF2046F9E710B5044601F0D9F810BD0A
:1058D00070B505460E46FFF79FFF044611A1284606
:1058E0002A6990472046E16888472046E169884751
:1058F00040B912A1286802F03FF8002130467269D1
:1059000090470AE014A128462A6990472046616919
:1059100088470021304632699047204621698847F0
:10592000002070BD677072732073656C6674657358
:1059300074207374617465200D0A000064657465D9
:10594000637465642073696D207375636365656452
:1059500021202E2E2E00000064657465637465643A
:105960002073696D206661696C65642C726573745F
:1059700061727420677072730D0A000000B50246F0
:10598000104601F0DFFF0148906000BDD1580008CB
:1059900010B5142004F0E0FE04460CB9002010BD40
:1059A0002046FFF7EBFF2046F9E710B5FFF734FF7D
:1059B000044600212046626C904710BD002001493A
:1059C00008707047250000200020014908707047CA
:1059D000250000200146012903D011B16FF001001C
:1059E0007047024A11700020FAE7000028000020EA
:1059F000014621B1012902D06FF001007047024A2F
:105A000011700020FAE700002900002010B545F2CF
:105A1000555000F029F8062000F01AF84FF4EA700B
:105A200000F01CF800F00CF800F002F810BD0000C7
:105A30004CF6CC400149086070470000003000403F
:105A40004AF6AA2001490860704700000030004073
:105A500001494860704700000030004001498860FB
:105A600070470000003000400149086070470000A6
:105A7000003000400EB54FF0804001F0CDF942F209
:105A80001070ADF804004720ADF800000020ADF81C
:105A90000600ADF8020069464FF0804001F0CAFAF6
:105AA0000121880701F0A6F901221146900701F0B3
:105AB000B8FA0121880701F0A3F90EBD70B5FEF711
:105AC00029FA0546214A5078296888472049086004
:105AD0000846006808B9002070BD1EA005F084FBD0
