:020000040800F2
:10000000B048002041020008490200084B020008E5
:100010004D0200084F0200085102000800000000D5
:10002000000000000000000000000000790100084E
:100030005502000800000000F10100082D02000830
:100040005B0200085B0200085B0200085B0200081C
:100050005B0200085B0200085B0200085B0200080C
:100060005B0200085B0200085B020008353F0008E5
:10007000753F00085B0200085B0200085B02000895
:10008000B13F0008354000085B0200085B02000831
:100090005B0200085B0200085B0200085B020008CC
:1000A0005B0200085B0200085B0200085B020008BC
:1000B000457D00085B0200085B0200085B02000847
:1000C0005B0200085B0200085B0200081979000867
:1000D0005B0200085B02000815810008FD81000832
:1000E0005B0200085B0200085B020008DFF81CD01E
:1000F00000F0E6FD0BF0EAFB002103480BF096FC54
:100100000BF0F6FBFEE7000040F80008B0480020C6
:1001100080F309887047EFF309807047684680F3E1
:10012000098804480078C00714BF0220032080F328
:100130001488704700F80008DFF818C0EFF3058353
:100140001B0618BF6047EFF31483DB0708BF604747
:1001500000DF7047CDC60008DFF818C0EFF3058355
:100160001B0618BF6047EFF31483DB0708BF604727
:1001700000DF7047B1C80008EFF30980816911F80A
:10018000021CF1B990E80F10E047EFF3098C8CE8FE
:100190000700144B93E8060091420FD039B12CE9C7
:1001A000F00FC1F828C00CB40CF074FF0CBC1A603E
:1001B000D2F828C0BCE8F00F8CF309886FF0020E6B
:1001C000704710B5084A1268914209D8074C54F894
:1001D000214090E80F10A047EFF3098C8CE80F0046
:1001E00010BD000068020020580D0008580D0008DE
:1001F0000CF0E6FD0C4B93E80600914210D0EFF3B3
:10020000098C2CE9F00FC1F828C00CB40CF042FFA7
:100210000CBC1A60D2F828C0BCE8F00F8CF3098837
:100220006FF0020E70470000680200200CF0FAFF29
:10023000E0E700000BF074FC0CF0F4FFDAE70000DC
:100240000648804706480047FEE7FEE7FEE7FEE770
:10025000FEE7FEE7FEE7FEE7FEE7FEE7D97C0008E3
:10026000ED0000082DE9F05F0546002092469B4610
:1002700088460646814640241BE0284641464746BC
:10028000224600F0DAFB53465A46C01A914110D379
:1002900011461846224600F0C1FB2D1A67EB0108F3
:1002A0004F4622460120002100F0B8FB17EB000961
:1002B0004E41201EA4F10104DFDC484631462A46A7
:1002C0004346BDE8F09F40EA01039B0703D009E0E5
:1002D00008C9121F08C0042AFAD203E011F8013B32
:1002E00000F8013B521EF9D27047D2B201E000F88B
:1002F000012B491EFBD270470022F6E710B51346CA
:100300000A4604461946FFF7F0FF204610BD421E7C
:1003100012F8013F002BFBD111F8013B02F8013B21
:10032000002BF9D1704730B505462A460B4612F826
:10033000010B13F8014B08B1A042F8D01CB1002802
:1003400002D06D1CF1E7284630BD421C10F8011B9D
:100350000029FBD1801A704710B5002200E0521C22
:10036000835C8C5CA34201D1002BF8D1D8B2E1B2FE
:10037000401A10BD034611F8012B00F8012B002A8A
:10038000F9D11846704730B505460020034600E015
:100390005B1C934205D2EC5CC85C201A01D1002C96
:1003A000F6D130BD30B50546002008E00A4602E02F
:1003B000A34207D0521C1378002BF9D1401C2C5CAF
:1003C000002CF3D130BD2DE9F05F93460F468046F7
:1003D0000446002608F000FBD0F80090824614F88E
:1003E000015B2DB100F04CFB0068405DC007F6D109
:1003F0002B2D02D02D2D1AD0641E0021CAF800101A
:100400005A463946204600F03FFB014627B138687E
:10041000A04201D1C7F80080DAF80000022809D014
:10042000CAF80090700505D54842BDE8F09F46F433
:100430008066E2E70846F8E770B5064608F0CCFAB1
:10044000046805460A220021304600F06CFB2C604F
:1004500070BDF0B480EA0102D40F4200B2EB410F4C
:1004600002D20246084611464A0042D0C30DDDB210
:10047000C1F3C752AD1A202D35DAC1F3160141F48C
:10048000000204B15242C5F1200602FA06F12A41E7
:100490001044B3EBD05F23D0C4B1012DA0EBC35007
:1004A00009DCF0BC4FF0004202EAC352DBB200F5B7
:1004B000000000F079BB400000F1807000EBC350F9
:1004C000A0F1807040EAD170490009E0490841EA92
:1004D000C071A0EBC35000F50000400800EBC35012
:1004E000F0BC00F058BB6142012202EB4101001B4D
:1004F000F6E7F0BC704781F00041AAE780F00040C9
:10050000A7E780EA010210B502F00043400022D0C4
:100510004A001FD0010E01EB1261C0F35600C2F376
:10052000560240F4000042F40002A0FB0220000446
:100530007F39140400D0401C50EA124001D440001E
:10054000491EC2B20C0604EBD010401C4008802AA1
:1005500002D003E0002010BD20F00100002900DAE5
:100560000020184310BD30B480EA010202F00045BB
:1005700030F0004221F0004013D090B1C30DD40DF3
:10058000C2F31601C0F31600E41A41F4000140F46E
:1005900000027D34914201D3641C00E04900002C2C
:1005A00002DA30BC002070474FF400000023914273
:1005B00001D3891A034340084FEA4101F7D151B1F1
:1005C000914202D14FF0004105E002D24FF001010B
:1005D00001E06FF0010103EBC450284430BC00F08F
:1005E000DABA2DE9FE4F804681EA0300C00F0C46BF
:1005F000009021F0004123F00045B8EB0200A94132
:1006000005D24046214690461C460B46024623F042
:100610000040104347D0270DC7F30A00C3F30A5127
:100620000290401A019040286BDAC3F3130040F4A3
:10063000801B0098924620B10023D2EB030A63EBA3
:100640000B0B01985946C0F14002504600F0E6F904
:1006500006460D4650465946019A00F0FEF910EB49
:1006600008006141002487EA115284EAE7731A43C3
:1006700040D0009A62B3019A012A4FEA075215DC72
:10068000001B61EB02014FF0004202EA0752CDE984
:100690000042001C41F5801132462B4600F0C1FAA1
:1006A00003B0BDE8F08F40462146F9E7001B61EB3F
:1006B0000201001C41F5801300185B412018A2F5CF
:1006C000001747EB030140EAD570B6196D4111E000
:1006D0006D084FEA360645EAC0754FEA0752001B1F
:1006E00061EB0201001C41F5801149084FEA30001E
:1006F0000019514132462B4603B0BDE8F04F00F0DF
:1007000081BA0098012240000023D0EB020263EB83
:10071000E073009821464FEAE074B8EB000061EB0B
:100720000401E9E783F000435BE781F0004158E70B
:100730002DE9FE4F81EA030404F0004421F000415A
:1007400000944FF0000B23F0004350EA01045ED008
:1007500052EA03045BD0C3F30A54C1F30A552C4494
:10076000A4F2F3340194A0FB0254C1F3130141F449
:100770008011C3F3130343F4801301FB024400FB15
:10078000034E840A970A44EA815447EA8357A4FB3C
:10079000076802958D0A05FB07854FEA932C04FB39
:1007A0000C542705029D4FEA065847EA1637B5EB69
:1007B00008056EEB070C870E920E47EA811742EA96
:1007C0008312A7FB0201B6EB0B0164EB00042B0DB7
:1007D00043EA0C335E1844EB1C50DA465146E7FB03
:1007E0000201C5F313044FEA0B3343EA14534FEAF3
:1007F0000432019C43EA0603A4F10C040294009C19
:10080000CDE900B400F00DFA03B0BDE8F08F002090
:100810000146F9E72DE9F04D81EA030404F0004BAD
:1008200021F0004514464FF0000A23F0004150EA41
:10083000050220D054EA01021DD0C5F30A57024632
:10084000C5F31303C1F31300C1F30A5640F4801536
:1008500043F48013A7EB0608101BD64608F2FD38B8
:1008600073EB050002D308F1010801E092185B4127
:10087000B8F1000F03DA00200146BDE8F08D00203A
:100880004FF48011064684460EE0171B73EB0507F4
:1008900005D3121B63EB050306434CEA010C490820
:1008A0004FEA300092185B4150EA0107EDD152EA5D
:1008B000030012D082EA040083EA0501084305D050
:1008C000101BAB4106D20122002306E000224FF0AC
:1008D000004302E06FF0010253101AEB06004CEBEC
:1008E000085110EB0A0041EB0B01BDE8F04D00F0A0
:1008F00089B9C10F80EAE0700844CA079623002135
:1009000000F052B996230022114600F04DB920F0B4
:100910000040C10DC0F3160040F400007F2901DA49
:1009200000207047962903DCC1F19601C84070474A
:1009300096398840704700F0004230F000400AD0FD
:10094000C10D01F56071C0F3160042EA0151C20801
:1009500040071143704700200146704730B5041E20
:1009600071F1000404DB4FF00044404264EB0101EC
:10097000141E73F1000405DB1C464FF00043524285
:1009800063EB04038B4208BF824230BD30B5041EC6
:1009900071F1000404DB4FF00044404264EB0101BC
:1009A000141E73F1000405DB1C464FF00043524255
:1009B00063EB0403994208BF904230BD01F000434D
:1009C00030B421F0004150EA010206D00A0DA2F530
:1009D0006072C1F31301002A02DC30BC00207047B2
:1009E000440F44EAC104C100E01830BC00EBC2501F
:1009F00000F0D1B8002801DBC0F10040002901DB84
:100A0000C1F1004181427047002801DBC0F1004084
:100A1000002901DBC1F1004188427047202A04DB34
:100A2000203A00FA02F1002070479140C2F1200301
:100A300020FA03F3194390407047202A04DB203A40
:100A400021FA02F00021704721FA02F3D040C2F1EE
:100A500020029140084319467047202A06DBCB1735
:100A6000203A41FA02F043EAE07306E041FA02F369
:100A7000D040C2F12002914008431946704700005F
:100A800000487047D4F800082DE9F05F82460078EE
:100A9000002715468B460AF10104B946302801D0DB
:100AA0009DB113E014F8010B0127782803D05828D2
:100AB00001D045B10AE00DB1102D07D10027102556
:100AC00014F8010B02E0082500E00A250026B046D4
:100AD0000EE005FB080005FB06F1012701EB1046BF
:100AE0001FFA80F8B6F5803F00D3B94614F8010B21
:100AF000294600F0F7F80028EBDABBF1000F05D02B
:100B00000FB1641E00E05446CBF80040B9F1000F6D
:100B100006D007F061FF02210160C81EBDE8F09F0A
:100B200048EA0640FAE72DE9F04791460F4680462D
:100B30000446002614F8015B2DB1FFF7A1FF006801
:100B4000405DC007F6D12B2D02D02D2D18D0641E8C
:100B50004A4639462046FFF797FF27B13968A14238
:100B600001D1C7F8008071054FF002040BD5404257
:100B7000002803DD07F030FF0460A007BDE8F08720
:100B800046F48066E4E70028F8DA07F025FF046001
:100B90006FF00040F2E70029A8BF7047401C4900F1
:100BA00008BF20F00100704710B4B0FA80FC00FAD2
:100BB0000CF050EA010404BF10BC704749B1CCF1FD
:100BC000200421FA04F411FA0CF118BF0121214389
:100BD0000843A3EB0C01CB1D4FEA00614FEA102044
:100BE00042BF002010BC704700EBC35010440029E6
:100BF000A4BF10BC7047401C490008BF20F0010092
:100C000010BC704710B5141E73F1000408DA401CC4
:100C100041F1000192185B411A4301D120F001001B
:100C200010BD2DE9F04D92469B4611B1B1FA81F20B
:100C300002E0B0FA80F220329046FFF7EFFE044661
:100C40000F4640EA0A0041EA0B0153465A46084360
:100C500013D0114653EA010019D0C8F140025046A2
:100C6000FFF7EBFE05460E46504659464246FFF753
:100C7000D5FE084305D0012004E020463946BDE8F2
:100C8000F08D0020054346EAE0762C4337430A986E
:100C90006305E40AA0EB08000022FD0A44EA475479
:100CA0000A3002D500200146E9E701051019694123
:100CB000DDE9084500196941BDE8F04DA2E70000F3
:100CC000064C074D06E0E06840F0010394E8070099
:100CD00098471034AC42F6D3FFF70CFA98F90008A5
:100CE000B8F900083A2800D2303820F02002412A12
:100CF00001D3A2F13700884201D34FF0FF30704793
:100D000070B58C1810F8015B15F0070301D110F8CD
:100D1000013B2A1106D110F8012B03E010F8016BFA
:100D200001F8016B5B1EF9D12B0705D40023521E7D
:100D30000DD401F8013BFAE710F8013BCB1A921CE5
:100D400003E013F8015B01F8015B521EF9D5A142E3
:100D5000D8D3002070BD00000000000010B504468C
:100D60001348006848B1C4EBC400124A02EBC0004B
:100D7000416820460E4A126890470F48006848B103
:100D8000C4EBC4000B4A02EBC000018920460A4AAA
:100D9000126890470948006848B1C4EBC400054A8E
:100DA00002EBC00081782046044A1268904710BDCB
:100DB000E001002078150020E4010020E801002077
:100DC00010B50121034800F0BAF80121014800F0F4
:100DD00003F810BD0024014021B1826842F00102F5
:100DE000826003E0826822F001028260704721B1D4
:100DF000826842F48072826003E0826822F480722A
:100E000082607047014600208A6802F004020AB13D
:100E1000012000E000207047014600208A6802F0AF
:100E200008020AB1012000E00020704730B50246F8
:100E30000020002350680F4C20400D790C6844EAD4
:100E400005242043506090680B4C2040D1E90254A7
:100E50002C434D7944EA450420439060D06A20F445
:100E600070000C7C641EE4B2234340EA0350D0625D
:100E700030BD0000FFFEF0FFFDF7F1FFF0B50446C6
:100E80000D4600200021092D11DDE068A5F10A06BC
:100E900006EB4607072606FA07F18843A5F10A067E
:100EA00006EB460603FA06F10843E0600CE0206911
:100EB00005EB4507072606FA07F1884305EB4506CB
:100EC00003FA06F108432061072A0FDA606B561E09
:100ED00006EB86071F2606FA07F18843561E06EB27
:100EE000860605FA06F10843606322E00D2A0FDA50
:100EF000206BD61F06EB86071F2606FA07F18843EC
:100F0000D61F06EB860605FA06F10843206310E0BB
:100F1000E06AA2F10D0606EB86071F2606FA07F126
:100F20008843A2F10D0606EB860605FA06F1084392
:100F3000E062F0BD816841F008018160704721B135
:100F4000826842F4A002826003E0826822F4A00278
:100F500082607047816841F0040181607047002120
:100F60000160017141718160C160012101747047AC
:100F700010B50146CAB20B1243EA022010BD0000B0
:100F800070B502460C46FF25FF2309E012F8010B5D
:100F900080EA05010648405C80EA03050548435C99
:100FA0002000A4F10106B4B2F0D143EA052070BDDF
:100FB000D0F50008D0F6000801B592B0129830B113
:100FC00001287DD0022842F0F18601F059BF129825
:100FD000C0EBC000FE4911F83000082871D0092884
:100FE00070D00A2802D00B286DD100E000BF129803
:100FF000C0EBC000F64901EBC000808C0290FFF707
:1010000081FC0390FFF797FC0022F24BCDE904012D
:10101000FFF700FCCDE90601FFF7D0FC0F90129816
:10102000C0EBC001EA4800EBC100B0F92600029015
:10103000FFF75FFC0390FFF77EFC0022E64BCDE953
:101040000401FFF7E7FBCDE90601FFF7B7FC0E90BF
:10105000129800EB4000E14901EB80000089039009
:10106000FFF750FC0590129800EB4000DB4901EBC4
:101070008000C0880390FFF745FC04900599FFF7B6
:101080003AFA0790129800EB4000D44901EB800037
:1010900000890390FFF736FC0590129800EB4000A2
:1010A000CE4931F820000390FFF72CFC04900599FD
:1010B000FFF721FA06900799FFF755FA0D9003E024
:1010C000FDE315E315E3FBE30F990D98FFF719FA1C
:1010D00007900E99FFF7BDF90A900A98FFF72BFCCD
:1010E000BF4AC04BCDE90601FFF738FC01D2002012
:1010F0000A90BD480068FFF71EFC0022BB4BCDE9FB
:101100000601FFF743FC02D20020B749086012989D
:10111000C0EBC000AE4911F830000A280DD1B2482A
:101120000068FFF708FCAE4AAE4BCDE90601FFF7B9
:1011300015FC02D20020AC4908601298C0EBC00038
:10114000A34911F830000B280ED1A7480068FFF71B
:10115000F2FBA34AA34BCDE90601FFF7FFFB03D245
:101160004FF07E50A0490860A1490A98FFF7C9F9DD
:1011700009909F499C480068FFF7C3F90890DDE992
:101180000810FFF7B8F99B490790FFF73DFC02D81C
:1011900095490A980860DDE90801FFF7ACF995491F
:1011A0000790FFF731FC02D88F490A980860DDE903
:1011B0000801FFF7A0F90590FFF7BDFB8E4A8F4BA2
:1011C000CDE90601FFF7CAFB07D800210A98FFF70F
:1011D00011FC02D184490A980860DDE90810FFF784
:1011E0008AF90590FFF7A7FB834A844BCDE90601F6
:1011F000FFF7B4FB07D800210A98FFF7FBFB02D1E9
:1012000079490A98086078480068FFF794FB7C4A9F
:101210007C4BCDE90001FFF78BFACDE904010A9878
:10122000FFF789FB744A784BCDE90001FFF780FA9C
:10123000CDE90201DDE90423FFF7D3F9CDE9060189
:10124000FFF7BCFB0A906B490A98FFF7D3FB0CD25F
:101250000A98FFF770FB624A624BCDE90601FFF77F
:1012600095FB02D260490A980860129800EB400092
:101270005A4931F82010129800EB4000574A02EB0F
:1012800080000089A0F5007081420BDA00200A90EE
:101290005549086001211298C0EBC0004C4A02EB8E
:1012A000C00081701298C0EBC000494911F83000AD
:1012B0000B2814D10A98FFF73EFB0022534BCDE9CF
:1012C0000601FFF74BFB0AD24FF07E500A90012136
:1012D0001298C0EBC0003E4A02EBC00081704C493E
:1012E0000A98FFF740F94B490790FFF70AF9109069
:1012F00048491098FFF788FB01D2464810900A9899
:10130000FFF719FB0022444BCDE90601FFF73EFB36
:1013100001D23F480A901298C0EBC0012C4810F847
:1013200031000A2853D11298C0EBC000284901EBC4
:10133000C000C1891298C0EBC000254A02EBC00072
:10134000008A081A0190FFF7D4FA00210390109840
:10135000FFF7D1F802900399FFF7D3F82D490490D5
:10136000FFF701F906901298C0EBC001184800EB96
:10137000C100008A0490FFF7C5FA05900699FFF7AF
:1013800068F80790FFF7C3FA81B21298C0EBC0006B
:101390000F4A02EBC00001811299C1EBC10102EBBF
:1013A000C1010A9848601298C0EBC000114601EBD9
:1013B000C00001891298C0EBC00002EBC000408A57
:1013C00081422EDB02211298C0EBC00026E0A0E093
:1013D0007815002000408F40006AF8402016002059
:1013E000FCA9F1D24D62403FC00100200000244022
:1013F00000007A44000020419A9999999999C93F2F
:10140000CDCCCCCCCCCCEC3F9999B93F0000F03F8F
:101410000000A0400060EA460000144002EBC0005B
:1014200081701298C0EBC000FE4901EBC000018939
:101430001298C0EBC000FB4A02EBC000C089814299
:1014400006DB04211298C0EBC00002EBC0008170E3
:101450001298C0EBC000F34901EBC000018912985B
:10146000C0EBC000EF4A02EBC000808A814206DC7C
:1014700003211298C0EBC00002EBC00081701298EB
:10148000C0EBC000E74901EBC00001891298C0EB36
:10149000C000E44A02EBC000008A814206DC05215C
:1014A0001298C0EBC00002EBC00081701298C0EB34
:1014B000C000DC4901EBC00001891298C0EBC000FC
:1014C000D84A02EBC000408AA0F28F20814206DA9F
:1014D00000211298C0EBC00002EBC000817012988E
:1014E000C0EBC000CF4901EBC00001891298C0EBEE
:1014F000C000CC4A02EBC000808A00F28F208142FB
:1015000006DD00211298C0EBC00002EBC000817024
:10151000EDE01298C0EBC000C24911F830000B2872
:10152000F6D10A98FFF707FA0022BF4BCDE9060172
:10153000FFF714FA05D24FF07E500A90BB48109086
:1015400008E0BB491098FFF75FFA03D2B848109043
:10155000B8480A901298C0EBC000B24901EBC00035
:10156000C1891298C0EBC000AE4A02EBC000008AED
:10157000081A0190FFF7BDF9AC4903901098FEF7E7
:10158000BAFF02900399FEF7BCFFAB490490FEF747
:10159000EAFF06901298C0EBC001A24800EBC10020
:1015A000008A0490FFF7AEF905900699FEF751FF07
:1015B0000790FFF7ACF981B21298C0EBC000994ACE
:1015C00002EBC00001811299C1EBC10102EBC10124
:1015D0000A9848601298C0EBC000114601EBC000A9
:1015E00001891298C0EBC00002EBC000408A814222
:1015F00006DB02211298C0EBC00002EBC000817034
:101600001298C0EBC000874901EBC0000189129815
:10161000C0EBC000834A02EBC000C089814206DBF8
:1016200004211298C0EBC00002EBC0008170129838
:10163000C0EBC0007B4901EBC00001891298C0EBF0
:10164000C000784A02EBC000808A814206DC032198
:101650001298C0EBC00002EBC00081701298C0EB82
:10166000C000704901EBC00001891298C0EBC000B6
:101670006C4A02EBC000008A814206DC0521129808
:10168000C0EBC00002EBC00081701298C0EBC0003C
:10169000644901EBC00001891298C0EBC000614AA7
:1016A00002EBC000408AA0F28F20814206DA0021BE
:1016B0001298C0EBC00002EBC00081701298C0EB22
:1016C000C000584901EBC00001891298C0EBC0006E
:1016D000544A02EBC000808A00F28F20814206DD6E
:1016E00000211298C0EBC00002EBC0008170FDE346
:1016F00000BF1298C0EBC0004A4901EBC000008D4A
:101700000690FFF7FFF84D490790FEF72CFF0F906A
:101710001298C0EBC000434901EBC000B0F92A00A9
:101720000790FFF7E6F80E90129800EB400044494E
:1017300001EB800000890390FFF7E4F80590129810
:1017400000EB40003E4901EB8000C0880390FFF7AA
:10175000D9F804900599FEF7CEFE0790129800EB99
:101760004000374901EB800000890390FFF7CAF879
:101770000590129800EB4000314931F820000390A9
:10178000FFF7C0F804900599FEF7B5FE069007999B
:10179000FEF7E9FE0D90129800EB4000284901EB9E
:1017A000800000890390FFF7ADF80590129800EBD8
:1017B0004000234901EB8000C0880390FFF7A2F8A6
:1017C00004900599FEF797FE0790129800EB4000F1
:1017D0001B4901EB800000890390FFF793F8059007
:1017E000129800EB4000164901EB800040880390FE
:1017F000FFF788F804900599FEF77DFE069007999B
:10180000FEF7B1FE0C901298C0EBC000054901EB49
:10181000C000B0F926000490FFF76BF80949059065
:1018200012E00000781500200000F03F0080BB456A
:101830000060EA460000A0400080BB460000C842AD
:10184000201600200050C347FEF78DFE0790129827
:10185000C0EBC000FE4901EBC000808C0390FFF795
:1018600051F8FC490490FEF77EFE05900D99FEF7B5
:1018700048FE06900799FEF7ECFD0B901298C0EB1E
:10188000C000F34901EBC000B0F926000490FFF757
:1018900030F8F1490590FEF766FE07901298C0EB0C
:1018A000C000EB4901EBC000808C0390FFF72AF8E1
:1018B000E8490490FEF757FE05900C9901E02EE3ED
:1018C00029E3FEF71EFE06900799FEF7C2FD0A9077
:1018D000DDE90A10FEF70FFE0690E0480168069861
:1018E000FEF741FEDB490790FEF70BFEDC4908607E
:1018F000DDE90A10FEF7FFFD06900F99FEF733FEB3
:10190000D4490790FEF7FDFD0A900A98FFF713F8F7
:10191000D44AD54BCDE90601FFF720F801D20020CB
:101920000A901298C0EBC000C94911F8300008288D
:101930000DD1CE480068FEF7FEFFCA4ACA4BCDE97A
:101940000601FFF70BF802D20020C8490860C14920
:101950000A98FEF7D6FD0990BE49C4480068FEF714
:10196000D0FD0890DDE90810FEF7C5FDC0490790DD
:10197000FFF74AF802D8BD490A980860DDE9080176
:10198000FEF7B9FDBA490790FFF73EF802D8B7490C
:101990000A980860DDE90801FEF7ADFD0590FEF745
:1019A000CAFFB44AB44BCDE90601FEF7D7FF07D80A
:1019B00000210A98FFF71EF802D1AC490A98086086
:1019C000DDE90810FEF797FD0590FEF7B4FFA94A80
:1019D000A94BCDE90601FEF7C1FF07D800210A98FF
:1019E000FFF708F802D1A1490A9808609F480068EB
:1019F000FEF7A1FFA14AA24BCDE90001FEF798FE38
:101A0000CDE904010A98FEF796FF9A4A9D4BCDE96D
:101A10000001FEF78DFECDE90201DDE90423FEF7AA
:101A2000E0FDCDE90601FEF7C9FF0A9096490A9844
:101A3000FEF7E0FF0CD20A98FEF77DFF894A8A4B39
:101A4000CDE90601FEF7A2FF02D288490A98086094
:101A50001298C0EBC0007E4911F83000092818D157
:101A600082480068FEF767FF884A894BCDE9060186
:101A7000FEF774FF0DD24FF081400A9000207B49A1
:101A8000086001211298C0EBC000714A02EBC0004F
:101A9000817080490A98FEF766FD7F490790FEF73E
:101AA00030FD10907C491098FEF7AEFF01D27A48C5
:101AB00010900A98FEF73FFF0022784BCDE906010F
:101AC000FEF764FF01D273480A901298C0EBC00081
:101AD0005F4911F8300008287ED171491098FEF74F
:101AE00093FF03D26E4810906E480A900A98FEF752
:101AF00022FF00226C4BCDE90601FEF747FF03D21F
:101B000068480A90664810901298C0EBC00050498F
:101B100001EBC000C1891298C0EBC0004C4A02EB37
:101B2000C000008A081A0190FEF7E3FE002103902E
:101B30001098FEF7E0FC02900399FEF7E2FC58498A
:101B40000490FEF710FD06901298C0EBC0004049CB
:101B500001EBC000008A0490FEF7D4FE05900699C0
:101B6000FEF777FC0790FEF7D2FE81B21298C0EB29
:101B7000C000374A02EBC00001811299C1EBC101DC
:101B800002EBC1010A9848601298C0EBC0001146F0
:101B900001EBC00001891298C0EBC00002EBC0004D
:101BA000408A814206DB02211298C0EBC00002EBA2
:101BB000C00081701298C0EBC000254901EBC00045
:101BC00001891298C0EBC000214A02EBC000C08915
:101BD000814208DB042100E095E01298C0EBC000D0
:101BE00002EBC00081701298C0EBC001184800EBF6
:101BF000C10001891298C0EBC000154A02EBC00079
:101C0000808A814206DC03211298C0EBC00002EBFF
:101C1000C00081701298C0EBC0000D4901EBC000FC
:101C200001891298C0EBC000094A02EBC000008A8B
:101C3000814206DC05211298C0EBC00002EBC00017
:101C400081701298C0EBC000014901EBC0002DE08B
:101C50007815002000007A440050C347D0010020CE
:101C6000CC010020FCA9F1D24D62403FC001002010
:101C7000000048429A9999999999C93FCDCCCCCC0A
:101C8000CCCCEC3F9999B93F0000F041AE47E17AE6
:101C900014AE0F400000A0410060EA46000034404E
:101CA00000606A460000204100002440018912982B
:101CB000C0EBC000FE4A02EBC000408AA0F28F20B9
:101CC000814206DA00211298C0EBC00002EBC0008E
:101CD00081701298C0EBC000F54901EBC00001898A
:101CE0001298C0EBC000F24A02EBC000808A00F2FA
:101CF0008F20814206DD00211298C0EBC00002EB6C
:101D0000C000817006E11298C0EBC000E84911F8EC
:101D100030000928F6D1E7491098FEF76BFE05D28E
:101D2000E44810904FF081400A9008E0E249109892
:101D3000FEF76AFE03D2E0481090E0480A900A9845
:101D4000FEF7F9FD0022DE4BCDE90601FEF706FEA7
:101D500005D24FF081400A90D64810900BE00A98C7
:101D6000FEF7E9FD0022D74BCDE90601FEF70EFE96
:101D700001D2D14810901298C0EBC000CC4901EBC1
:101D8000C000C1891298C0EBC000C94A02EBC00074
:101D9000008A081A0190FEF7ACFDC649039010981E
:101DA000FEF7A9FB02900399FEF7ABFBC64904902E
:101DB000FEF7D9FB06901298C0EBC000BC4901EBBE
:101DC000C000008A0490FEF79DFD05900699FEF77D
:101DD00040FB0790FEF79BFD81B21298C0EBC0005C
:101DE000B34A02EBC00001811299C1EBC10102EBC1
:101DF000C1010A9848601298C0EBC000114601EB7F
:101E0000C00001891298C0EBC00002EBC000408AFC
:101E1000814206DB02211298C0EBC00002EBC00039
:101E200081701298C0EBC000A14901EBC00001898C
:101E30001298C0EBC0009E4A02EBC000C0898142EC
:101E400006DB04211298C0EBC00002EBC0008170D9
:101E50001298C0EBC000964901EBC00001891298AE
:101E6000C0EBC000924A02EBC000808A814206DCCF
:101E700003211298C0EBC00002EBC00081701298E1
:101E8000C0EBC0008A4901EBC00001891298C0EB89
:101E9000C000874A02EBC000008A814206DC0521AF
:101EA0001298C0EBC00002EBC00081701298C0EB2A
:101EB000C0007F4901EBC00001891298C0EBC0004F
:101EC0007B4A02EBC000408AA0F28F20814206DAF2
:101ED00000211298C0EBC00002EBC0008170129884
:101EE000C0EBC000724901EBC00000E014E00189C2
:101EF0001298C0EBC0006E4A02EBC000808A00F26C
:101F00008F20814206DD00211298C0EBC00002EB59
:101F1000C000817000E000BF00BF01F048BF129810
:101F2000C0EBC000624911F8300008287ED00928B3
:101F30007DD00A2802D00B287AD100E000BF129889
:101F4000C0EBC0005A4901EBC000808C0690FEF740
:101F5000D9FC5E490790FEF706FB0F901298C0EB84
:101F6000C000534901EBC000B0F926000690FEF70F
:101F7000C0FC57490790FEF7F6FA0E90129800EB56
:101F80004001544800EB810000890390FEF7BAFC41
:101F90000590129800EB40004E4901EB8000C0888C
:101FA0000390FEF7AFFC04900599FEF7A4FA0790A2
:101FB000129800EB4000474901EB80000089039034
:101FC000FEF7A0FC0590129800EB4000414931F863
:101FD00020000390FEF796FC04900599FEF78BFA1B
:101FE00006900799FEF7BFFA0D900F990D98FEF72E
:101FF00088FA07900E99FEF72CFA0A900A98FEF7D5
:102000009AFC354A354BCDE90601FEF7A7FC01D213
:1020100000200A9032480068FEF78DFC0022314B08
:10202000CDE90601FEF7B2FC06D202E010E310E3B0
:10203000FEE300202A4908601298C0EBC0011C484A
:1020400010F831000A280DD125480068FEF773FC0E
:10205000214A224BCDE90601FEF780FC02D2002086
:102060001F4908601298C0EBC000114911F83000F8
:102070000B280ED11A480068FEF75DFC164A174B74
:10208000CDE90601FEF76AFC03D24FF07E501449F9
:1020900008600E490A98FEF734FA09900B49104877
:1020A0000068FEF72EFA0890DDE908101CE0000039
:1020B000781500200080BB450060EA460000A04182
:1020C00000001040000034400080BB4600007A440D
:1020D0000050C34720160020FCA9F1D24D62403FBA
:1020E000C401002000002440FEF705FAFE490790D5
:1020F000FEF78AFC02D8FD490A980860DDE908016C
:10210000FEF7F9F9F8490790FEF77EFC02D8F74987
:102110000A980860DDE90801FEF7EDF90590FEF781
:102120000AFCF34AF34BCDE90601FEF717FC07D88A
:1021300000210A98FEF75EFC02D1EC490A9808607B
:10214000DDE90810FEF7D7F90590FEF7F4FBE84A41
:10215000E84BCDE90601FEF701FC07D800210A98FB
:10216000FEF748FC02D1E1490A980860DF480068A0
:10217000FEF7E1FBE04AE14BCDE90001FEF7D8FABA
:10218000CDE904010A98FEF7D6FBD94ADC4BCDE92C
:102190000001FEF7CDFACDE90201DDE90423FEF7E7
:1021A00020FACDE90601FEF709FC0A90CE490A980B
:1021B000FEF720FC0CD20A98FEF7BDFBD14AD24BA9
:1021C000CDE90601FEF7E2FB02D2C8490A98086091
:1021D000129800EB4000CD4931F82010129800EB26
:1021E0004000CA4A02EB80000089A0F500708142DD
:1021F0000BDA00200A90BD49086001211298C0EB5B
:10220000C000C34A02EBC00081701298C0EBC0004E
:10221000BF4911F830000B2814D10A98FEF78BFB48
:102220000022BC4BCDE90601FEF798FB0AD24FF025
:102230007E500A9001211298C0EBC000B44A02EB14
:10224000C0008170B4490A98FEF78DF9B349079030
:10225000FEF757F91090B1491098FEF7D5FB01D25F
:10226000AE4810900A98FEF766FB0022AC4BCDE911
:102270000601FEF78BFB01D2A7480A901298C0EB2B
:10228000C000A34911F830000A287DD11298C0EB94
:10229000C00001EBC000C1891298C0EBC0009C4A8D
:1022A00002EBC000008A081A0190FEF722FB002111
:1022B00003901098FEF71FF902900399FEF721F999
:1022C00096490490FEF74FF906901298C0EBC001B2
:1022D0008F4800EBC100008A0490FEF713FB0590C5
:1022E0000699FEF7B6F80790FEF711FB81B2129837
:1022F000C0EBC000864A02EBC00001811299C1EB1D
:10230000C10102EBC1010A9848601298C0EBC000FD
:10231000114601EBC00001891298C0EBC00002EB2E
:10232000C000408A814206DB02211298C0EBC00047
:1023300002EBC00081701298C0EBC000744901EB41
:10234000C00001891298C0EBC000714A02EBC000C6
:10235000C089814206DB04211298C0EBC00002EB69
:10236000C00081701298C0EBC000694901EBC00049
:1023700001891298C0EBC000654A02EBC000808A58
:10238000814208DC032100E04FE01298C0EBC0005E
:1023900002EBC00081701298C0EBC0005C4901EBF9
:1023A000C00001891298C0EBC000594A02EBC0007E
:1023B000008A814206DC05211298C0EBC00002EBC6
:1023C000C00081701298C0EBC000514901EBC00001
:1023D00001891298C0EBC0004D4A02EBC000408A50
:1023E000A0F28F20814206DA00211298C0EBC000D3
:1023F00002EBC00081701298C0EBC000444901EBB1
:10240000C00001891298C0EBC000414A02EBC00035
:10241000808A00F28F20814206DD00211298C0EBF5
:10242000C00002EBC000817011E11298C0EBC00047
:10243000374911F830000B2855D10A98FEF77BFA7E
:102440000022344BCDE90601FEF788FA05D24FF0A1
:102450007E500A903348109008E030491098FEF7FB
:10246000D3FA03D22D4810902B480A901298C0EB53
:10247000C000274901EBC000C1891298C0EBC00021
:10248000234A02EBC000008A081A0190FEF731FAD5
:10249000244903901098FEF72EF802900399FEF756
:1024A00030F821490490FEF75EF806901298C0EBD0
:1024B000C000174901EBC000008A0490FEF722FA21
:1024C00005900699FDF7C5FF0790FEF720FA81B247
:1024D0001298C0EBC0000E4A02EBC00001811299B5
:1024E000C1EBC10122E0B2E000002041C4010020A4
:1024F0009A9999999999C93FCDCCCCCCCCCCEC3F49
:102500009999B93FFCA9F1D24D62403F20160020B5
:10251000781500200000F03F0000A0400060EA466F
:10252000000014400080BB450080BB4602EBC101A7
:102530000A9848601298C0EBC000114601EBC00039
:1025400001891298C0EBC00002EBC000408A8142B2
:1025500006DB02211298C0EBC00002EBC0008170C4
:102560001298C0EBC000FE4901EBC000018912982F
:10257000C0EBC000FA4A02EBC000C089814206DB12
:1025800004211298C0EBC00002EBC00081701298C9
:10259000C0EBC000F24901EBC00001891298C0EB0A
:1025A000C000EF4A02EBC000808A814206DC0321B2
:1025B0001298C0EBC00002EBC00081701298C0EB13
:1025C000C000E74901EBC00001891298C0EBC000D0
:1025D000E34A02EBC000008A814206DC0521129822
:1025E000C0EBC00002EBC00081701298C0EBC000CD
:1025F000DB4901EBC00001891298C0EBC000D84A4A
:1026000002EBC000408AA0F28F20814206DA00214E
:102610001298C0EBC00002EBC00081701298C0EBB2
:10262000C000CF4901EBC00001891298C0EBC00087
:10263000CB4A02EBC000808A00F28F20814206DD87
:1026400000211298C0EBC00002EBC0008170FDE3D6
:1026500000BF1298C0EBC000C14901EBC000008D63
:102660000690FEF74FF9BF490790FDF77CFF0F90EA
:102670001298C0EBC000BA4901EBC000B0F92A00C3
:102680000790FEF736F90E90129800EB4000B6491D
:1026900001EB800000890390FEF734F90590129851
:1026A00000EB4000B04901EB8000C0880390FEF7CA
:1026B00029F904900599FDF71EFF0790129800EB89
:1026C0004000A94901EB800000890390FEF71AF948
:1026D0000590129800EB4000A34931F820000390C8
:1026E000FEF710F904900599FDF705FF069007998C
:1026F000FDF739FF0D90129800EB40009A4901EB6D
:10270000800000890390FEF7FDF80590129800EB19
:102710004000954901EB8000C0880390FEF7F2F875
:1027200004900599FDF7E7FE0790129800EB400032
:102730008D4901EB800000890390FEF7E3F80590D6
:10274000129800EB4000884901EB8000408803901C
:10275000FEF7D8F804900599FDF7CDFE069007998D
:10276000FDF701FF0C901298C0EBC0007C4901EB13
:10277000C000B0F926000490FEF7BBF87B49059035
:10278000FDF7F1FE07901298C0EBC000744901EB11
:10279000C000808C0390FEF7B5F875490490FDF7F2
:1027A000E2FE05900D99FDF7ACFE06900799FDF746
:1027B00050FE0B901298C0EBC000694901EBC000BD
:1027C000B0F926000490FEF794F868490590FDF7EB
:1027D000CAFE07901298C0EBC000614901EBC0002F
:1027E000808C0390FEF78EF861490490FDF7BBFEE4
:1027F00005900C99FDF785FE06900799FDF729FED7
:102800000A90DDE90A10FDF776FE06905948016846
:102810000698FDF7A8FE56490790FDF772FE564947
:102820000860DDE90A10FDF766FE06900F9900E0EA
:1028300023E3FDF798FE4E490790FDF762FE0A90EC
:102840000A98FEF778F84D4A4D4BCDE90601FEF7A0
:1028500085F801D200200A901298C0EBC0004049D0
:1028600011F8300008280DD146480068FEF763F8DB
:10287000424A434BCDE90601FEF770F802D2002030
:10288000404908603A490A98FDF73BFE09903849EB
:102890003C480068FDF735FE0890DDE90810FDF7BB
:1028A0002AFE39490790FEF7AFF802D835490A9851
:1028B0000860DDE90801FDF71EFE33490790FEF7C9
:1028C000A3F802D82F490A980860DDE90801FDF74E
:1028D00012FE0590FEF72FF82C4A2D4BCDE906018C
:1028E000FEF73CF807D800210A98FEF783F802D1DA
:1028F00024490A980860DDE90810FDF7FCFD059001
:10290000FEF719F8214A224BCDE90601FEF726F819
:1029100007D800210A98FEF76DF802D119490A98E4
:10292000086018480068FEF706F81A4A1A4BCDE905
:102930000001FDF7FDFECDE904010A98FDF7FBFF5C
:10294000124A164BCDE90001FDF7F2FECDE9020176
:10295000DDE90423FDF745FECDE9060120E0000096
:10296000781500200000C842201600200050C34700
:1029700000007A44D0010020CC010020FCA9F1D253
:102980004D62403FC4010020000048429A99999945
:102990009999C93FCDCCCCCCCCCCEC3F9999B93FDF
:1029A000FEF70CF80A90FE490A98FEF723F80CD2BD
:1029B0000A98FDF7C0FFFB4AFB4BCDE90601FDF786
:1029C000E5FF02D2F9490A9808601298C0EBC000EE
:1029D000F74911F83000092819D1F4480068FDF7CB
:1029E000AAFFF44AF44BCDE90601FDF7B7FF0ED27A
:1029F0004FF081400A904FF07E50EC490860012171
:102A00001298C0EBC000EA4A02EBC0008170EB49AB
:102A10000A98FDF7A8FDEA490790FDF772FD1090AE
:102A2000E7491098FDF7F0FF01D2E54810900A98A9
:102A3000FDF781FF0022E34BCDE90601FDF7A6FF7C
:102A400001D2DE480A901298C0EBC000D84911F8B4
:102A5000300008287ED1DC491098FDF7D5FF03D25D
:102A6000D9481090D9480A900A98FDF764FF0022CF
:102A7000D74BCDE90601FDF789FF03D2D3480A9071
:102A8000D14810901298C0EBC000C94901EBC000BA
:102A9000C1891298C0EBC000C54A02EBC000008A91
:102AA000081A0190FDF725FF002103901098FDF70B
:102AB00022FD02900399FDF724FDC3490490FDF720
:102AC00052FD06901298C0EBC001B94800EBC1005E
:102AD000008A0490FDF716FF05900699FDF7B9FCF2
:102AE0000790FDF714FF81B21298C0EBC000B04A06
:102AF00002EBC00001811299C1EBC10102EBC101DF
:102B00000A9848601298C0EBC000114601EBC00063
:102B100001891298C0EBC00002EBC000408A8142DC
:102B200006DB02211298C0EBC00002EBC0008170EE
:102B30001298C0EBC0009E4901EBC00001891298B9
:102B4000C0EBC0009A4A02EBC000C089814208DB9A
:102B5000042100E066E01298C0EBC00002EBC00068
:102B600081701298C0EBC000914901EBC00001894F
:102B70001298C0EBC0008E4A02EBC000808A8142EE
:102B800006DC03211298C0EBC00002EBC00081708C
:102B90001298C0EBC000864901EBC0000189129871
:102BA000C0EBC000824A02EBC000008A814206DC12
:102BB00005211298C0EBC00002EBC0008170129892
:102BC000C0EBC0007A4901EBC00001891298C0EB4C
:102BD000C000774A02EBC000408AA0F28F208142F9
:102BE00006DA00211298C0EBC00002EBC000817031
:102BF0001298C0EBC0006E4901EBC0000189129829
:102C0000C0EBC0006A4A02EBC000808A00F28F204D
:102C1000814206DD00211298C0EBC00002EBC0002B
:102C2000817029E11298C0EBC000614911F83000B1
:102C300009287DD167491098FDF7DCFE05D265486B
:102C400010904FF081400A9008E05D491098FDF720
:102C5000DBFE03D25A48109058480A900A98FDF7B4
:102C60006AFE00225C4BCDE90601FDF777FE05D236
:102C70004FF081400A90574810900BE00A98FDF7FA
:102C80005AFE00224F4BCDE90601FDF77FFE01D22F
:102C90004B4810901298C0EBC000454901EBC000B2
:102CA000C1891298C0EBC000414A02EBC000008A03
:102CB000081A0190FDF71DFE464903901098FDF794
:102CC0001AFC02900399FDF71CFC44490490FDF79F
:102CD0004AFC06901298C0EBC000354901EBC000D9
:102CE000008A0490FDF70EFE05900699FDF7B1FBF2
:102CF0000790FDF70CFE81B21298C0EBC0002C4A81
:102D000002EBC00001811299C1EBC10102EBC101CC
:102D10000A9848601298C0EBC000114601EBC00051
:102D200001891298C0EBC00002EBC000408A00E0AD
:102D3000A2E0814206DB02211298C0EBC00002EB48
:102D4000C00081701298C0EBC000194901EBC000AF
:102D500001891298C0EBC000154A02EBC000C0897F
:102D6000814206DB04211298C0EBC00002EBC000D8
:102D700081701298C0EBC0000D4901EBC0000189C1
:102D80001298C0EBC0000A4A02EBC000808A814260
:102D900027DC03211298C0EBC00002EBC0001FE04B
:102DA0000000F041FCA9F1D24D62403FC401002077
:102DB00078150020AE47E17A14AE0F400000A04124
:102DC0000060EA460000344000606A46000020418E
:102DD000000024400080BB45000010400080BB463E
:102DE00081701298C0EBC000FE4901EBC000018960
:102DF0001298C0EBC000FB4A02EBC000008A81427F
:102E000006DC05211298C0EBC00002EBC000817007
:102E10001298C0EBC000F34901EBC0000189129881
:102E2000C0EBC000EF4A02EBC000408AA0F28F2046
:102E3000814206DA00211298C0EBC00002EBC0000C
:102E400081701298C0EBC000E64900E016E001EB8B
:102E5000C00001891298C0EBC000E24A02EBC0003A
:102E6000808A00F28F20814206DD00211298C0EB9B
:102E7000C00002EBC000817000E000BF00BFFDE3B6
:102E80001298C0EBC000D74911F8300008287DD057
:102E900009287CD00A2802D00B2879D100E000BF95
:102EA0001298C0EBC000CF4901EBC000808C0690A7
:102EB000FDF728FDCC490790FDF755FB0F901298C0
:102EC000C0EBC000C74901EBC000B0F92600069076
:102ED000FDF70FFDC5490790FDF745FB0E901298D1
:102EE00000EB4000C24901EB800000890390FDF730
:102EF00009FD0590129800EB4000BD4901EB8000F0
:102F0000C0880390FDF7FEFC04900599FDF7F3FAE5
:102F10000790129800EB4000B54901EB8000008952
:102F20000390FDF7EFFC0590129800EB4000B049CC
:102F300031F820000390FDF7E5FC04900599FDF7BA
:102F4000DAFA06900799FDF70EFB0D900F990D9890
:102F5000FDF7D7FA07900E99FDF77BFA0A900A98C9
:102F6000FDF7E9FCA34AA44BCDE90601FDF7F6FC09
:102F700001D200200A90A1480068FDF7DCFC002285
:102F80009F4BCDE90601FDF701FD02E0F7E2F7E214
:102F9000FEE302D20020994908601298C0EBC000FD
:102FA000904911F830000A280DD194480068FDF7C7
:102FB000C2FC904A904BCDE90601FDF7CFFC02D24E
:102FC00000218E4801601298C0EBC000854911F8BD
:102FD00030000B280ED189480068FDF7ACFC854A0B
:102FE000854BCDE90601FDF7B9FC03D24FF07E50C9
:102FF000824908607C490A98FDF783FA09907A496A
:103000007E480068FDF77DFA0890DDE90810FDF7BD
:1030100072FA7C490790FDF7F7FC02D877490A98C5
:103020000860DDE90801FDF766FA76490790FDF7CB
:10303000EBFC02D871490A980860DDE90801FDF748
:103040005AFA0590FDF777FC6F4A704BCDE90601FF
:10305000FDF784FC07D800210A98FDF7CBFC02D1CC
:1030600066490A980860DDE90810FDF744FA059002
:10307000FDF761FC644A654BCDE90601FDF76EFC86
:1030800007D800210A98FDF7B5FC02D15B490A98E0
:1030900008605A480068FDF74EFC5D4A5D4BCDE97B
:1030A0000001FDF745FBCDE904010A98FDF743FC5B
:1030B000554A594BCDE90001FDF73AFBCDE9020134
:1030C000DDE90423FDF78DFACDE90601FDF776FC75
:1030D0000A904C490A98FDF78DFC0CD20A98FDF72E
:1030E0002AFC444A444BCDE90601FDF74FFC02D2CD
:1030F00042490A980860129800EB40003C4931F8B8
:103100002010129800EB4000394A02EB8000008941
:10311000A0F5007081420BDA00200A903749086060
:1031200001211298C0EBC0002E4A02EBC000817052
:103130001298C0EBC0002B4911F830000B2814D1B5
:103140000A98FDF7F8FB0022344BCDE90601FDF7A4
:1031500005FC0AD24FF07E500A9001211298C0EB74
:10316000C000204A02EBC00081702D490A98FDF78B
:10317000FAF92C490790FDF7C4F9109029491098E5
:10318000FDF742FC01D2274810900A98FDF7D3FBC7
:103190000022254BCDE90601FDF7F8FB01D22048BE
:1031A0000A901298C0EBC0000E4911F830000A28AE
:1031B0007ED11298C0EBC00001EBC000C18912980B
:1031C000C0EBC000074A02EBC000008A081A019059
:1031D000FDF78FFB002103901098FDF78CF902900A
:1031E000039923E07815002000007A440050C3477B
:1031F00020160020FCA9F1D24D62403FC8010020FA
:1032000000002440000020419A9999999999C93F5A
:10321000CDCCCCCCCCCCEC3F9999B93F0000F03F61
:103220000000A0400060EA4600001440FDF769F984
:10323000FE490490FDF797F906901298C0EBC00084
:10324000FB4901EBC000008A0490FDF75BFB059091
:103250000699FDF7FEF80790FDF759FB81B2129829
:10326000C0EBC000F24A02EBC00001811299C1EB31
:10327000C10102EBC1010A9848601298C0EBC0007E
:10328000114601EBC00001891298C0EBC00002EBAF
:10329000C000408A814206DB02211298C0EBC000C8
:1032A00002EBC00081701298C0EBC001E04800E062
:1032B00074E000EBC10001891298C0EBC000DC4A49
:1032C00002EBC000C089814206DB04211298C0EBEA
:1032D000C00002EBC00081701298C0EBC000D4495E
:1032E00001EBC00001891298C0EBC000D04A02EB8C
:1032F000C000808A814206DC03211298C0EBC00026
:1033000002EBC00081701298C0EBC000C84901EB0D
:10331000C00001891298C0EBC000C54A02EBC00092
:10332000008A814206DC05211298C0EBC00002EB46
:10333000C00081701298C0EBC000BD4901EBC00015
:1033400001891298C0EBC000B94A02EBC000408A64
:10335000A0F28F20814207DA00211298C0EBC00250
:10336000B34800EBC20081701298C0EBC000B049B6
:1033700001EBC00001891298C0EBC000AC4A02EB1F
:10338000C000808A00F28F20814206DD0021129861
:10339000C0EBC00002EBC0008170EFE01298C0EB00
:1033A000C001A34810F831000B287DD10A98FDF721
:1033B000C2FA00229F4BCDE90601FDF7CFFA05D2F4
:1033C0004FF07E500A909C48109008E09749109862
:1033D000FDF71AFB03D29548109098480A9012986E
:1033E000C0EBC000924901EBC000C1891298C0EB4C
:1033F000C0008F4A02EBC000008A081A0190FDF756
:1034000078FA8D4903901098FDF775F802900399AA
:10341000FDF777F88A490490FDF7A5F80690129811
:10342000C0EBC000824901EBC000008A0490FDF7A8
:1034300069FA05900699FDF70CF80790FDF767FA11
:1034400081B21298C0EBC000794A02EBC000018142
:103450001299C1EBC10102EBC1010A9848601298B0
:10346000C0EBC000114601EBC00001891298C0EB0F
:10347000C00002EBC000408A814206DB02211298A4
:10348000C0EBC00002EBC00081701298C0EBC0001E
:10349000674901EBC00001891298C0EBC000644A83
:1034A00002EBC000C08900E068E0814206DB042135
:1034B0001298C0EBC00002EBC00081701298C0EB04
:1034C000C0005B4901EBC00001891298C0EBC0004D
:1034D000574A02EBC000808A814206DC0321129821
:1034E000C0EBC00002EBC00081701298C0EBC000BE
:1034F0004F4901EBC00001891298C0EBC0004C4A53
:1035000002EBC000008A814206DC05211298C0EB64
:10351000C00002EBC00081701298C0EBC0004449AB
:1035200001EBC00001891298C0EBC000404A02EBD9
:10353000C000408AA0F28F20814206DA0021129852
:10354000C0EBC00002EBC00081701298C0EBC0005D
:10355000374901EBC00001891298C0EBC000344A22
:1035600002EBC000808A00F28F20814206DD00213C
:103570001298C0EBC00002EBC0008170FEE300BFF8
:103580001298C0EBC0002A4901EBC000008D0690E4
:10359000FDF7B8F92B490790FCF7E5FF0F9012985B
:1035A000C0EBC000224901EBC000B0F92A0007902F
:1035B000FDF79FF90E90129800EB4000224901EBB5
:1035C000800000890390FDF79DF90590129800EBAB
:1035D00040001D4901EB8000C0880390FDF792F97F
:1035E00004900599FCF787FF0790129800EB4000C4
:1035F000154901EB800000890390FDF783F90590E0
:10360000129800EB4000104931F820000390FDF7BC
:1036100079F904900599FCF76EFF06900799FCF77D
:10362000A2FF0D90129800EB40000FE00060EA4608
:10363000781500200000F03F0080BB450000A0404E
:103640000080BB460000C84220160020FD4901EB67
:10365000800000890390FDF755F90590129800EB62
:103660004000F84901EB8000C0880390FDF74AF95B
:1036700004900599FCF73FFF079000E095E312984E
:1036800000EB4000EF4901EB800000890390FDF75B
:1036900039F90590129800EB4000EA4901EB8000EF
:1036A00040880390FDF72EF904900599FCF723FF5D
:1036B00006900799FCF757FF0C901298C0EBC000DA
:1036C000E14901EBC000B0F926000490FDF711F9C3
:1036D000DE490590FCF747FF07901298C0EBC00049
:1036E000D94901EBC000808C0390FDF70BF9D84954
:1036F0000490FCF738FF05900D99FCF702FF069047
:103700000799FCF7A6FE0B901298C0EBC000CE49BB
:1037100001EBC000B0F926000490FDF7EAF8CB49B0
:103720000590FCF720FF07901298C0EBC000C64937
:1037300001EBC000808C0390FDF7E4F8C4490490CD
:10374000FCF711FF05900C99FCF7DBFE069007993A
:10375000FCF77FFE0A90DDE90A10FCF7CCFE06902C
:10376000BC4801680698FCF7FEFEB9490790FCF7D3
:10377000C8FEB9490860DDE90A10FCF7BCFE0690F6
:103780000F99FCF7F0FEB2490790FCF7BAFE00E093
:1037900009E30A900A98FDF7CEF8B04AB04BCDE99C
:1037A0000601FDF7DBF801D200200A901298C0EB69
:1037B000C000A54911F8300008280DD1A9480068BB
:1037C000FDF7B9F8A54AA64BCDE90601FDF7C6F805
:1037D00002D20020A34908609D490A98FCF791FE97
:1037E00009909B499F480068FCF78BFE0890DDE933
:1037F0000810FCF780FE9C490790FDF705F902D8F8
:1038000098490A980860DDE90801FCF774FE9649BA
:103810000790FDF7F9F802D892490A980860DDE9A7
:103820000801FCF768FE0590FDF785F88F4A904B7C
:10383000CDE90601FDF792F807D800210A98FDF7B7
:10384000D9F802D187490A980860DDE90810FCF729
:1038500052FE0590FDF76FF8844A854BCDE90601CD
:10386000FDF77CF807D800210A98FDF7C3F802D1CC
:103870007C490A9808607B480068FDF75CF87D4A3F
:103880007D4BCDE90001FCF753FFCDE904010A9817
:10389000FDF751F8754A794BCDE90001FCF748FF77
:1038A000CDE90201DDE90423FCF79BFECDE9060129
:1038B000FDF784F80A9072490A98FDF79BF80CD23C
:1038C0000A98FDF738F8654A654BCDE90601FDF722
:1038D0005DF802D263490A9808601298C0EBC000F4
:1038E000594911F83000092818D15E480068FDF7E1
:1038F00022F8644A644BCDE90601FDF72FF80DD29A
:103900004FF081400A90002056490860012112982A
:10391000C0EBC0004C4A02EBC00081705B490A98C2
:10392000FCF721FE5A490790FCF7EBFD109058492F
:103930001098FDF769F801D2554810900A98FCF7E5
:10394000FAFF0022534BCDE90601FDF71FF801D223
:103950004E480A901298C0EBC0003B4911F8300065
:1039600008286ED14C491098FDF74EF803D24A480A
:1039700010904A480A900A98FCF7DDFF0022484B55
:10398000CDE90601FDF702F803D244480A90424807
:1039900010901298C0EBC0002B4901EBC000C18908
:1039A0001298C0EBC000284A02EBC000008A081A37
:1039B0000190FCF79EFF002103901098FCF79BFDFF
:1039C00002900399FCF79DFD33490490FCF7CBFD71
:1039D00006901298C0EBC0001B4901EBC000008AA2
:1039E0000490FCF78FFF05900699FCF732FD0790D5
:1039F000FCF78DFF81B21298C0EBC000124A02EBB7
:103A0000C00001811299C1EBC10102EBC1010A980A
:103A100048601298C0EBC000114601EBC00001895C
:103A20001298C0EBC00002EBC000408A814206DB66
:103A300002211298C0EBC00002EBC0008170129806
:103A400030E0A6E020160020781500200050C34783
:103A500000007A44D0010020CC010020FCA9F1D262
:103A60004D62403FC8010020000048429A99999950
:103A70009999C93FCDCCCCCCCCCCEC3F9999B93FEE
:103A80000000F041AE47E17A14AE0F400000A041C3
:103A90000060EA460000344000606A4600002041B1
:103AA00000002440C0EBC000C24901EBC000018906
:103AB0001298C0EBC000BF4A02EBC000C08981422F
:103AC00006DB04211298C0EBC00002EBC00081703D
:103AD0001298C0EBC000B74901EBC00001891298F1
:103AE000C0EBC000B34A02EBC000808A814206DC12
:103AF00003211298C0EBC00002EBC0008170129845
:103B0000C0EBC000AB4901EBC00001891298C0EBCB
:103B1000C000A84A02EBC000008A814206DC0521F1
:103B20001298C0EBC00002EBC00081701298C0EB8D
:103B3000C000A04901EBC00001891298C0EBC00091
:103B40009C4A02EBC000408AA0F28F20814206DA34
:103B500000211298C0EBC00002EBC00081701298E7
:103B6000C0EBC000934901EBC00001891298C0EB83
:103B7000C000904A02EBC000808A00F28F20814290
:103B800006DD00211298C0EBC00002EBC00081707E
:103B900008E11298C0EBC000864911F830000928EE
:103BA0007ED185491098FCF725FF05D282481090F8
:103BB0004FF081400A9008E080491098FCF724FFFC
:103BC00003D27E4810907E480A900A98FCF7B3FE14
:103BD00000227C4BCDE90601FCF7C0FE05D24FF078
:103BE00081400A90744810900BE00A98FCF7A3FEFD
:103BF0000022754BCDE90601FCF7C8FE01D26F48E3
:103C000010901298C0EBC0006A4901EBC000C18956
:103C10001298C0EBC000674A02EBC000008A081A85
:103C20000190FCF766FE644903901098FCF763FC72
:103C300002900399FCF765FC64490490FCF793FC3F
:103C400006901298C0EBC0005A4901EBC000008AF0
:103C50000490FCF757FE05900699FCF7FAFB0790D5
:103C6000FCF755FE81B21298C0EBC000514A02EB3E
:103C7000C00001811299C1EBC10102EBC1010A9898
:103C800048601298C0EBC000114601EBC0000189EA
:103C90001298C0EBC00002EBC000408A814200E0F5
:103CA00080E006DB02211298C0EBC00002EBC000EE
:103CB00081701298C0EBC0003E4901EBC000018941
:103CC0001298C0EBC0003B4A02EBC000C0898142A1
:103CD00006DB04211298C0EBC00002EBC00081702B
:103CE0001298C0EBC000334901EBC0000189129863
:103CF000C0EBC0002F4A02EBC000808A814206DC84
:103D000003211298C0EBC00002EBC0008170129832
:103D1000C0EBC000274901EBC00001891298C0EB3D
:103D2000C000244A02EBC000008A814206DC052163
:103D30001298C0EBC00002EBC00081701298C0EB7B
:103D4000C0001C4901EBC00001891298C0EBC00003
:103D5000184A02EBC000408AA0F28F20814206DAA6
:103D600000211298C0EBC00002EBC00081701298D5
:103D7000C0EBC0000F4901EBC00000E014E0018976
:103D80001298C0EBC0000B4A02EBC000808A00F220
:103D90008F20814206DD00211298C0EBC00002EBAB
:103DA000C000817000E000BF00BF00E000BF00BFA6
:103DB00013B000BD781500200080BB450060EA46C6
:103DC0000000A04100001040000034400080BB46CD
:103DD00010B50348007800F045FE00F069FF10BD03
:103DE000A90100202DE9F0410646884614461D46EB
:103DF00027462A463946304600F04AF8BDE8F081A9
:103E00000149016070470000E53D000810B504203D
:103E100007F0E6FB04460CB9002010BD2046FFF772
:103E2000EFFF2046F9E74FF4007007F0D9FB064694
:103E300000244FF400713046FCF75EFA27E00A20B8
:103E400007F038FD4FF40071304609F00BFC0446D2
:103E5000002C00DC1BE0304606F08BF868B93046D9
:103E600006F010F900BF3046FCF76FFA85B229461C
:103E7000304609F04BFC0028F5D1304605F064F9D6
:103E800020B9304605F000FA05F0B8F900BFD6E7D2
:103E900070B506460C461546304605F055F950B942
:103EA0000748046007480560304605F0EDF905F065
:103EB000A5F9002070BD002001490860401EF9E707
:103EC000440000204800002070B505460C462846F6
:103ED000216888470F4908602846616888470D496E
:103EE00048602846A16888470A49886028462169B1
:103EF00088470849C86028466169884705490861BC
:103F00002846E16888470349486108460068A86078
:103F1000002070BDC00C002010B50548006818B91D
:103F200000F054FE024908600148006810BD00001E
:103F30004C00002010B5012000F094F998B1002148
:103F4000094800F0D9F800210848FCF7F8FF0021E3
:103F50000648FCF741FF01200549087000F08AF887
:103F6000012000F0BBF810BD080002400024014011
:103F7000A201002010B5202000F074F998B10A4980
:103F8000486800F0ABF808490868002100F0B4F870
:103F900040F22661054804F0ADF9012240F22661A5
:103FA000024804F0E8FA10BDBC00002000480040C0
:103FB0001CB54FF4001000F055F980B31849C868DB
:103FC000002100F099F81649086900F087F81548B3
:103FD00006F02AF904461249C86800F03FF9201A91
:103FE0001149888001AA69460E480AF04DFD0C4926
:103FF0000098C968C860BDF904000949C9684860EB
:104000000749C868012100F077F80848006801698D
:104010000648006888470648006807F0EFFC1CBDAA
:10402000D4000020101400202C1500203C0000209B
:104030006C01002010B54FF0007000F013F998B13A
:104040000A49486800F04AF808490868002100F069
:1040500053F840F22661064804F04CF9012240F280
:104060002661034804F087FA10BD0000D400002048
:104070000044004000B58BB01449C86800F048F80F
:10408000134800901348019000200290C82003902C
:10409000002004908020059040000690800007904A
:1040A00020200890002009900A9069460A4800F0F4
:1040B00072F906490122C868022100F063F9034938
:1040C000C868012100F018F80BB000BDFC0000200A
:1040D0004C240140C81600200800024000F0805126
:1040E00011B10349086001E00249486070470000CF
:1040F000040402400000024021B1026842F00102C3
:10410000026004E002684FF6FE731A4002607047D6
:1041100001684FF6FE7211400160002101604160AC
:104120008160C1604B49884208D14A4908394968D1
:1041300041F00F01474A083A51608AE0454914317D
:10414000884208D143490839496841F0F001414AA1
:10415000083A51607DE03F492831884208D13D4905
:104160000839496841F470613A4A083A516070E090
:1041700038493C31884208D136490839496841F408
:104180007041344A083A516063E032495031884204
:1041900008D130490839496841F470212D4A083A5C
:1041A000516056E02B496431884208D129490839C9
:1041B000496841F47001274A083A516049E02549AD
:1041C0007831884208D123490839496841F0706143
:1041D000204A083A51603CE01F49884206D1011F3D
:1041E000096841F00F01021F116032E01A491431D1
:1041F000884208D11849091F096841F0F001164AA0
:10420000121F116025E014492831884208D1124953
:10421000091F096841F470610F4A121F116018E00C
:104220000D493C31884208D10B49091F096841F406
:104230007041094A121F11600BE007495031884252
:1042400007D10549091F096841F47021024A121F6C
:1042500011607047080002400804024001464868A7
:1042600080B2704701460020002201F0805313B154
:10427000054B1A6801E0054B1A6802EA01030BB10D
:10428000012000E0002070470004024000000240CE
:1042900000B58DB00121084603F022F834490868C2
:1042A0000021FFF729FF32490868FFF731FF314845
:1042B00002903148039010200490400105900020A6
:1042C0000690802007900020089009900A904FF4F3
:1042D00080500B9000200C902549086802A900F03E
:1042E0005AF823494868FFF7F9FE21490868002178
:1042F000FFF702FF1E4901220868022100F042F880
:1043000001AA69461D480AF0BFFB1949C868002187
:10431000FFF7F2FE1649C868FFF7FAFE154802904B
:104320000098039000200490BDF90400059000203F
:104330000690802007900020089009900A904FF482
:1043400040500B9000200C900949C86802A900F069
:1043500022F807490869FFF7C1FE0549C86801212D
:10436000FFF7CAFE06490098C8600DB000BD000006
:10437000BC00002004480040000D0020D80C0020A4
:10438000001000201AB103680B43036002E00368C9
:104390008B430360704710B50022026847F6F07344
:1043A0009A430C6A8B6823430C6923434C6923436B
:1043B0008C692343CC6923434C6A23438C6A23438F
:1043C0001A430260CB6843600B6883604B68C3602C
:1043D00010BD000000B58DB00121084602F080FF3D
:1043E0002F4908680021FFF787FE2D490868FFF76D
:1043F0008FFE2C4802902C4803901020049000015E
:1044000005900020069080200790002008900990D9
:104410000A900B900C902249086802A9FFF7BBFF95
:104420001F494868FFF75AFE1D4908680021FFF739
:1044300063FE1B49012208680221FFF7A3FF01AABE
:1044400069461A480AF020FB1549C8680021FFF7A1
:1044500053FE1349C868FFF75BFE124802900098AC
:10446000039000200490BDF9040005900020069000
:10447000802007900020089009900A900B900C90E3
:104480000749C86802A9FFF786FF05490869FFF7D1
:1044900025FE0349C8680121FFF72EFE0DB000BDBF
:1044A000D40000200444004010100020101400200C
:1044B00010B5044674B1012C02D0FF2C1FD114E0BA
:1044C0001048006818B902F083FA0E4908600D48D8
:1044D000006810BD0C48006818B900F0BAFB0A4922
:1044E000086009480068001DF3E70848006818B92B
:1044F00000F09CFB0549086004480068E9E70020DB
:10450000E7E7000024020020280200202C020020FF
:10451000F0B50D46002120B101287AD0022879D1CA
:10452000AFE100241EE0002216E0FE4E36F81270C5
:10453000B446561C3CF81660B7420BDD664636F8AA
:1045400012103746561C37F8166027F81260561CB2
:1045500027F81610561CF2B2C4F1C7069642E4DCE6
:10456000661CF4B2C72CDEDB0021582305E0ED4EBB
:1045700036F8136031445E1CF3B2712BF7DB192659
:10458000B1FBF6F1E84F398035B1012D2DD0022D68
:1045900056D0032D7ED182E0C0EBC006E34F17F862
:1045A0003660082E05D0C0EBC00617F83660092E1D
:1045B00007D100EB4007DFF878C30CEB8707798061
:1045C00012E0C0EBC006D94F17F836600A2E05D0AE
:1045D000C0EBC00617F836600B2E05D100EB400784
:1045E000DFF84CC32CF8271072E0C0EBC006CF4FA9
:1045F00017F83660082E05D0C0EBC00617F83660F5
:10460000092E08D100EB4007DFF824C32CF827104F
:1046100015E05FE01CE2C0EBC006C44F17F836603F
:104620000A2E05D0C0EBC00617F836600B2E06D157
:1046300000EB4007DFF8F8C20CEB8707398147E051
:10464000C0EBC006B94F17F83660082E05D0C0EB96
:10465000C00617F83660092E07D100EB4007DFF8D7
:10466000D0C20CEB8707398118E0C0EBC006AF4F12
:1046700017F836600A2E05D0C0EBC00617F8366072
:104680000B2E0BD100EB4007DFF8A4C20CEB870721
:10469000F98000E01BE00126A64F3E7018E0C0EB59
:1046A000C006A24F17F83660082E05D0C0EBC00632
:1046B00017F83660092E09D100EB4007DFF870C209
:1046C0000CEB8707F98001269A4F3E7000E000BF8F
:1046D00000BFBEE100241EE0002216E0914E36F835
:1046E0001270B446561C3CF81660B7420BDD6646A5
:1046F00036F812103746561C37F8166027F8126045
:10470000561C27F81610561CF2B2C4F1C706964282
:10471000E4DC661CF4B2C72CDEDB0021582305E084
:10472000804E36F8136031445E1CF3B2712BF7DB18
:104730001926B1FBF6F1804F398035B1012D2DD00E
:10474000022D54D0032D7DD180E0C0EBC006774F01
:1047500017F83660082E05D0C0EBC00617F8366093
:10476000092E07D100EB4007DFF8C4C10CEB870727
:10477000798012E0C0EBC0066C4F17F836600A2E45
:1047800005D0C0EBC00617F836600B2E05D100EB44
:104790004007DFF89CC12CF8271070E0C0EBC00682
:1047A000624F17F83660082E05D0C0EBC00617F828
:1047B0003660092E06D100EB4007DFF874C12CF8F3
:1047C000271013E0C0EBC006584F17F836600A2ECA
:1047D00005D0C0EBC00617F836600B2E06D100EBF3
:1047E0004007DFF84CC10CEB8707398147E0C0EB8D
:1047F000C0064E4F17F83660082E05D0C0EBC00635
:1048000017F83660092E07D100EB4007DFF820C10A
:104810000CEB8707398118E0C0EBC006434F17F84F
:1048200036600A2E05D0C0EBC00617F836600B2E96
:104830000BD100EB4007DFF8F8C00CEB8707F980DD
:10484000012600E01AE03D4F3E7018E0C0EBC006C4
:10485000364F17F83660082E05D0C0EBC00617F8A3
:104860003660092E09D100EB4007DFF8C4C00CEB1D
:104870008707F9800126314F3E7000E000BF00BF7E
:10488000E7E000241EE0002216E0264E36F8127003
:10489000B446561C3CF81660B7420BDD664636F847
:1048A00012103746561C37F8166027F81260561C4F
:1048B00027F81610561CF2B2C4F1C7069642E4DC83
:1048C000661CF4B2C72CDEDB0021582305E0154E30
:1048D00036F8136031445E1CF3B2712BF7DB1926F6
:1048E000B1FBF6F1164F398035B1012D3ED0022DC6
:1048F00065D0032D78D190E0C0EBC0060B4F17F8C0
:104900003660082E05D0C0EBC00617F83660092EB9
:1049100018D100EB4007DFF818C00CEB870779804F
:1049200023E00000C8160020BA01002078150020FE
:1049300020160020B7010020BC010020B801002093
:10494000BE010020C0EBC006434F17F836600A2EA8
:1049500005D0C0EBC00617F836600B2E05D100EB72
:104960004007DFF8F8C02CF827106FE0C0EBC00656
:10497000394F17F83660082E05D0C0EBC00617F87F
:104980003660092E06D100EB4007DFF8D0C02CF8C6
:10499000271013E0C0EBC0062F4F17F836600A2E21
:1049A00005D0C0EBC00617F836600B2E06D100EB21
:1049B0004007DFF8A8C00CEB8707398146E0C0EB61
:1049C000C006254F17F83660082E05D0C0EBC0068C
:1049D00017F83660092E08D100EB4007DFF87CC0DD
:1049E0000CEB8707398117E02FE0C0EBC0061A4FA8
:1049F00017F836600A2E05D0C0EBC00617F83660EF
:104A00000B2E09D100EB4007DFF850C00CEB8707F5
:104A1000F9800126124F3E7018E0C0EBC0060E4F21
:104A200017F83660082E05D0C0EBC00617F83660C0
:104A3000092E09D100EB4007DFF820C00CEB8707F7
:104A4000F9800126064F3E7000E000BF00BF00E085
:104A500000BF00BFF0BD0000781500202016002028
:104A6000B901002010B504464148007801287ED1E4
:104A700000203F49087024B1012C28D0022C74D1A9
:104A80004BE03C4800783C4908703A480078401CAC
:104A900038490870002009F0A3FE0022022137489F
:104AA000FFF770FC00220121880703F09AFA3248D0
:104AB00001780020FFF72CFD012202212F48FFF78B
:104AC00061FC01221146900703F08BFA4EE02C485E
:104AD00000782C4908702A480078401C2849087042
:104AE000012009F07DFE002202212448FFF74AFC44
:104AF00000220121880703F074FA2248017801207E
:104B0000FFF706FD012202211C48FFF73BFC0122B2
:104B10001146900703F065FA28E01B4800781B490E
:104B2000087019480078401C17490870022009F0E5
:104B300057FE002202211148FFF724FC0022012128
:104B4000880703F04EFA114801780220FFF7E0FCD5
:104B5000012202210948FFF715FC012211469007A6
:104B600003F03FFA02E002E0FFE700BF00BF10BD24
:104B7000A2010020AB010020AC010020080002408F
:104B8000AD010020AE010020AF010020B0010020E7
:104B900070B50446064890F8F40138B12046FBF79A
:104BA000D4FB85B22946204608F0B0FD70BD000058
:104BB000140A002001490160704700006D9F000841
:104BC0000149016070470000E74B000810B5042060
:104BD00006F006FD04460CB9002010BD2046FFF784
:104BE000EFFF2046F9E710B50446062C0FD2DFE8A8
:104BF00004F003060B0E070802F058FB09E000BFA3
:104C000000BF02F07BFE04E002F030FD01E0002076
:104C100000BF00BF10BD000000B502461046FFF700
:104C2000C9FF0148506000BDADB8000810B50C20A8
:104C300006F0D6FC04460CB9002010BD2046FFF754
:104C4000EBFF2046F9E710B50446201DFFF7B2FF41
:104C500010BD10B5102006F0C3FC04460CB90020AE
:104C600010BD2046FFF7EFFF2046F9E700E0401CAB
:104C70000178202902D101780029F8D1704700007D
:104C80000149016070470000A74C000810B50420DE
:104C900006F0A6FC04460CB9002010BD2046FFF724
:104CA000EFFF2046F9E710B504464FF0FF3010BD86
:104CB00010B54D480078012807D04C4800780128ED
:104CC00003D04B48007801282CD1474800780128B0
:104CD00029D1002044490870002202214548FFF7ED
:104CE00051FB00220121880703F07BF90020424993
:104CF000087042490870FCF75FF90020FCF72EF8B5
:104D00003F48007820B901203D49087009F068FD4E
:104D1000012202213748FFF735FB01221146900797
:104D200003F05FF95EE03148007801282BD10020C4
:104D30002E490870002202212E48FFF723FB002293
:104D40000121880703F04DF900202E4908702E49F3
:104D500008700120FCF730F90120FBF7FFFF28481D
:104D60000078012804D102202549087009F038FD97
:104D7000012202211F48FFF705FB0122114690077F
:104D800003F02FF92EE01A48007801282AD10020DC
:104D900017490870002202211648FFF7F3FA002293
:104DA0000121880703F01DF90020184908701849EF
:104DB00008700220FCF700F90220FBF7CFFF104833
:104DC0000078022804D100200D49087009F008FD80
:104DD000012202210748FFF7D5FA01221146900768
:104DE00003F0FFF810BD0000B7010020B80100205B
:104DF000B901002008000240AC010020AB010020F6
:104E0000A9010020AE010020AD010020B00100206A
:104E1000AF0100202DE9F04705460E469046994621
:104E200000F0D2FF074600240E48007830B90D4844
:104E3000D0F8F811012008F0E3FF0AE0002406E0B2
:104E4000084A601CD2F8F81108F0DAFF641C042C40
:104E5000F6DB324629463846FB6C98470020BDE811
:104E6000F0870000140A002001490160704700002B
:104E7000154E000810B5042006F0B2FB04460CB92C
:104E8000002010BD2046FFF7EFFF2046F9E70000A5
:104E90002DE9F05F0746894692469B4600F094FF55
:104EA00004460025A8462046E168884700BF1AE06E
:104EB000114800EB05113A462046636A98470646BA
:104EC00006F1090058B908F101000FFA80F8B8F1AD
:104ED000030F08DD681C05B24FF0000803E0681CF2
:104EE00005B24FF00008042DE2DB20462169884717
:104EF0000020BDE8F09F0000C80B002001490160C0
:104F000070470000914E000810B5042006F068FBC1
:104F100004460CB9002010BD2046FFF7EFFF2046E5
:104F2000F9E72DE9F04105460C461746984600265C
:104F3000A1B2284608F0EAFB064606F1080018B9B7
:104F4000642006F0B7FC02E00A2006F0B3FC002063
:104F5000BDE8F0810149016070470000234F00085F
:104F600010B5042006F03CFB04460CB9002010BD2F
:104F70002046FFF7EFFF2046F9E7000008B50320C1
:104F8000ADF8000010208DF8030003208DF802001A
:104F900069462F4800F072F82E488088ADF800006E
:104FA00010208DF8030003208DF8020029490868BD
:104FB000694600F063F828488088ADF800001020AA
:104FC0008DF8030003208DF8020023490868694624
:104FD00000F054F821488088ADF8000010208DF8CA
:104FE000030003208DF802001C490868694600F0A0
:104FF00045F81A4A9188106800F0CBF81848808864
:10500000184989880843184989880843ADF8000081
:1050100010208DF8030002208DF8020069460C482C
:1050200000F02CF8114880881149898808431149FB
:1050300089880843ADF8000010208DF80300022095
:105040008DF8020069460C4800F018F808BD000011
:10505000000C01407C000020840000206C00002037
:10506000140100201C010020240100202C0100203C
:10507000340100203C010020001001402DE9F041E6
:10508000024600250026002000230024002791F876
:1050900003C00CF00F0591F803C00CF0100CBCF12C
:1050A000000F03D091F802C04CEA050591F800C04A
:1050B000BCF1000F31D0146800202BE04FF0010C40
:1050C0000CFA00F3B1F800C00CEA03069E4220D1AE
:1050D00083004FF00F0C0CFA03F7BC4305FA03FCF6
:1050E0004CEA040491F803C0BCF1280F06D14FF03C
:1050F000010C0CFA00FCC2F814C00AE091F803C0DD
:10510000BCF1480F05D14FF0010C0CFA00FCC2F8BD
:1051100010C0401C0828D1D31460B1F800C0BCF105
:10512000FF0F34DD546800202EE000F1080C4FF032
:10513000010808FA0CF3B1F800C00CEA03069E421D
:1051400021D183004FF00F0C0CFA03F7BC4305FA92
:1051500003FC4CEA040491F803C0BCF1280F05D10C
:1051600000F1080C08FA0CF8C2F8148091F803C09A
:10517000BCF1480F07D100F1080C4FF0010808FA04
:105180000CF8C2F81080401C0828CED35460BDE84B
:10519000F081416170470161704700000348007968
:1051A000022801DB012070470020FCE79803002063
:1051B0002DE9F04105460F464FF0030800F004FECC
:1051C0000446042D03DB4FF0FF30BDE8F08120469C
:1051D000E16888470EE00C4800EB05113A4620468E
:1051E000636A9847064606F1090010B9A8F101085C
:1051F00000E002E0B8F1000FEDD100BF20462169C8
:1052000088473046E1E70000C80B002010B505488C
:10521000006818B9FEF7FAFD024908600148006805
:1052200010BD00005C00002010B50548006818B9EA
:10523000FFF72CFD024908600148006810BD00001E
:105240005400002010B50548006818B9FFF712FE99
:10525000024908600148006810BD00006400002099
:1052600010B50548006818B9FFF74EFE02490860FE
:105270000148006810BD00006800002010B5054816
:10528000006818B9FFF76CFE024908600148006821
:1052900010BD00006000002010B50548006818B976
:1052A00001F01EFC024908600148006810BD0000C2
:1052B0005800002070B5002405257FE041A1454835
:1052C000FBF758F80A223C21424802F016FC42A1A2
:1052D0004048FBF728F804461CB100214148C17141
:1052E0006DE041A13B48FBF71EF804461CB10121CB
:1052F0003C48C17163E03FA13648FBF714F804460F
:105300001CB102213748C17159E03DA13148FBF77A
:105310000AF804461CB103213248C1714FE03BA199
:105320002C48FBF700F804461CB104212D48C1713C
:1053300045E039A12748FAF7F6FF04461CB10521DC
:105340002848C1713BE037A12248FAF7ECFF044638
:105350001CB106212348C17131E035A11D48FAF77F
:10536000E2FF04461CB107211E48C17127E032A1AB
:105370001848FAF7D8FF04461CB108211948C17132
:105380001DE02FA11348FAF7CEFF04461CB10921F6
:105390001448C17113E02DA10E48FAF7C4FF04466A
:1053A0001CB10A210F48C17109E035B1681E05B270
:1053B0004FF47A7006F07EFA00E000E07EE700BF6E
:1053C00070BD000041542B43495053544154555330
:1053D0000D0A0000B8030020495020494E495449A5
:1053E000414C00009803002049502053544152542E
:1053F00000000000495020434F4E4649470000003E
:1054000049502047505253414354000049502053C3
:105410005441545553000000434F4E4E45435449A8
:105420004E470000434F4E4E454354204F4B000023
:10543000434C4F53494E4700434C4F5345440000A3
:1054400050445020444541435400000049502050EE
:10545000524F43455353494E470000002DE9F04752
:105460008046894616461F46444600253946304642
:10547000FAF742FF15E049462046FAF754FF044682
:105480001CB94FF0FF30BDE8F08714F8010C20285C
:1054900006D14846FAF759FF205C3D2800D101E0CB
:1054A000641CE8E700BF4846FAF74FFF044405E0F4
:1054B0002078202801D1641C00E000E0F8E700BF5C
:1054C00020783D2802D04FF0FF30DCE7641C05E077
:1054D0002078202801D1641C00E000E0F8E700BF3C
:1054E00000250BE0605D7055681CC5B2605D20282A
:1054F00000D104E0B81EA84200DA00E0F2E700BFE5
:105500002846C0E72DE9F05F05468A4690461E46CC
:105510004FF0000BD946012030701BA12846FAF746
:1055200041FF044634B92878392802DC287830282D
:1055300000DA25E02F19B8F1000F06D100203070F5
:105540003846FAF779FF83461AE018E051463846A4
:10555000FAF728FF04462CB1601C074409F101004A
:105560001FFA80F9C14506D1002030703846FAF79D
:1055700063FF834604E00CB1387800B900E0E5E74A
:105580005846BDE8F09F00003031323334353637AD
:10559000383900002DE9F84F0446884600F014FC25
:1055A00005460026B1462846696E88470646002E05
:1055B0004BDA45A12068FAF7DDFE20462269216812
:1055C00090472846296A884740B148A1206803F0DF
:1055D000EFF920462269216890471DE04C48007B86
:1055E0000A2809DA4A490A7B4AA1206803F0E0F94F
:1055F00020462269216890474548408A40F6B831E4
:10560000884209DA42494A8A48A1206803F0D0F961
:10561000204622692168904700270CE04A4850F84C
:105620002700002806DA484850F82700414246483B
:1056300040F827107F1C042FF0DB05214046D8F8E6
:10564000102090470020BDE8F88F4048007870B3E4
:105650002846E96888472BE02846296E8847064691
:10566000002E1EDB384850F8260000903748643082
:1056700000EB861300F5887000EB86023146284661
:10568000D5F840C0E04760B92F482030FAF75DFEFA
:10569000824653462C4A203231462846D5F848C027
:1056A000E04709F10109B9F1040F01DD01E004E06F
:1056B000D2E700BF28462969884702214046D8F82A
:1056C000102090470020BEE75B434D4E5D204E6F9B
:1056D0006E6520636F6E6E6E6563742C20726563F9
:1056E0006F6E6E6563742E2E2E0000005B434D4E70
:1056F0005D206765745F73696D5F696E666F2073A7
:10570000696D206661696C656421202E2E2E000073
:10571000980300205B434D4E5D20626164207369F5
:10572000676E616C20256420212121005B434D4E72
:105730005D206C6F7720706F776572202025642064
:105740006D76202121210000780B0020140A002012
:1057500000B50246104603F011F90148906000BD03
:105760009555000810B5142005F03AFF04460CB911
:10577000002010BD2046FFF7EBFF2046F9E70000B0
:105780002DE9FC470546884600F01EFB064600242E
:105790004FF0010900275AA128462A6990470120A5
:1057A00001F046F93046F168884700F031FC94E09A
:1057B0005A4800EB84005949103951F82410CDE9BA
:1057C0000010574901EB8413224656A1286803F0C4
:1057D000EFF828462A69296890475048103850F851
:1057E000240000904E4800EB84134C4800EB8402E8
:1057F00021463046D6F840C0E0470746002F35D155
:1058000032E046481030FAF7A0FD82465346434A3C
:10581000103221463046D6F848C0E0470746E7B97F
:1058200049A128462A699047002001F001F93C4827
:105830006438007848B93A486438D0F8F811012043
:1058400008F0DEFA4FF0000906E0354A643A601CC1
:10585000D2F8F81108F0D4FA07E0381D20B93FA1BA
:1058600028462A69904700E0CBE72CE007F10F00BB
:1058700068B941A128462A6990474FF4FA6006F0BA
:1058800019F800214046D8F81020904734E007F17D
:105890000A00A0B922486438007840B11F48103887
:1058A00050F8240041421D48103840F824100420CC
:1058B00001F0BEF838A128462A69904703E03BA1D1
:1058C00028462A699047601C04B24FF4FA6005F03C
:1058D000F1FF042C01DB0024A146B9F1000F7FF495
:1058E00067AF00F096FB304631698847012140469A
:1058F000D8F81420904700BF0020BDE8FC870000C6
:105900005B434E4E5D6770727320636E6E656374A9
:10591000207374617465200D0A000000880B00205C
:10592000780A00205B434E4E5D20636E6E6E6563A9
:1059300074204443203A25642C25732C25642C259F
:1059400073202E2E2E0000005B434E4E5D2073759B
:10595000636365656420210A000000005B434E4ECE
:105960005D2063616E206E6F742073656E642064C9
:1059700061746120210A00005B434E4E5D20534953
:105980004D20636172642063616E206E6F742077B6
:105990006F726B210A0000005B434E4E5D20416434
:1059A0006472206572726F7220210A005B434E4E52
:1059B0005D20636F6E6E656374206661696C6564FB
:1059C0000A00000000B50246104602F0D7FF014869
:1059D000906000BD8157000810B5142005F000FE4E
:1059E00004460CB9002010BD2046FFF7EBFF20460F
:1059F000F9E700002DE9FE4F04460D4600F0E4F9FA
:105A00000646A4F10408002002900027824683463F
:105A1000019098F80000FEF74BFD8146012001F04F
:105A200007F8052128466A6990473948007838B157
:105A300037480078401E364908700020BDE8FE8FC8
:105A400034A1204622699047FF2031490870304632
:105A5000F168884755E0B4F90400029040213548C8
:105A6000FAF74AFC02A8009023681A4631493046EA
:105A7000D6F828C0E0478246BAF1000F34DB002098
:105A800023490870002727E02B4800EB071129481D
:105A900003F0BEFAF0B901972068D8F8181001ABEE
:105AA000264AD1F800C00299E0478346BBF1000FB7
:105AB00008D02068D8F81C1000231A46D1F800C07E
:105AC0000299E0472268D9F804C039464846029B4B
:105AD000E04703E0781C07B2042FD5DB00BF514636
