:020000040800F2
:10000000884C002041020008490200084B02000809
:100010004D0200084F0200085102000800000000D5
:10002000000000000000000000000000790100084E
:100030005502000800000000F10100082D02000830
:100040005B0200085B0200085B0200085B0200081C
:100050005B0200085B0200085B0200085B0200080C
:100060005B0200085B0200085B020008C13E00085A
:10007000013F00085B0200085B0200085B02000809
:100080003D3F0008C13F00085B0200085B0200081A
:100090005B0200085B0200085B0200085B020008CC
:1000A0005B0200085B0200085B0200085B020008BC
:1000B000817300085B0200085B0200085B02000815
:1000C0005B0200085B0200085B020008556F000835
:1000D0005B0200085B0200085177000839780008CD
:1000E0005B0200085B0200085B020008DFF81CD01E
:1000F00000F05AFD0AF04EFE002103480AF0FEFE11
:100100000AF05AFEFEE7000020020020884C002082
:1001100080F309887047EFF309807047684680F3E1
:10012000098804480078C00714BF0220032080F328
:100130001488704724F40008DFF818C0EFF3058333
:100140001B0618BF6047EFF31483DB0708BF604747
:1001500000DF704741BF0008DFF818C0EFF30583E8
:100160001B0618BF6047EFF31483DB0708BF604727
:1001700000DF704725C10008EFF30980816911F89D
:10018000021CF1B990E80F10E047EFF3098C8CE8FE
:100190000700144B93E8060091420FD039B12CE9C7
:1001A000F00FC1F828C00CB40CF0A6FB0CBC1A6010
:1001B000D2F828C0BCE8F00F8CF309886FF0020E6B
:1001C000704710B5084A1268914209D8074C54F894
:1001D000214090E80F10A047EFF3098C8CE80F0046
:1001E00010BD00004C020020E40C0008E40C0008E4
:1001F0000CF018FA0C4B93E80600914210D0EFF384
:10020000098C2CE9F00FC1F828C00CB40CF074FB79
:100210000CBC1A60D2F828C0BCE8F00F8CF3098837
:100220006FF0020E704700004C0200200CF02CFC16
:10023000E0E700000AF0DEFE0CF026FCDAE7000042
:100240000648804706480047FEE7FEE7FEE7FEE770
:10025000FEE7FEE7FEE7FEE7FEE7FEE715730008B0
:10026000ED0000082DE9F05F0546002092469B4610
:1002700088460646814640241BE0284641464746BC
:10028000224600F0A2FB53465A46C01A914110D3B1
:1002900011461846224600F089FB2D1A67EB01082B
:1002A0004F4622460120002100F080FB17EB000999
:1002B0004E41201EA4F10104DFDC484631462A46A7
:1002C0004346BDE8F09F40EA01039B0703D009E0E5
:1002D00008C9121F08C0042AFAD203E011F8013B32
:1002E00000F8013B521EF9D27047D2B201E000F88B
:1002F000012B491EFBD270470022F6E710B51346CA
:100300000A4604461946FFF7F0FF204610BD421E7C
:1003100012F8013F002BFBD111F8013B02F8013B21
:10032000002BF9D1704730B505462A460B4612F826
:10033000010B13F8014B08B1A042F8D01CB1002802
:1003400002D06D1CF1E7284630BD421C10F8011B9D
:100350000029FBD1801A704710B5002200E0521C22
:10036000835C8C5CA34201D1002BF8D1D8B2E1B2FE
:10037000401A10BD034611F8012B00F8012B002A8A
:10038000F9D11846704730B505460020034600E015
:100390005B1C934205D2EC5CC85C201A01D1002C96
:1003A000F6D130BD30B50546002008E00A4602E02F
:1003B000A34207D0521C1378002BF9D1401C2C5CAF
:1003C000002CF3D130BD70B5064607F0E7FD046898
:1003D00005460A220021304600F019FB2C6070BD52
:1003E000F0B480EA0102D40F4200B2EB410F02D216
:1003F0000246084611464A0042D0C30DDDB2C1F3A1
:10040000C752AD1A202D35DAC1F3160141F40002AE
:1004100004B15242C5F1200602FA06F12A41104405
:10042000B3EBD05F23D0C4B1012DA0EBC35009DCE6
:10043000F0BC4FF0004202EAC352DBB200F500000C
:1004400000F026BB400000F1807000EBC350A0F12B
:10045000807040EAD170490009E0490841EAC07162
:10046000A0EBC35000F50000400800EBC350F0BC07
:1004700000F005BB6142012202EB4101001BF6E7DF
:10048000F0BC704781F00041AAE780F00040A7E788
:1004900080EA010210B502F00043400022D04A0079
:1004A0001FD0010E01EB1261C0F35600C2F35602D9
:1004B00040F4000042F40002A0FB022000047F3957
:1004C000140400D0401C50EA124001D44000491EE0
:1004D000C2B20C0604EBD010401C4008802A02D0A7
:1004E00003E0002010BD20F00100002900DA002008
:1004F000184310BD30B480EA010202F0004530F02C
:10050000004221F0004013D090B1C30DD40DC2F3CE
:100510001601C0F31600E41A41F4000140F4000291
:100520007D34914201D3641C00E04900002C02DAC2
:1005300030BC002070474FF400000023914201D3EB
:10054000891A034340084FEA4101F7D151B1914262
:1005500002D14FF0004105E002D24FF0010101E06D
:100560006FF0010103EBC450284430BC00F087BA9F
:100570002DE9FE4F804681EA0300C00F0C46009033
:1005800021F0004123F00045B8EB0200A94105D25B
:100590004046214690461C460B46024623F000404A
:1005A000104347D0270DC7F30A00C3F30A51029046
:1005B000401A019040286BDAC3F3130040F4801B0B
:1005C0000098924620B10023D2EB030A63EB0B0B99
:1005D00001985946C0F14002504600F0E7F906463E
:1005E0000D4650465946019A00F0FFF910EB0800FD
:1005F0006141002487EA115284EAE7731A4340D02C
:10060000009A62B3019A012A4FEA075215DC001BD7
:1006100061EB02014FF0004202EA0752CDE90042CD
:10062000001C41F5801132462B4600F06EFA03B0F3
:10063000BDE8F08F40462146F9E7001B61EB02015F
:10064000001C41F5801300185B412018A2F500172B
:1006500047EB030140EAD570B6196D4111E06D0812
:100660004FEA360645EAC0754FEA0752001B61EBB8
:100670000201001C41F5801149084FEA30000019C1
:10068000514132462B4603B0BDE8F04F00F02EBA80
:100690000098012240000023D0EB020263EBE073DC
:1006A000009821464FEAE074B8EB000061EB0401CA
:1006B000E9E783F000435BE781F0004158E72DE96B
:1006C000FE4F81EA030404F0004421F0004100944D
:1006D0004FF0000B23F0004350EA01045ED052EAD1
:1006E00003045BD0C3F30A54C1F30A552C44A4F2AB
:1006F000F3340194A0FB0254C1F3130141F48011BF
:10070000C3F3130343F4801301FB024400FB034EC5
:10071000840A970A44EA815447EA8357A4FB07688E
:1007200002958D0A05FB07854FEA932C04FB0C54B8
:100730002705029D4FEA065847EA1637B5EB08052C
:100740006EEB070C870E920E47EA811742EA83127E
:10075000A7FB0201B6EB0B0164EB00042B0D43EA8F
:100760000C335E1844EB1C50DA465146E7FB02019D
:10077000C5F313044FEA0B3343EA14534FEA043230
:10078000019C43EA0603A4F10C040294009CCDE909
:1007900000B400F0BAF903B0BDE8F08F00200146C4
:1007A000F9E72DE9F04D81EA030404F0004B21F054
:1007B000004514464FF0000A23F0004150EA0502BC
:1007C00020D054EA01021DD0C5F30A570246C5F3F2
:1007D0001303C1F31300C1F30A5640F4801543F428
:1007E0008013A7EB0608101BD64608F2FD3873EB02
:1007F000050002D308F1010801E092185B41B8F14D
:10080000000F03DA00200146BDE8F08D00204FF410
:100810008011064684460EE0171B73EB050705D3CF
:10082000121B63EB050306434CEA010C49084FEA2F
:10083000300092185B4150EA0107EDD152EA030003
:1008400012D082EA040083EA0501084305D0101B98
:10085000AB4106D20122002306E000224FF0004304
:1008600002E06FF0010253101AEB06004CEB085146
:1008700010EB0A0041EB0B01BDE8F04D00F036B97A
:10088000C10F80EAE0700844CA079623002100F0F7
:10089000FFB896230022114600F0FAB820F000407D
:1008A000C10DC0F3160040F400007F2901DA0020DA
:1008B0007047962903DCC1F19601C840704796390C
:1008C0008840704700F0004230F000400AD0C10D6F
:1008D00001F56071C0F3160042EA0151C2084007F9
:1008E00011437047002001467047000030B5041ED8
:1008F00071F1000404DB4FF00044404264EB01015D
:10090000141E73F1000405DB1C464FF000435242F5
:1009100063EB04038B4208BF824230BD30B5041E36
:1009200071F1000404DB4FF00044404264EB01012C
:10093000141E73F1000405DB1C464FF000435242C5
:1009400063EB0403994208BF904230BD01F00043BD
:1009500030B421F0004150EA010206D00A0DA2F5A0
:100960006072C1F31301002A02DC30BC0020704722
:10097000440F44EAC104C100E01830BC00EBC2508F
:1009800000F07DB8002801DBC0F10040002901DB48
:10099000C1F1004181427047002801DBC0F10040F5
:1009A000002901DBC1F1004188427047202A04DBA5
:1009B000203A00FA02F1002070479140C2F1200372
:1009C00020FA03F3194390407047202A04DB203AB1
:1009D00021FA02F00021704721FA02F3D040C2F15F
:1009E00020029140084319467047202A06DBCB17A6
:1009F000203A41FA02F043EAE07306E041FA02F3DA
:100A0000D040C2F1200291400843194670472DE9B9
:100A1000F04791460F4680460446002614F8015BD5
:100A20002DB100F0D3F80068405DC007F6D12B2D42
:100A300002D02D2D18D0641E4A463946204600F0BB
:100A4000C9F827B13968A14201D1C7F80080710502
:100A50004FF002040BD54042002803DD07F09EFA58
:100A60000460A007BDE8F08746F48066E4E700284C
:100A7000F8DA07F093FA04606FF00040F2E700291B
:100A8000A8BF7047401C490008BF20F00100704714
:100A900010B4B0FA80FC00FA0CF050EA010404BF74
:100AA00010BC704749B1CCF1200421FA04F411FACA
:100AB0000CF118BF012121430843A3EB0C01CB1D0E
:100AC0004FEA00614FEA102042BF002010BC70477F
:100AD00000EBC35010440029A4BF10BC7047401C59
:100AE000490008BF20F0010010BC704710B5141E6B
:100AF00073F1000408DA401C41F1000192185B41D7
:100B00001A4301D120F0010010BD2DE9F04D9246AD
:100B10009B4611B1B1FA81F202E0B0FA80F22032C4
:100B20009046FFF743FF04460F4640EA0A0041EAB9
:100B30000B0153465A46084313D0114653EA0100AD
:100B400019D0C8F140025046FFF73FFF05460E4658
:100B5000504659464246FFF729FF084305D0012079
:100B600004E020463946BDE8F08D0020054346EA02
:100B7000E0762C4337430A986305E40AA0EB0800AB
:100B80000022FD0A44EA47540A3002D500200146FB
:100B9000E9E7010510196941DDE9084500196941D6
:100BA000BDE8F04DA2E70000064C074D06E0E06806
:100BB00040F0010394E8070098471034AC42F6D3A4
:100BC000FFF798FAE8F4000808F5000800487047B5
:100BD000E4F400082DE9F05F82460078002715460E
:100BE0008B460AF10104B946302801D09DB113E0CB
:100BF00014F8010B0127782803D0582801D045B1FB
:100C00000AE00DB1102D07D10027102514F8010BB3
:100C100002E0082500E00A250026B0460EE005FBAC
:100C2000080005FB06F1012701EB10461FFA80F8CA
:100C3000B6F5803F00D3B94614F8010B294600F001
:100C400018F80028EBDABBF1000F05D00FB1641ED5
:100C500000E05446CBF80040B9F1000F06D007F091
:100C60009DF902210160C81EBDE8F09F48EA0640D8
:100C7000FAE73A2800D2303820F02002412A01D386
:100C8000A2F13700884201D34FF0FF30704770B5B2
:100C90008C1810F8015B15F0070301D110F8013B27
:100CA0002A1106D110F8012B03E010F8016B01F8AE
:100CB000016B5B1EF9D12B0705D40023521E0DD406
:100CC00001F8013BFAE710F8013BCB1A921C03E054
:100CD00013F8015B01F8015B521EF9D5A142D8D38C
:100CE000002070BD0000000010B5044613480068E5
:100CF00048B1C4EBC400124A02EBC0004168204670
:100D00000E4A126890470F48006848B1C4EBC4000F
:100D10000B4A02EBC000018920460A4A126890473C
:100D20000948006848B1C4EBC400054A02EBC000A2
:100D300081782046044A1268904710BDE0010020E7
:100D400038150020E4010020E801002010B5012141
:100D5000034800F0BAF80121014800F003F810BD83
:100D60000024014021B1826842F00102826003E068
:100D7000826822F001028260704721B1826842F4E9
:100D80008072826003E0826822F480728260704721
:100D9000014600208A6802F004020AB1012000E046
:100DA00000207047014600208A6802F008020AB15C
:100DB000012000E00020704730B5024600200023EB
:100DC00050680F4C20400D790C6844EA05242043FC
:100DD000506090680B4C2040D1E902542C434D796F
:100DE00044EA450420439060D06A20F470000C7CF3
:100DF000641EE4B2234340EA0350D06230BD0000D9
:100E0000FFFEF0FFFDF7F1FFF0B504460D460020B0
:100E10000021092D11DDE068A5F10A0606EB460761
:100E2000072606FA07F18843A5F10A0606EB4606EF
:100E300003FA06F10843E0600CE0206905EB450782
:100E4000072606FA07F1884305EB450603FA06F183
:100E500008432061072A0FDA606B561E06EB8607EF
:100E60001F2606FA07F18843561E06EB860605FA8A
:100E700006F10843606322E00D2A0FDA206BD61FCB
:100E800006EB86071F2606FA07F18843D61F06EBF6
:100E9000860605FA06F10843206310E0E06AA2F135
:100EA0000D0606EB86071F2606FA07F18843A2F116
:100EB0000D0606EB860605FA06F10843E062F0BD72
:100EC000816841F008018160704721B1826842F475
:100ED000A002826003E0826822F4A0028260704770
:100EE000816841F004018160704700210160017157
:100EF00041718160C16001210174704710B50146E4
:100F0000CAB20B1243EA022010BD000070B50246BF
:100F10000C46FF25FF2309E012F8010B80EA0501CA
:100F20000648405C80EA03050548435C2000A4F1C4
:100F30000106B4B2F0D143EA052070BD0CF20008FE
:100F40000CF3000801B592B0129830B101287DD0A1
:100F5000022842F0F18601F059BF1298C0EBC000A0
:100F6000FE4911F83000082871D0092870D00A28ED
:100F700002D00B286DD100E000BF1298C0EBC0007A
:100F8000F64901EBC000808C0290FFF782FC0390D1
:100F9000FFF798FC0022F24BCDE90401FFF701FCBA
:100FA000CDE90601FFF7D2FC0F901298C0EBC0010B
:100FB000EA4800EBC100B0F926000290FFF760FCA0
:100FC0000390FFF77FFC0022E64BCDE90401FFF719
:100FD000E8FBCDE90601FFF7B9FC0E90129800EB93
:100FE0004000E14901EB800000890390FFF751FCCC
:100FF0000590129800EB4000DB4901EB8000C088AF
:101000000390FFF746FC04900599FFF73BFA079021
:10101000129800EB4000D44901EB80000089039056
:10102000FFF737FC0590129800EB4000CE4931F8ED
:1010300020000390FFF72DFC04900599FFF722FA9A
:1010400006900799FFF756FA0D9003E0FDE315E3CC
:1010500015E3FBE30F990D98FFF71AFA07900E9925
:10106000FFF7BEF90A900A98FFF72CFCBF4AC04B65
:10107000CDE90601FFF73AFC01D200200A90BD48F5
:101080000068FFF71FFC0022BB4BCDE90601FFF70C
:1010900045FC02D20020B74908601298C0EBC0009E
:1010A000AE4911F830000A280DD1B2480068FFF7A8
:1010B00009FCAE4AAE4BCDE90601FFF717FC02D2A0
:1010C0000020AC4908601298C0EBC000A34911F899
:1010D00030000B280ED1A7480068FFF7F3FBA34AA6
:1010E000A34BCDE90601FFF701FC03D24FF07E5080
:1010F000A0490860A1490A98FFF7CAF909909F49D9
:101100009C480068FFF7C4F90890DDE90810FFF774
:10111000B9F99B490790FFF73FFC02D895490A9817
:101120000860DDE90801FFF7ADF995490790FFF781
:1011300033FC02D88F490A980860DDE90801FFF7FF
:10114000A1F90590FFF7BEFB8E4A8F4BCDE9060152
:10115000FFF7CCFB07D800210A98FFF713FC02D158
:1011600084490A980860DDE90810FFF78BF90590BB
:10117000FFF7A8FB834A844BCDE90601FFF7B6FBD6
:1011800007D800210A98FFF7FDFB02D179490A9898
:10119000086078480068FFF795FB7C4A7C4BCDE9F6
:1011A0000001FFF78CFACDE904010A98FFF78AFBEA
:1011B000744A784BCDE90001FFF781FACDE90201CD
:1011C000DDE90423FFF7D4F9CDE90601FFF7BEFB03
:1011D0000A906B490A98FFF7D5FB0CD20A98FFF7E3
:1011E00071FB624A624BCDE90601FFF797FB02D221
:1011F00060490A980860129800EB40005A4931F89B
:101200002010129800EB4000574A02EB8000008942
:10121000A0F5007081420BDA00200A905549086061
:1012200001211298C0EBC0004C4A02EBC000817053
:101230001298C0EBC000494911F830000B2814D1B6
:101240000A98FFF73FFB0022534BCDE90601FFF759
:101250004DFB0AD24FF07E500A9001211298C0EB4C
:10126000C0003E4A02EBC00081704C490A98FFF76B
:1012700041F94B490790FFF70BF910904849109836
:10128000FFF78AFB01D2464810900A98FFF71AFB35
:101290000022444BCDE90601FFF740FB01D23F4855
:1012A0000A901298C0EBC0012C4810F831000A28AF
:1012B00053D11298C0EBC000284901EBC000C1898E
:1012C0001298C0EBC000254A02EBC000008A081A41
:1012D0000190FFF7D5FA002103901098FFF7D2F89C
:1012E00002900399FFF7D4F82D490490FFF702F913
:1012F00006901298C0EBC001184800EBC100008AAC
:101300000490FFF7C6FA05900699FFF769F8079071
:10131000FFF7C4FA81B21298C0EBC0000F4A02EB8B
:10132000C00001811299C1EBC10102EBC1010A9811
:1013300048601298C0EBC000114601EBC000018963
:101340001298C0EBC00002EBC000408A81422EDB45
:1013500002211298C0EBC00026E0A0E03815002062
:1013600000408F40006AF840E0150020FCA9F1D24F
:101370004D62403FC00100200000244000007A443C
:10138000000020419A9999999999C93FCDCCCCCC2C
:10139000CCCCEC3F9999B93F0000F03F0000A04051
:1013A0000060EA460000144002EBC0008170129811
:1013B000C0EBC000FE4901EBC00001891298C0EBF0
:1013C000C000FB4A02EBC000C089814206DB042159
:1013D0001298C0EBC00002EBC00081701298C0EB05
:1013E000C000F34901EBC00001891298C0EBC000B6
:1013F000EF4A02EBC000808A814206DC032112988A
:10140000C0EBC00002EBC00081701298C0EBC000BE
:10141000E74901EBC00001891298C0EBC000E44A23
:1014200002EBC000008A814206DC05211298C0EB65
:10143000C00002EBC00081701298C0EBC000DC4914
:1014400001EBC00001891298C0EBC000D84A02EB42
:10145000C000408AA0F28F20814206DA0021129853
:10146000C0EBC00002EBC00081701298C0EBC0005E
:10147000CF4901EBC00001891298C0EBC000CC4AF3
:1014800002EBC000808A00F28F20814206DD00213D
:101490001298C0EBC00002EBC0008170EDE0129822
:1014A000C0EBC000C24911F830000B28F6D10A98F1
:1014B000FFF708FA0022BF4BCDE90601FFF716FA45
:1014C00005D24FF07E500A90BB48109008E0BB490F
:1014D0001098FFF761FA03D2B8481090B8480A9004
:1014E0001298C0EBC000B24901EBC000C18912984C
:1014F000C0EBC000AE4A02EBC000008A081A01909F
:10150000FFF7BEF9AC4903901098FEF7BBFF0290BD
:101510000399FEF7BDFFAB490490FEF7EBFF069081
:101520001298C0EBC001A24800EBC100008A0490F1
:10153000FFF7AFF905900699FEF752FF0790FFF706
:10154000ADF981B21298C0EBC000994A02EBC0001D
:1015500001811299C1EBC10102EBC1010A984860F7
:101560001298C0EBC000114601EBC000018912982F
:10157000C0EBC00002EBC000408A814206DB0221C2
:101580001298C0EBC00002EBC00081701298C0EB53
:10159000C000874901EBC00001891298C0EBC00070
:1015A000834A02EBC000C089814206DB0421129805
:1015B000C0EBC00002EBC00081701298C0EBC0000D
:1015C0007B4901EBC00001891298C0EBC000784A4A
:1015D00002EBC000808A814206DC03211298C0EB36
:1015E000C00002EBC00081701298C0EBC0007049CF
:1015F00001EBC00001891298C0EBC0006C4A02EBFD
:10160000C000008A814206DC05211298C0EBC000B0
:1016100002EBC00081701298C0EBC000644901EB7E
:10162000C00001891298C0EBC000614A02EBC00003
:10163000408AA0F28F20814206DA00211298C0EB86
:10164000C00002EBC00081701298C0EBC000584986
:1016500001EBC00001891298C0EBC000544A02EBB4
:10166000C000808A00F28F20814206DD002112989E
:10167000C0EBC00002EBC0008170FDE300BF129818
:10168000C0EBC0004A4901EBC000008D0690FFF797
:1016900000F94D490790FEF72DFF0F901298C0EB0F
:1016A000C000434901EBC000B0F92A000790FFF7E2
:1016B000E7F80E90129800EB4000444901EB8000DF
:1016C00000890390FFF7E5F80590129800EB4000C1
:1016D0003E4901EB8000C0880390FFF7DAF80490E0
:1016E0000599FEF7CFFE0790129800EB40003749AE
:1016F00001EB800000890390FFF7CBF8059012986A
:1017000000EB4000314931F820000390FFF7C1F8A9
:1017100004900599FEF7B6FE06900799FEF7EAFEDB
:101720000D90129800EB4000284901EB80000089E1
:101730000390FFF7AEF80590129800EB40002349A4
:1017400001EB8000C0880390FFF7A3F8049005998F
:10175000FEF798FE0790129800EB40001B4901EB42
:10176000800000890390FFF794F80590129800EB31
:101770004000164901EB800040880390FFF789F88C
:1017800004900599FEF77EFE06900799FEF7B2FEDB
:101790000C901298C0EBC000054901EBC000B0F9F5
:1017A00026000490FFF76CF80949059012E000004C
:1017B000381500200000F03F0080BB450060EA467D
:1017C0000000A0400080BB460000C842E015002099
:1017D0000050C347FEF78EFE07901298C0EBC00082
:1017E000FE4901EBC000808C0390FFF752F8FC49E2
:1017F0000490FEF77FFE05900D99FEF749FE0690D6
:101800000799FEF7EDFD0B901298C0EBC000F3496D
:1018100001EBC000B0F926000490FFF731F8F14960
:101820000590FEF767FE07901298C0EBC000EB49E9
:1018300001EBC000808C0390FFF72BF8E84904907F
:10184000FEF758FE05900C9901E02EE329E3FEF720
:101850001FFE06900799FEF7C3FD0A90DDE90A1006
:10186000FEF710FE0690E04801680698FEF742FE7B
:10187000DB490790FEF70CFEDC490860DDE90A1041
:10188000FEF700FE06900F99FEF734FED44907904C
:10189000FEF7FEFD0A900A98FFF714F8D44AD54BDC
:1018A000CDE90601FFF722F801D200200A90129834
:1018B000C0EBC000C94911F8300008280DD1CE484E
:1018C0000068FEF7FFFFCA4ACA4BCDE90601FFF7E1
:1018D0000DF802D20020C8490860C1490A98FEF7F5
:1018E000D7FD0990BE49C4480068FEF7D1FD0890B5
:1018F000DDE90810FEF7C6FDC0490790FFF74CF878
:1019000002D8BD490A980860DDE90801FEF7BAFD72
:10191000BA490790FFF740F802D8B7490A9808601B
:10192000DDE90801FEF7AEFD0590FEF7CBFFB44AF6
:10193000B44BCDE90601FEF7D9FF07D800210A987C
:10194000FFF720F802D1AC490A980860DDE90810D9
:10195000FEF798FD0590FEF7B5FFA94AA94BCDE922
:101960000601FEF7C3FF07D800210A98FFF70AF81F
:1019700002D1A1490A9808609F480068FEF7A2FFBB
:10198000A14AA24BCDE90001FEF799FECDE9040181
:101990000A98FEF797FF9A4A9D4BCDE90001FEF7A2
:1019A0008EFECDE90201DDE90423FEF7E1FDCDE97C
:1019B0000601FEF7CBFF0A9096490A98FEF7E2FF70
:1019C0000CD20A98FEF77EFF894A8A4BCDE90601C0
:1019D000FEF7A4FF02D288490A9808601298C0EB6B
:1019E000C0007E4911F83000092818D182480068EB
:1019F000FEF768FF884A894BCDE90601FEF776FFBE
:101A00000DD24FF081400A9000207B4908600121EF
:101A10001298C0EBC000714A02EBC000817080498F
:101A20000A98FEF767FD7F490790FEF731FD109099
:101A30007C491098FEF7B0FF01D27A4810900A98BE
:101A4000FEF740FF0022784BCDE90601FEF766FF66
:101A500001D273480A901298C0EBC0005F4911F898
:101A6000300008287ED171491098FEF795FF03D207
:101A70006E4810906E480A900A98FEF723FF0022E5
:101A80006C4BCDE90601FEF749FF03D268480A9086
:101A9000664810901298C0EBC000504901EBC0009E
:101AA000C1891298C0EBC0004C4A02EBC000008A0A
:101AB000081A0190FEF7E4FE002103901098FEF74B
:101AC000E1FC02900399FEF7E3FC58490490FEF70D
:101AD00011FD06901298C0EBC000404901EBC00018
:101AE000008A0490FEF7D5FE05900699FEF778FC73
:101AF0000790FEF7D3FE81B21298C0EBC000374AC0
:101B000002EBC00001811299C1EBC10102EBC101DE
:101B10000A9848601298C0EBC000114601EBC00063
:101B200001891298C0EBC00002EBC000408A8142DC
:101B300006DB02211298C0EBC00002EBC0008170EE
:101B40001298C0EBC000254901EBC0000189129832
:101B5000C0EBC000214A02EBC000C089814208DB13
:101B6000042100E095E01298C0EBC00002EBC00039
:101B700081701298C0EBC001184800EBC1000189C8
:101B80001298C0EBC000154A02EBC000808A814267
:101B900006DC03211298C0EBC00002EBC00081708C
:101BA0001298C0EBC0000D4901EBC00001891298EA
:101BB000C0EBC000094A02EBC000008A814206DC8B
:101BC00005211298C0EBC00002EBC0008170129892
:101BD000C0EBC000014901EBC0002DE0381500202A
:101BE00000007A440050C347D0010020CC010020FF
:101BF000FCA9F1D24D62403FC001002000004842E4
:101C00009A9999999999C93FCDCCCCCCCCCCEC3F41
:101C10009999B93F0000F041AE47E17A14AE0F4008
:101C20000000A0410060EA460000344000606A46BF
:101C3000000020410000244001891298C0EBC00040
:101C4000FE4A02EBC000408AA0F28F20814206DAF1
:101C500000211298C0EBC00002EBC0008170129806
:101C6000C0EBC000F54901EBC00001891298C0EB40
:101C7000C000F24A02EBC000808A00F28F2081424D
:101C800006DD00211298C0EBC00002EBC00081709D
:101C900006E11298C0EBC000E84911F830000928AD
:101CA000F6D1E7491098FEF76DFE05D2E448109092
:101CB0004FF081400A9008E0E2491098FEF76CFE70
:101CC00003D2E0481090E0480A900A98FEF7FAFD27
:101CD0000022DE4BCDE90601FEF708FE05D24FF0EB
:101CE00081400A90D64810900BE00A98FEF7EAFD72
:101CF0000022D74BCDE90601FEF710FE01D2D148F4
:101D000010901298C0EBC000CC4901EBC000C18913
:101D10001298C0EBC000C94A02EBC000008A081A42
:101D20000190FEF7ADFDC64903901098FEF7AAFB9F
:101D300002900399FEF7ACFBC6490490FEF7DAFB6C
:101D400006901298C0EBC000BC4901EBC000008AAD
:101D50000490FEF79EFD05900699FEF741FB079063
:101D6000FEF79CFD81B21298C0EBC000B34A02EBB3
:101D7000C00001811299C1EBC10102EBC1010A98B7
:101D800048601298C0EBC000114601EBC000018909
:101D90001298C0EBC00002EBC000408A814206DB13
:101DA00002211298C0EBC00002EBC00081701298B3
:101DB000C0EBC000A14901EBC00001891298C0EB43
:101DC000C0009E4A02EBC000C089814206DB0421AC
:101DD0001298C0EBC00002EBC00081701298C0EBFB
:101DE000C000964901EBC00001891298C0EBC00009
:101DF000924A02EBC000808A814206DC03211298DD
:101E0000C0EBC00002EBC00081701298C0EBC000B4
:101E10008A4901EBC00001891298C0EBC000874AD3
:101E200002EBC000008A814206DC05211298C0EB5B
:101E3000C00002EBC00081701298C0EBC0007F4967
:101E400001EBC00001891298C0EBC0007B4A02EB95
:101E5000C000408AA0F28F20814206DA0021129849
:101E6000C0EBC00002EBC00081701298C0EBC00054
:101E7000724901EBC00000E014E001891298C0EB48
:101E8000C0006E4A02EBC000808A00F28F208142BF
:101E900006DD00211298C0EBC00002EBC00081708B
:101EA00000E000BF00BF01F048BF1298C0EBC000C7
:101EB000624911F8300008287ED009287DD00A2810
:101EC00002D00B287AD100E000BF1298C0EBC0000E
:101ED0005A4901EBC000808C0690FEF7DAFC5E499F
:101EE0000790FEF707FB0F901298C0EBC000534914
:101EF00001EBC000B0F926000690FEF7C1FC57497F
:101F00000790FEF7F7FA0E90129800EB4001544844
:101F100000EB810000890390FEF7BBFC059012984E
:101F200000EB40004E4901EB8000C0880390FEF7B3
:101F3000B0FC04900599FEF7A5FA0790129800EB03
:101F40004000474901EB800000890390FEF7A1FCA7
:101F50000590129800EB4000414931F820000390B1
:101F6000FEF797FC04900599FEF78CFA0690079906
:101F7000FEF7C0FA0D900F990D98FEF789FA0790B9
:101F80000E99FEF72DFA0A900A98FEF79BFC354A47
:101F9000354BCDE90601FEF7A9FC01D200200A90DD
:101FA00032480068FEF78EFC0022314BCDE9060175
:101FB000FEF7B4FC06D202E010E310E3FEE30020DB
:101FC0002A4908601298C0EBC0011C4810F8310083
:101FD0000A280DD125480068FEF774FC214A224BDF
:101FE000CDE90601FEF782FC02D200201F490860FD
:101FF0001298C0EBC000114911F830000B280ED127
:102000001A480068FEF75EFC164A174BCDE9060138
:10201000FEF76CFC03D24FF07E50144908600E4965
:102020000A98FEF735FA09900B4910480068FEF748
:102030002FFA0890DDE908101CE000003815002098
:102040000080BB450060EA460000A041000010404F
:10205000000034400080BB4600007A440050C34773
:10206000E0150020FCA9F1D24D62403FC4010020E0
:1020700000002440FEF706FAFE490790FEF78CFCAC
:1020800002D8FD490A980860DDE90801FEF7FAF96F
:10209000F8490790FEF780FC02D8F7490A980860D3
:1020A000DDE90801FEF7EEF90590FEF70BFCF34AB7
:1020B000F34BCDE90601FEF719FC07D800210A9879
:1020C000FEF760FC02D1EC490A980860DDE90810CF
:1020D000FEF7D8F90590FEF7F5FBE84AE84BCDE9A5
:1020E0000601FEF703FC07D800210A98FEF74AFC18
:1020F00002D1E1490A980860DF480068FEF7E2FB78
:10210000E04AE14BCDE90001FEF7D9FACDE904013F
:102110000A98FEF7D7FBD94ADC4BCDE90001FEF760
:10212000CEFACDE90201DDE90423FEF721FACDE97B
:102130000601FEF70BFC0A90CE490A98FEF722FC36
:102140000CD20A98FEF7BEFBD14AD24BCDE906016C
:10215000FEF7E4FB02D2C8490A980860129800EB27
:102160004000CD4931F82010129800EB4000CA4AD7
:1021700002EB80000089A0F5007081420BDA00209C
:102180000A90BD49086001211298C0EBC000C34A03
:1021900002EBC00081701298C0EBC000BF4911F87B
:1021A00030000B2814D10A98FEF78CFB0022BC4BA0
:1021B000CDE90601FEF79AFB0AD24FF07E500A9055
:1021C00001211298C0EBC000B44A02EBC00081703C
:1021D000B4490A98FEF78EF9B3490790FEF758F90B
:1021E0001090B1491098FEF7D7FB01D2AE4810907D
:1021F0000A98FEF767FB0022AC4BCDE90601FEF71B
:102200008DFB01D2A7480A901298C0EBC000A349E9
:1022100011F830000A287DD11298C0EBC00001EB04
:10222000C000C1891298C0EBC0009C4A02EBC000FC
:10223000008A081A0190FEF723FB002103901098F2
:10224000FEF720F902900399FEF722F996490490CF
:10225000FEF750F906901298C0EBC0018F4800EBD2
:10226000C100008A0490FEF714FB05900699FEF762
:10227000B7F80790FEF712FB81B21298C0EBC000CE
:10228000864A02EBC00001811299C1EBC10102EB49
:10229000C1010A9848601298C0EBC000114601EBDA
:1022A000C00001891298C0EBC00002EBC000408A58
:1022B000814206DB02211298C0EBC00002EBC00095
:1022C00081701298C0EBC000744901EBC000018915
:1022D0001298C0EBC000714A02EBC000C089814275
:1022E00006DB04211298C0EBC00002EBC000817035
:1022F0001298C0EBC000694901EBC0000189129837
:10230000C0EBC000654A02EBC000808A814208DC55
:10231000032100E04FE01298C0EBC00002EBC000C8
:1023200081701298C0EBC0005C4901EBC0000189CC
:102330001298C0EBC000594A02EBC000008A8142EB
:1023400006DC05211298C0EBC00002EBC0008170D2
:102350001298C0EBC000514901EBC00001891298EE
:10236000C0EBC0004D4A02EBC000408AA0F28F20B3
:10237000814206DA00211298C0EBC00002EBC000D7
:1023800081701298C0EBC000444901EBC000018984
:102390001298C0EBC000414A02EBC000808A00F2F4
:1023A0008F20814206DD00211298C0EBC00002EBB5
:1023B000C000817011E11298C0EBC000374911F8DC
:1023C00030000B2855D10A98FEF77CFA0022344BD6
:1023D000CDE90601FEF78AFA05D24FF07E500A9049
:1023E0003348109008E030491098FEF7D5FA03D230
:1023F0002D4810902B480A901298C0EBC000274936
:1024000001EBC000C1891298C0EBC000234A02EB67
:10241000C000008A081A0190FEF732FA244903909E
:102420001098FEF72FF802900399FEF731F8214932
:102430000490FEF75FF806901298C0EBC0001749B1
:1024400001EBC000008A0490FEF723FA059006997C
:10245000FDF7C6FF0790FEF721FA81B21298C0EB94
:10246000C0000E4A02EBC00001811299C1EBC1010C
:1024700022E0B2E000002041C40100209A9999991D
:102480009999C93FCDCCCCCCCCCCEC3F9999B93FF4
:10249000FCA9F1D24D62403FE01500203815002024
:1024A0000000F03F0000A0400060EA460000144039
:1024B0000080BB450080BB4602EBC1010A98486022
:1024C0001298C0EBC000114601EBC00001891298C0
:1024D000C0EBC00002EBC000408A814206DB022153
:1024E0001298C0EBC00002EBC00081701298C0EBE4
:1024F000C000FE4901EBC00001891298C0EBC0008A
:10250000FA4A02EBC000C089814206DB042112981E
:10251000C0EBC00002EBC00081701298C0EBC0009D
:10252000F24901EBC00001891298C0EBC000EF4AEC
:1025300002EBC000808A814206DC03211298C0EBC6
:10254000C00002EBC00081701298C0EBC000E749E8
:1025500001EBC00001891298C0EBC000E34A02EB16
:10256000C000008A814206DC05211298C0EBC00041
:1025700002EBC00081701298C0EBC000DB4901EB98
:10258000C00001891298C0EBC000D84A02EBC0001D
:10259000408AA0F28F20814206DA00211298C0EB17
:1025A000C00002EBC00081701298C0EBC000CF49A0
:1025B00001EBC00001891298C0EBC000CB4A02EBCE
:1025C000C000808A00F28F20814206DD002112982F
:1025D000C0EBC00002EBC0008170FDE300BF1298A9
:1025E000C0EBC000C14901EBC000008D0690FEF7B2
:1025F00050F9BF490790FDF77DFF0F901298C0EB8F
:10260000C000BA4901EBC000B0F92A000790FEF7FC
:1026100037F90E90129800EB4000B64901EB8000AC
:1026200000890390FEF735F90590129800EB400001
:10263000B04901EB8000C0880390FEF72AF90490AE
:102640000599FDF71FFF0790129800EB4000A9497C
:1026500001EB800000890390FEF71BF905901298AA
:1026600000EB4000A34931F820000390FEF711F978
:1026700004900599FDF706FF06900799FDF73AFFCC
:102680000D90129800EB40009A4901EB8000008900
:102690000390FEF7FEF80590129800EB4000954974
:1026A00001EB8000C0880390FEF7F3F804900599D1
:1026B000FDF7E8FE0790129800EB40008D4901EB12
:1026C000800000890390FEF7E4F80590129800EB73
:1026D0004000884901EB800040880390FEF7D9F85C
:1026E00004900599FDF7CEFE06900799FDF702FFCD
:1026F0000C901298C0EBC0007C4901EBC000B0F90F
:1027000026000490FEF7BCF87B490590FDF7F2FE29
:1027100007901298C0EBC000744901EBC000808C98
:102720000390FEF7B6F875490490FDF7E3FE0590B7
:102730000D99FDF7ADFE06900799FDF751FE0B9040
:102740001298C0EBC000694901EBC000B0F9260047
:102750000490FEF795F868490590FDF7CBFE0790C9
:102760001298C0EBC000614901EBC000808C03905F
:10277000FEF78FF861490490FDF7BCFE05900C99B7
:10278000FDF786FE06900799FDF72AFE0A90DDE91F
:102790000A10FDF777FE0690594801680698FDF784
:1027A000A9FE56490790FDF773FE56490860DDE91A
:1027B0000A10FDF767FE06900F9900E023E3FDF78E
:1027C00099FE4E490790FDF763FE0A900A98FEF7BE
:1027D00079F84D4A4D4BCDE90601FEF787F801D255
:1027E00000200A901298C0EBC000404911F8300058
:1027F00008280DD146480068FEF764F8424A434B6A
:10280000CDE90601FEF772F802D2002040490860C7
:102810003A490A98FDF73CFE099038493C4800685F
:10282000FDF736FE0890DDE90810FDF72BFE39496B
:102830000790FEF7B1F802D835490A980860DDE93B
:102840000801FDF71FFE33490790FEF7A5F802D8EF
:102850002F490A980860DDE90801FDF713FE05908D
:10286000FEF730F82C4A2D4BCDE90601FEF73EF875
:1028700007D800210A98FEF785F802D124490A9862
:102880000860DDE90810FDF7FDFD0590FEF71AF878
:10289000214A224BCDE90601FEF728F807D800218E
:1028A0000A98FEF76FF802D119490A98086018488B
:1028B0000068FEF707F81A4A1A4BCDE90001FDF748
:1028C000FEFECDE904010A98FDF7FCFF124A164B03
:1028D000CDE90001FDF7F3FECDE90201DDE90423B6
:1028E000FDF746FECDE9060120E000003815002086
:1028F0000000C842E01500200050C34700007A44A1
:10290000D0010020CC010020FCA9F1D24D62403F53
:10291000C4010020000048429A9999999999C93FA9
:10292000CDCCCCCCCCCCEC3F9999B93FFEF70EF88E
:102930000A90FE490A98FEF725F80CD20A98FDF78E
:10294000C1FFFB4AFB4BCDE90601FDF7E7FF02D2D1
:10295000F9490A9808601298C0EBC000F74911F8CD
:102960003000092819D1F4480068FDF7ABFFF44A9C
:10297000F44BCDE90601FDF7B9FF0ED24FF08140CF
:102980000A904FF07E50EC49086001211298C0EB8C
:10299000C000EA4A02EBC0008170EB490A98FDF7DB
:1029A000A9FDEA490790FDF773FD1090E7491098DB
:1029B000FDF7F2FF01D2E54810900A98FDF782FF7B
:1029C0000022E34BCDE90601FDF7A8FF01D2DE4866
:1029D0000A901298C0EBC000D84911F830000828BE
:1029E0007ED1DC491098FDF7D7FF03D2D94810906B
:1029F000D9480A900A98FDF765FF0022D74BCDE928
:102A00000601FDF78BFF03D2D3480A90D1481090FE
:102A10001298C0EBC000C94901EBC000C1891298EF
:102A2000C0EBC000C54A02EBC000008A081A019042
:102A3000FDF726FF002103901098FDF723FD02907B
:102A40000399FDF725FDC3490490FDF753FD06905A
:102A50001298C0EBC001B94800EBC100008A049095
:102A6000FDF717FF05900699FDF7BAFC0790FDF7F3
:102A700015FF81B21298C0EBC000B04A02EBC00053
:102A800001811299C1EBC10102EBC1010A984860B2
:102A90001298C0EBC000114601EBC00001891298EA
:102AA000C0EBC00002EBC000408A814206DB02217D
:102AB0001298C0EBC00002EBC00081701298C0EB0E
:102AC000C0009E4901EBC00001891298C0EBC00014
:102AD0009A4A02EBC000C089814208DB042100E071
:102AE00066E01298C0EBC00002EBC0008170129843
:102AF000C0EBC000914901EBC00001891298C0EB06
:102B0000C0008E4A02EBC000808A814206DC0321AD
:102B10001298C0EBC00002EBC00081701298C0EBAD
:102B2000C000864901EBC00001891298C0EBC000CB
:102B3000824A02EBC000008A814206DC052112981D
:102B4000C0EBC00002EBC00081701298C0EBC00067
:102B50007A4901EBC00001891298C0EBC000774AA6
:102B600002EBC000408AA0F28F20814206DA0021E9
:102B70001298C0EBC00002EBC00081701298C0EB4D
:102B8000C0006E4901EBC00001891298C0EBC00083
:102B90006A4A02EBC000808A00F28F20814206DD83
:102BA00000211298C0EBC00002EBC000817029E147
:102BB0001298C0EBC000614911F8300009287DD19E
:102BC00067491098FDF7DEFE05D2654810904FF07A
:102BD00081400A9008E05D491098FDF7DDFE03D2C0
:102BE0005A48109058480A900A98FDF76BFE002248
:102BF0005C4BCDE90601FDF779FE05D24FF081402F
:102C00000A90574810900BE00A98FDF75BFE0022EF
:102C10004F4BCDE90601FDF781FE01D24B481090E4
:102C20001298C0EBC000454901EBC000C189129861
:102C3000C0EBC000414A02EBC000008A081A0190B4
:102C4000FDF71EFE464903901098FDF71BFC02900D
:102C50000399FDF71DFC44490490FDF74BFC0690D9
:102C60001298C0EBC000354901EBC000008A049007
:102C7000FDF70FFE05900699FDF7B2FB0790FDF7F3
:102C80000DFE81B21298C0EBC0002C4A02EBC000CE
:102C900001811299C1EBC10102EBC1010A984860A0
:102CA0001298C0EBC000114601EBC00001891298D8
:102CB000C0EBC00002EBC000408A00E0A2E081420D
:102CC00006DB02211298C0EBC00002EBC00081704D
:102CD0001298C0EBC000194901EBC000018912989D
:102CE000C0EBC000154A02EBC000C089814206DB80
:102CF00004211298C0EBC00002EBC0008170129852
:102D0000C0EBC0000D4901EBC00001891298C0EB77
:102D1000C0000A4A02EBC000808A814227DC0321FE
:102D20001298C0EBC00002EBC0001FE00000F041B1
:102D3000FCA9F1D24D62403FC401002038150020AB
:102D4000AE47E17A14AE0F400000A0410060EA46B1
:102D50000000344000606A4600002041000024402A
:102D60000080BB45000010400080BB468170129877
:102D7000C0EBC000FE4901EBC00001891298C0EB16
:102D8000C000FB4A02EBC000008A814206DC05213C
:102D90001298C0EBC00002EBC00081701298C0EB2B
:102DA000C000F34901EBC00001891298C0EBC000DC
:102DB000EF4A02EBC000408AA0F28F20814206DA7F
:102DC00000211298C0EBC00002EBC0008170129885
:102DD000C0EBC000E64900E016E001EBC00001894D
:102DE0001298C0EBC000E24A02EBC000808A00F2F9
:102DF0008F20814206DD00211298C0EBC00002EB5B
:102E0000C000817000E000BF00BFFDE31298C0EB7E
:102E1000C000D74911F8300008287DD009287CD09F
:102E20000A2802D00B2879D100E000BF1298C0EB2D
:102E3000C000CF4901EBC000808C0690FDF729FD52
:102E4000CC490790FDF756FB0F901298C0EBC000DD
:102E5000C74901EBC000B0F926000690FDF710FD50
:102E6000C5490790FDF746FB0E90129800EB400015
:102E7000C24901EB800000890390FDF70AFD05902F
:102E8000129800EB4000BD4901EB8000C088039020
:102E9000FDF7FFFC04900599FDF7F4FA07901298EE
:102EA00000EB4000B54901EB800000890390FDF77D
:102EB000F0FC0590129800EB4000B04931F820007A
:102EC0000390FDF7E6FC04900599FDF7DBFA069008
:102ED0000799FDF70FFB0D900F990D98FDF7D8FAA4
:102EE00007900E99FDF77CFA0A900A98FDF7EAFC24
:102EF000A34AA44BCDE90601FDF7F8FC01D200205E
:102F00000A90A1480068FDF7DDFC00229F4BCDE947
:102F10000601FDF703FD02E0F7E2F7E2FEE302D26D
:102F20000020994908601298C0EBC000904911F840
:102F300030000A280DD194480068FDF7C3FC904A80
:102F4000904BCDE90601FDF7D1FC02D200218E485D
:102F500001601298C0EBC000854911F830000B28C1
:102F60000ED189480068FDF7ADFC854A854BCDE957
:102F70000601FDF7BBFC03D24FF07E50824908608A
:102F80007C490A98FDF784FA09907A497E480068DE
:102F9000FDF77EFA0890DDE90810FDF773FA7C4929
:102FA0000790FDF7F9FC02D877490A980860DDE937
:102FB0000801FDF767FA76490790FDF7EDFC02D8A6
:102FC00071490A980860DDE90801FDF75BFA059090
:102FD000FDF778FC6F4A704BCDE90601FDF786FCE2
:102FE00007D800210A98FDF7CDFC02D166490A985E
:102FF0000860DDE90810FDF745FA0590FDF762FC71
:10300000644A654BCDE90601FDF770FC07D8002145
:103010000A98FDF7B7FC02D15B490A9808605A4844
:103020000068FDF74FFC5D4A5D4BCDE90001FDF7FF
:1030300046FBCDE904010A98FDF744FC554A594B7B
:10304000CDE90001FDF73BFBCDE90201DDE90423F9
:10305000FDF78EFACDE90601FDF778FC0A904C49A0
:103060000A98FDF78FFC0CD20A98FDF72BFC444A16
:10307000444BCDE90601FDF751FC02D242490A98C2
:103080000860129800EB40003C4931F8201012987B
:1030900000EB4000394A02EB80000089A0F5007087
:1030A00081420BDA00200A9037490860012112980A
:1030B000C0EBC0002E4A02EBC00081701298C0EB3A
:1030C000C0002B4911F830000B2814D10A98FDF7E5
:1030D000F9FB0022344BCDE90601FDF707FC0AD2CB
:1030E0004FF07E500A9001211298C0EBC000204A98
:1030F00002EBC00081702D490A98FDF7FBF92C49BD
:103100000790FDF7C5F9109029491098FDF744FC88
:1031100001D2274810900A98FDF7D4FB0022254BD6
:10312000CDE90601FDF7FAFB01D220480A9012987A
:10313000C0EBC0000E4911F830000A287ED1129869
:10314000C0EBC00001EBC000C1891298C0EBC00009
:10315000074A02EBC000008A081A0190FDF790FBB5
:10316000002103901098FDF78DF90290039923E058
:103170003815002000007A440050C347E0150020B5
:10318000FCA9F1D24D62403FC8010020000024405C
:10319000000020419A9999999999C93FCDCCCCCCFE
:1031A000CCCCEC3F9999B93F0000F03F0000A04023
:1031B0000060EA4600001440FDF76AF9FE490490F9
:1031C000FDF798F906901298C0EBC000FB4901EB9F
:1031D000C000008A0490FDF75CFB05900699FDF79E
:1031E000FFF80790FDF75AFB81B21298C0EBC000C0
:1031F000F24A02EBC00001811299C1EBC10102EB5E
:10320000C1010A9848601298C0EBC000114601EB5A
:10321000C00001891298C0EBC00002EBC000408AD8
:10322000814206DB02211298C0EBC00002EBC00015
:1032300081701298C0EBC001E04800E074E000EB40
:10324000C10001891298C0EBC000DC4A02EBC0004B
:10325000C089814206DB04211298C0EBC00002EB5A
:10326000C00081701298C0EBC000D44901EBC000CF
:1032700001891298C0EBC000D04A02EBC000808ADE
:10328000814206DC03211298C0EBC00002EBC000B3
:1032900081701298C0EBC000C84901EBC0000189E1
:1032A0001298C0EBC000C54A02EBC000008A814200
:1032B00006DC05211298C0EBC00002EBC000817053
:1032C0001298C0EBC000BD4901EBC0000189129803
:1032D000C0EBC000B94A02EBC000408AA0F28F20C8
:1032E000814207DA00211298C0EBC002B34800EB1C
:1032F000C20081701298C0EBC000B04901EBC00061
:1033000001891298C0EBC000AC4A02EBC000808A71
:1033100000F28F20814206DD00211298C0EBC00030
:1033200002EBC0008170EFE01298C0EBC001A3482F
:1033300010F831000B287DD10A98FDF7C3FA00225E
:103340009F4BCDE90601FDF7D1FA05D24FF07E5033
:103350000A909C48109008E097491098FDF71CFBD4
:1033600003D29548109098480A901298C0EBC0007C
:10337000924901EBC000C1891298C0EBC0008F4A8E
:1033800002EBC000008A081A0190FDF779FA8D4916
:1033900003901098FDF776F802900399FDF778F8FE
:1033A0008A490490FDF7A6F806901298C0EBC00079
:1033B000824901EBC000008A0490FDF76AFA05908B
:1033C0000699FDF70DF80790FDF768FA81B212989B
:1033D000C0EBC000794A02EBC00001811299C1EB39
:1033E000C10102EBC1010A9848601298C0EBC0000D
:1033F000114601EBC00001891298C0EBC00002EB3E
:10340000C000408A814206DB02211298C0EBC00056
:1034100002EBC00081701298C0EBC000674901EB5D
:10342000C00001891298C0EBC000644A02EBC000E2
:10343000C08900E068E0814206DB04211298C0EBFD
:10344000C00002EBC00081701298C0EBC0005B4965
:1034500001EBC00001891298C0EBC000574A02EB93
:10346000C000808A814206DC03211298C0EBC000B4
:1034700002EBC00081701298C0EBC0004F4901EB15
:10348000C00001891298C0EBC0004C4A02EBC0009A
:10349000008A814206DC05211298C0EBC00002EBD5
:1034A000C00081701298C0EBC000444901EBC0001D
:1034B00001891298C0EBC000404A02EBC000408A6C
:1034C000A0F28F20814206DA00211298C0EBC000E2
:1034D00002EBC00081701298C0EBC000374901EBCD
:1034E000C00001891298C0EBC000344A02EBC00052
:1034F000808A00F28F20814206DD00211298C0EB05
:10350000C00002EBC0008170FEE300BF1298C0EB68
:10351000C0002A4901EBC000008D0690FDF7B9F903
:103520002B490790FCF7E6FF0F901298C0EBC00004
:10353000224901EBC000B0F92A000790FDF7A0F97D
:103540000E90129800EB4000224901EB80000089A8
:103550000390FDF79EF90590129800EB40001D497D
:1035600001EB8000C0880390FDF793F90490059962
:10357000FCF788FF0790129800EB4000154901EB1B
:10358000800000890390FDF784F90590129800EB04
:103590004000104931F820000390FDF77AF90490BB
:1035A0000599FCF76FFF06900799FCF7A3FF0D90B4
:1035B000129800EB40000FE00060EA46381500204A
:1035C0000000F03F0080BB450000A0400080BB46EB
:1035D0000000C842E0150020FD4901EB8000008991
:1035E0000390FDF756F90590129800EB4000F8495A
:1035F00001EB8000C0880390FDF74BF9049005991A
:10360000FCF740FF079000E095E3129800EB4000C4
:10361000EF4901EB800000890390FDF73AF905902E
:10362000129800EB4000EA4901EB800040880390CB
:10363000FDF72FF904900599FCF724FF06900799F0
:10364000FCF758FF0C901298C0EBC000E14901EB69
:10365000C000B0F926000490FDF712F9DE4905908C
:10366000FCF748FF07901298C0EBC000D94901EB66
:10367000C000808C0390FDF70CF9D8490490FCF74A
:1036800039FF05900D99FCF703FF06900799FCF7A9
:10369000A7FE0B901298C0EBC000CE4901EBC00012
:1036A000B0F926000490FDF7EBF8CB490590FCF744
:1036B00021FF07901298C0EBC000C64901EBC00083
:1036C000808C0390FDF7E5F8C4490490FCF712FFE5
:1036D00005900C99FCF7DCFE06900799FCF780FE3C
:1036E0000A90DDE90A10FCF7CDFE0690BC4801689F
:1036F0000698FCF7FFFEB9490790FCF7C9FEB949E7
:103700000860DDE90A10FCF7BDFE06900F99FCF792
:10371000F1FEB2490790FCF7BBFE00E009E30A9016
:103720000A98FDF7CFF8B04AB04BCDE90601FDF796
:10373000DDF801D200200A901298C0EBC000A54924
:1037400011F8300008280DD1A9480068FDF7BAF833
:10375000A54AA64BCDE90601FDF7C8F802D2002024
:10376000A34908609D490A98FCF792FE09909B497D
:103770009F480068FCF78CFE0890DDE90810FCF714
:1037800081FE9C490790FDF707F902D898490A98ED
:103790000860DDE90801FCF775FE96490790FDF722
:1037A000FBF802D892490A980860DDE90801FCF7A5
:1037B00069FE0590FDF786F88F4A904BCDE906012A
:1037C000FDF794F807D800210A98FDF7DBF802D13D
:1037D00087490A980860DDE90810FCF753FE059058
:1037E000FDF770F8844A854BCDE90601FDF77EF8B8
:1037F00007D800210A98FDF7C5F802D17C490A983C
:1038000008607B480068FDF75DF87D4A7D4BCDE997
:103810000001FCF754FFCDE904010A98FDF752F8C6
:10382000754A794BCDE90001FCF749FFCDE902016A
:10383000DDE90423FCF79CFECDE90601FDF786F8DF
:103840000A9072490A98FDF79DF80CD20A98FDF784
:1038500039F8654A654BCDE90601FDF75FF802D2FC
:1038600063490A9808601298C0EBC000594911F8E2
:103870003000092818D15E480068FDF723F8644A33
:10388000644BCDE90601FDF731F80DD24FF08140D0
:103890000A9000205649086001211298C0EBC00030
:1038A0004C4A02EBC00081705B490A98FCF722FE8B
:1038B0005A490790FCF7ECFD109058491098FDF715
:1038C0006BF801D2554810900A98FCF7FBFF0022D4
:1038D000534BCDE90601FDF721F801D24E480A907D
:1038E0001298C0EBC0003B4911F8300008286ED197
:1038F0004C491098FDF750F803D24A4810904A48B6
:103900000A900A98FCF7DEFF0022484BCDE9060139
:10391000FDF704F803D244480A90424810901298E8
:10392000C0EBC0002B4901EBC000C1891298C0EB6D
:10393000C000284A02EBC000008A081A0190FCF778
:103940009FFF002103901098FCF79CFD02900399C3
:10395000FCF79EFD33490490FCF7CCFD06901298CD
:10396000C0EBC0001B4901EBC000008A0490FCF7CB
:1039700090FF05900699FCF733FD0790FCF78EFF4A
:1039800081B21298C0EBC000124A02EBC000018164
:103990001299C1EBC10102EBC1010A98486012986B
:1039A000C0EBC000114601EBC00001891298C0EBCA
:1039B000C00002EBC000408A814206DB022112985F
:1039C000C0EBC00002EBC0008170129830E0A6E0AE
:1039D000E0150020381500200050C34700007A444D
:1039E000D0010020CC010020FCA9F1D24D62403F63
:1039F000C8010020000048429A9999999999C93FB5
:103A0000CDCCCCCCCCCCEC3F9999B93F0000F04167
:103A1000AE47E17A14AE0F400000A0410060EA46D4
:103A20000000344000606A4600002041000024404D
:103A3000C0EBC000C24901EBC00001891298C0EB85
:103A4000C000BF4A02EBC000C089814206DB0421EE
:103A50001298C0EBC00002EBC00081701298C0EB5E
:103A6000C000B74901EBC00001891298C0EBC0004B
:103A7000B34A02EBC000808A814206DC032112981F
:103A8000C0EBC00002EBC00081701298C0EBC00018
:103A9000AB4901EBC00001891298C0EBC000A84AF5
:103AA00002EBC000008A814206DC05211298C0EBBF
:103AB000C00002EBC00081701298C0EBC000A049AA
:103AC00001EBC00001891298C0EBC0009C4A02EBD8
:103AD000C000408AA0F28F20814206DA00211298AD
:103AE000C0EBC00002EBC00081701298C0EBC000B8
:103AF000934901EBC00001891298C0EBC000904AC5
:103B000002EBC000808A00F28F20814206DD002196
:103B10001298C0EBC00002EBC000817008E112985F
:103B2000C0EBC000864911F8300009287ED18549D4
:103B30001098FCF727FF05D2824810904FF0814083
:103B40000A9008E080491098FCF726FF03D27E48CF
:103B500010907E480A900A98FCF7B4FE00227C4B35
:103B6000CDE90601FCF7C2FE05D24FF081400A9074
:103B7000744810900BE00A98FCF7A4FE0022754BE5
:103B8000CDE90601FCF7CAFE01D26F4810901298E9
:103B9000C0EBC0006A4901EBC000C1891298C0EBBC
:103BA000C000674A02EBC000008A081A0190FCF7C7
:103BB00067FE644903901098FCF764FC0290039937
:103BC000FCF766FC64490490FCF794FC069012989C
:103BD000C0EBC0005A4901EBC000008A0490FCF71A
:103BE00058FE05900699FCF7FBFB0790FCF756FE84
:103BF00081B21298C0EBC000514A02EBC0000181B3
:103C00001299C1EBC10102EBC1010A9848601298F8
:103C1000C0EBC000114601EBC00001891298C0EB57
:103C2000C00002EBC000408A814200E080E006DB79
:103C300002211298C0EBC00002EBC0008170129804
:103C4000C0EBC0003E4901EBC00001891298C0EBF7
:103C5000C0003B4A02EBC000C089814206DB042160
:103C60001298C0EBC00002EBC00081701298C0EB4C
:103C7000C000334901EBC00001891298C0EBC000BD
:103C80002F4A02EBC000808A814206DC0321129891
:103C9000C0EBC00002EBC00081701298C0EBC00006
:103CA000274901EBC00001891298C0EBC000244AEB
:103CB00002EBC000008A814206DC05211298C0EBAD
:103CC000C00002EBC00081701298C0EBC0001C491C
:103CD00001EBC00001891298C0EBC000184A02EB4A
:103CE000C000408AA0F28F20814206DA002112989B
:103CF000C0EBC00002EBC00081701298C0EBC000A6
:103D00000F4901EBC00000E014E001891298C0EBFC
:103D1000C0000B4A02EBC000808A00F28F20814273
:103D200006DD00211298C0EBC00002EBC0008170DC
:103D300000E000BF00BF00E000BF00BF13B000BD47
:103D4000381500200080BB450060EA460000A04115
:103D500000001040000034400080BB4610B503480E
:103D6000007800F015FE00F005FF10BDA90100204D
:103D70002DE9F0410646884614461D4627462A4648
:103D80003946304600F04AF8BDE8F081014901604B
:103D900070470000713D000810B5042006F088FE51
:103DA00004460CB9002010BD2046FFF7EFFF204667
:103DB000F9E74FF4007006F07BFE064600244FF44E
:103DC00000713046FCF798FA27E00A2006F0D6FF8B
:103DD0004FF40071304609F075F80446002C00DC01
:103DE0001BE0304605F002FC68B9304606F09CF84E
:103DF00000BF3046FCF7A9FA85B22946304609F0E3
:103E0000B5F80028F5D1304604F058FD20B9304609
:103E100004F0F4FD04F0ACFD00BFD6E770B5064633
:103E20000C461546304604F049FD50B90748046079
:103E300007480560304604F0E1FD04F099FD0020DC
:103E400070BD002001490860401EF9E744000020D1
:103E50004800002070B505460C4628462168884772
:103E60000F4908602846616888470D494860284620
:103E7000A16888470A498860284621698847084917
:103E8000C860284661698847054908612846E16895
:103E900088470349486108460068A860002070BD53
:103EA000800C002010B50548006818B900F01EFE0F
:103EB000024908600148006810BD00004C00002065
:103EC00010B5012000F094F998B10021094800F0E4
:103ED000D9F800210848FCF7F8FF00210648FCF754
:103EE00041FF01200549087000F08AF8012000F028
:103EF000BBF810BD0800024000240140A2010020D0
:103F000010B5202000F074F998B10A49486800F013
:103F1000ABF808490868002100F0B4F840F22661C7
:103F2000054803F005FD012240F22661024803F036
:103F300040FE10BDBC000020004800401CB54FF4FE
:103F4000001000F055F980B31849C868002100F04E
:103F500099F81649086900F087F8154806F022F923
:103F600004461249C86800F03FF9201A11498880B8
:103F700001AA69460E480AF085FA0C490098C968FA
:103F8000C860BDF904000949C96848600749C868A4
:103F9000012100F077F808480068016906480068C8
:103FA00088470648006806F091FF1CBDD400002039
:103FB000D0130020EC1400203C0000206C010020F5
:103FC00010B54FF0007000F013F998B10A49486835
:103FD00000F04AF808490868002100F053F840F260
:103FE0002661064803F0A4FC012240F22661034842
:103FF00003F0DFFD10BD0000D400002000440040AD
:1040000000B58BB01449C86800F048F81348009018
:104010001348019000200290C820039000200490D3
:104020008020059040000690800007902020089096
:10403000002009900A9069460A4800F072F9064982
:104040000122C868022100F063F90349C868012110
:1040500000F018F80BB000BDFC0000204C2401401B
:10406000881600200800024000F0805111B1034979
:10407000086001E002494860704700000404024003
:104080000000024021B1026842F00102026004E037
:1040900002684FF6FE731A400260704701684FF6DF
:1040A000FE72114001600021016041608160C160C9
:1040B0004B49884208D14A490839496841F00F0103
:1040C000474A083A51608AE045491431884208D18C
:1040D00043490839496841F0F001414A083A5160C2
:1040E0007DE03F492831884208D13D490839496877
:1040F00041F470613A4A083A516070E038493C3105
:10410000884208D136490839496841F47041344A37
:10411000083A516063E032495031884208D1304951
:104120000839496841F470212D4A083A516056E037
:104130002B496431884208D129490839496841F43A
:104140007001274A083A516049E025497831884290
:1041500008D123490839496841F07061204A083A7A
:1041600051603CE01F49884206D1011F096841F0B7
:104170000F01021F116032E01A491431884208D140
:104180001849091F096841F0F001164A121F116011
:1041900025E014492831884208D11249091F0968CD
:1041A00041F470610F4A121F116018E00D493C3153
:1041B000884208D10B49091F096841F47041094A36
:1041C000121F11600BE007495031884207D10549A1
:1041D000091F096841F47021024A121F11607047DB
:1041E00008000240080402400146486880B2704757
:1041F00001460020002201F0805313B1054B1A68DC
:1042000001E0054B1A6802EA01030BB1012000E04E
:1042100000207047000402400000024000B58DB04D
:104220000121084602F07AFB344908680021FFF7B3
:1042300029FF32490868FFF731FF314802903148C1
:1042400003901020049040010590002006908020EB
:1042500007900020089009900A904FF480500B902E
:1042600000200C902549086802A900F05AF823495B
:104270004868FFF7F9FE214908680021FFF702FFAF
:104280001E4901220868022100F042F801AA69468D
:104290001D480AF0F7F81949C8680021FFF7F2FE37
:1042A0001649C868FFF7FAFE154802900098039077
:1042B00000200490BDF904000590002006908020A5
:1042C00007900020089009900A904FF440500B90FE
:1042D00000200C900949C86802A900F022F807499B
:1042E0000869FFF7C1FE0549C8680121FFF7CAFE4A
:1042F00006490098C8600DB000BD0000BC00002059
:1043000004480040C00C0020980C0020C00F002082
:104310001AB103680B43036002E003688B43036038
:10432000704710B50022026847F6F0739A430C6A92
:104330008B6823430C6923434C6923438C692343D3
:10434000CC6923434C6A23438C6A23431A4302609B
:10435000CB6843600B6883604B68C36010BD00008E
:1043600000B58DB00121084602F0D8FA2F4908683F
:104370000021FFF787FE2D490868FFF78FFE2C48C4
:1043800002902C480390102004900001059000201A
:104390000690802007900020089009900A900B90CA
:1043A0000C902249086802A9FFF7BBFF1F49486823
:1043B000FFF75AFE1D4908680021FFF763FE1B49FD
:1043C000012208680221FFF7A3FF01AA69461A48E3
:1043D0000AF058F81549C8680021FFF753FE134941
:1043E000C868FFF75BFE1248029000980390002017
:1043F0000490BDF9040005900020069080200790ED
:104400000020089009900A900B900C900749C8680A
:1044100002A9FFF786FF05490869FFF725FE034952
:10442000C8680121FFF72EFE0DB000BDD4000020AA
:1044300004440040D00F0020D0130020F0B50D46FA
:10444000002120B101287AD0022879D1AFE10024DF
:104450001EE0002216E0FE4E36F81270B446561CDE
:104460003CF81660B7420BDD664636F81210374648
:10447000561C37F8166027F81260561C27F81610DD
:10448000561CF2B2C4F1C7069642E4DC661CF4B2D4
:10449000C72CDEDB0021582305E0ED4E36F8136013
:1044A00031445E1CF3B2712BF7DB1926B1FBF6F138
:1044B000E84F398035B1012D2DD0022D56D0032D76
:1044C0007ED182E0C0EBC006E34F17F83660082EBD
:1044D00005D0C0EBC00617F83660092E07D100EBF7
:1044E0004007DFF878C30CEB8707798012E0C0EB58
:1044F000C006D94F17F836600A2E05D0C0EBC006AB
:1045000017F836600B2E05D100EB4007DFF84CC3DF
:104510002CF8271072E0C0EBC006CF4F17F83660BA
:10452000082E05D0C0EBC00617F83660092E08D15A
:1045300000EB4007DFF824C32CF8271015E05FE0FC
:104540001CE2C0EBC006C44F17F836600A2E05D037
:10455000C0EBC00617F836600B2E06D100EB400703
:10456000DFF8F8C20CEB8707398147E0C0EBC006E3
:10457000B94F17F83660082E05D0C0EBC00617F803
:104580003660092E07D100EB4007DFF8D0C20CEBF4
:104590008707398118E0C0EBC006AF4F17F83660C7
:1045A0000A2E05D0C0EBC00617F836600B2E0BD1D3
:1045B00000EB4007DFF8A4C20CEB8707F98000E0AE
:1045C0001BE00126A64F3E7018E0C0EBC006A24FCC
:1045D00017F83660082E05D0C0EBC00617F8366015
:1045E000092E09D100EB4007DFF870C20CEB8707FA
:1045F000F98001269A4F3E7000E000BF00BFBEE187
:1046000000241EE0002216E0914E36F81270B446E7
:10461000561C3CF81660B7420BDD664636F81210A1
:104620003746561C37F8166027F81260561C27F8D4
:104630001610561CF2B2C4F1C7069642E4DC661CA2
:10464000F4B2C72CDEDB0021582305E0804E36F89B
:10465000136031445E1CF3B2712BF7DB1926B1FBFA
:10466000F6F1804F398035B1012D2DD0022D54D077
:10467000032D7DD180E0C0EBC006774F17F8366080
:10468000082E05D0C0EBC00617F83660092E07D1FA
:1046900000EB4007DFF8C4C10CEB8707798012E01C
:1046A000C0EBC0066C4F17F836600A2E05D0C0EB81
:1046B000C00617F836600B2E05D100EB4007DFF877
:1046C0009CC12CF8271070E0C0EBC006624F17F8B1
:1046D0003660082E05D0C0EBC00617F83660092EEC
:1046E00006D100EB4007DFF874C12CF8271013E067
:1046F000C0EBC006584F17F836600A2E05D0C0EB45
:10470000C00617F836600B2E06D100EB4007DFF825
:104710004CC10CEB8707398147E0C0EBC0064E4F18
:1047200017F83660082E05D0C0EBC00617F83660C3
:10473000092E07D100EB4007DFF820C10CEB8707FB
:10474000398118E0C0EBC006434F17F836600A2ED7
:1047500005D0C0EBC00617F836600B2E0BD100EB6E
:104760004007DFF8F8C00CEB8707F980012600E06E
:104770001AE03D4F3E7018E0C0EBC006364F17F808
:104780003660082E05D0C0EBC00617F83660092E3B
:1047900009D100EB4007DFF8C4C00CEB8707F980B4
:1047A0000126314F3E7000E000BF00BFE7E000246B
:1047B0001EE0002216E0264E36F81270B446561C53
:1047C0003CF81660B7420BDD664636F812103746E5
:1047D000561C37F8166027F81260561C27F816107A
:1047E000561CF2B2C4F1C7069642E4DC661CF4B271
:1047F000C72CDEDB0021582305E0154E36F8136088
:1048000031445E1CF3B2712BF7DB1926B1FBF6F1D4
:10481000164F398035B1012D3ED0022D65D0032DC4
:1048200078D190E0C0EBC0060B4F17F83660082E29
:1048300005D0C0EBC00617F83660092E18D100EB82
:104840004007DFF818C00CEB8707798023E00000F1
:1048500088160020BA01002038150020E01500203D
:10486000B7010020BC010020B8010020BE010020DB
:10487000C0EBC006434F17F836600A2E05D0C0EBD8
:10488000C00617F836600B2E05D100EB4007DFF8A5
:10489000F8C02CF827106FE0C0EBC006394F17F8AE
:1048A0003660082E05D0C0EBC00617F83660092E1A
:1048B00006D100EB4007DFF8D0C02CF8271013E03A
:1048C000C0EBC0062F4F17F836600A2E05D0C0EB9C
:1048D000C00617F836600B2E06D100EB4007DFF854
:1048E000A8C00CEB8707398146E0C0EBC006254F16
:1048F00017F83660082E05D0C0EBC00617F83660F2
:10490000092E08D100EB4007DFF87CC00CEB8707CD
:10491000398117E02FE0C0EBC0061A4F17F8366058
:104920000A2E05D0C0EBC00617F836600B2E09D151
:1049300000EB4007DFF850C00CEB8707F980012639
:10494000124F3E7018E0C0EBC0060E4F17F83660ED
:10495000082E05D0C0EBC00617F83660092E09D125
:1049600000EB4007DFF820C00CEB8707F980012639
:10497000064F3E7000E000BF00BF00E000BF00BF78
:10498000F0BD000038150020E0150020B90100201E
:1049900010B504464148007801287ED100203F49E7
:1049A000087024B1012C28D0022C74D14BE03C4873
:1049B00000783C4908703A480078401C3849087033
:1049C000002009F00BFC002202213748FFF7A0FC71
:1049D00000220121880702F022FE324801780020DF
:1049E000FFF72CFD012202212F48FFF791FC012245
:1049F0001146900702F013FE4EE02C4800782C4937
:104A000008702A480078401C28490870012009F0E5
:104A1000E5FB002202212448FFF77AFC0022012155
:104A2000880702F0FCFD224801780120FFF706FD0F
:104A3000012202211C48FFF76BFC0122114690075E
:104A400002F0EDFD28E01B4800781B49087019486A
:104A50000078401C17490870022009F0BFFB0022B3
:104A600002211148FFF754FC00220121880702F0BF
:104A7000D6FD114801780220FFF7E0FC0122022157
:104A80000948FFF745FC01221146900702F0C7FDD7
:104A900002E002E0FFE700BF00BF10BDA20100205E
:104AA000AB010020AC01002008000240AD01002055
:104AB000AE010020AF010020B001002070B5044617
:104AC000064890F8F40138B12046FBF73EFC85B269
:104AD0002946204608F04AFA70BD0000F40900207B
:104AE0000149016070470000074B000810B5042021
:104AF00005F0DEFF04460CB9002010BD2046FFF78C
:104B0000EFFF2046F9E710B5044624B1012C05D08B
:104B1000022C09D105E001F0E7FE07E002F00CFAF3
:104B200004E002F0C1F801E0002000BF00BF10BDAA
:104B300000E0401C0178202902D101780029F8D139
:104B40007047000001490160704700006B4B00088E
:104B500010B5042005F0ACFF04460CB9002010BDD0
:104B60002046FFF7EFFF2046F9E710B504464FF067
:104B7000FF3010BD10B54D480078012807D04C48D3
:104B80000078012803D04B48007801282CD14748F1
:104B90000078012829D10020444908700022022110
:104BA0004548FFF7B5FB00220121880702F037FDD9
:104BB00000204249087042490870FCF7C3F9002000
:104BC000FCF792F83F48007820B901203D49087071
:104BD00009F004FB012202213748FFF799FB01226B
:104BE0001146900702F01BFD5EE031480078012875
:104BF0002BD100202E490870002202212E48FFF7F9
:104C000087FB00220121880702F009FD00202E49C0
:104C100008702E4908700120FCF794F90120FCF778
:104C200063F828480078012804D10220254908703B
:104C300009F0D4FA012202211F48FFF769FB012283
:104C40001146900702F0EBFC2EE01A48007801288C
:104C50002AD1002017490870002202211648FFF7C8
:104C600057FB00220121880702F0D9FC00201849D7
:104C70000870184908700220FCF764F90220FCF75C
:104C800033F810480078022804D100200D4908703C
:104C900009F0A4FA012202210748FFF739FB01229B
:104CA0001146900702F0BBFC10BD0000B7010020C8
:104CB000B8010020B901002008000240AC0100202A
:104CC000AB010020A9010020AE010020AD010020B1
:104CD000B0010020AF0100202DE9F04705460E4647
:104CE0009046994600F012FE074600240E480078D0
:104CF00030B90D48D0F8F811012008F04FFD0AE056
:104D0000002406E0084A601CD2F8F81108F046FDBD
:104D1000641C042CF6DB3246294638463B6D984726
:104D20000020BDE8F0870000F4090020014901607F
:104D300070470000D94C000810B5042005F0B8FEFB
:104D400004460CB9002010BD2046FFF7EFFF2046B7
:104D5000F9E700002DE9F05F0746894692469B4639
:104D600000F0D4FD04460025A8462046E1688847A7
:104D700000BF1AE0114800EB05113A462046636A6D
:104D80009847064606F1090058B908F101000FFAE4
:104D900080F8B8F1030F08DD681C05B24FF0000879
:104DA00003E0681C05B24FF00008042DE2DB20464A
:104DB000216988470020BDE8F09F0000A80B002073
:104DC0000149016070470000554D000810B50420EE
:104DD00005F06EFE04460CB9002010BD2046FFF71A
:104DE000EFFF2046F9E72DE9F04105460C4617464E
:104DF00098460026A1B2284608F0B8F8064606F103
:104E0000080018B9642005F0B9FF02E00A2005F097
:104E1000B5FF0020BDE8F081014901607047000046
:104E2000E74D000810B5042005F042FE04460CB919
:104E3000002010BD2046FFF7EFFF2046F9E70000F5
:104E400008B50320ADF8000010208DF80300032002
:104E50008DF8020069462F4800F072F82E488088CD
:104E6000ADF8000010208DF8030003208DF802003B
:104E700029490868694600F063F828488088ADF839
:104E8000000010208DF8030003208DF80200234954
:104E90000868694600F054F821488088ADF80000A1
:104EA00010208DF8030003208DF802001C490868CB
:104EB000694600F045F81A4A9188106800F0CBF86E
:104EC0001848808818498988084318498988084300
:104ED000ADF8000010208DF8030002208DF80200CC
:104EE00069460C4800F02CF81148808811498988DF
:104EF0000843114989880843ADF8000010208DF857
:104F0000030002208DF8020069460C4800F018F8F2
:104F100008BD0000000C01407C000020840000203F
:104F20006C000020140100201C010020240100203E
:104F30002C010020340100203C0100200010014021
:104F40002DE9F04102460025002600200023002420
:104F5000002791F803C00CF00F0591F803C00CF086
:104F6000100CBCF1000F03D091F802C04CEA05050B
:104F700091F800C0BCF1000F31D0146800202BE084
:104F80004FF0010C0CFA00F3B1F800C00CEA030674
:104F90009E4220D183004FF00F0C0CFA03F7BC4364
:104FA00005FA03FC4CEA040491F803C0BCF1280F95
:104FB00006D14FF0010C0CFA00FCC2F814C00AE054
:104FC00091F803C0BCF1480F05D14FF0010C0CFA69
:104FD00000FCC2F810C0401C0828D1D31460B1F8FE
:104FE00000C0BCF1FF0F34DD546800202EE000F15A
:104FF000080C4FF0010808FA0CF3B1F800C00CEAF5
:1050000003069E4221D183004FF00F0C0CFA03F7E8
:10501000BC4305FA03FC4CEA040491F803C0BCF15C
:10502000280F05D100F1080C08FA0CF8C2F814801A
:1050300091F803C0BCF1480F07D100F1080C4FF004
:10504000010808FA0CF8C2F81080401C0828CED3DA
:105050005460BDE8F0814161704701617047000014
:1050600010B50548006818B9FEF796FE02490860B9
:105070000148006810BD00005C00002010B5054824
:10508000006818B9FFF764FD02490860014800682C
:1050900010BD00005400002010B50548006818B984
:1050A000FFF74AFE024908600148006810BD000091
:1050B0006400002010B50548006818B9FFF786FEA7
:1050C000024908600148006810BD00006800002027
:1050D00010B50548006818B9FFF7A4FE024908603A
:1050E0000148006810BD00006000002010B50548B0
:1050F000006818B901F0C0F9024908600148006869
:1051000010BD0000580000202DE9F05F05468A46DA
:1051100090461E464FF0000BD946012030701BA16F
:105120002846FBF73FF9044634B92878392802DCD1
:105130002878302800DA25E02F19B8F1000F06D1C1
:10514000002030703846FBF73EF983461AE018E03D
:1051500051463846FBF726F904462CB1601C07443B
:1051600009F101001FFA80F9C14506D10020307015
:105170003846FBF728F9834604E00CB1387800B9CB
:1051800000E0E5E75846BDE8F09F000030313233DB
:1051900034353637383900002DE9F84F0446884653
:1051A00000F0B4FB05460026B1462846A96F8847A3
:1051B0000646002E4BDA45A12068FBF7DBF82046B7
:1051C0002269216890472846296A884740B146A14C
:1051D000206802F0CFFE20462269216890471DE03A
:1051E0004948007B0A2809DA47490A7B47A1206819
:1051F00002F0C0FE20462269216890474248408A5A
:1052000040F6B831884209DA3F494A8A44A1206809
:1052100002F0B0FE204622692168904700270CE08A
:10522000454850F82700002806DA434850F8270080
:105230004142414840F827107F1C042FF0DB052134
:105240004046D8F8102090470020BDE8F88F3B4832
:10525000007870B32846E96888472BE02846696FD4
:1052600088470646002E1EDB334850F82600009083
:105270003248643000EB861300F5887000EB86023C
:1052800031462846D5F844C0E04760B92A48203066
:10529000FBF75BF882465346274A203231462846C0
:1052A000D5F84CC0E04709F10109B9F1040F01DD5F
:1052B00001E004E0D2E700BF2846296988470221BF
:1052C0004046D8F8102090470020BEE74E6F6E652C
:1052D00020636F6E6E6E6563742C207265636F6EF3
:1052E0006E6563742E2E2E006765745F73696D5F43
:1052F000696E666F2073696D206661696C656421F3
:10530000202E2E2E000000007C030020626164200D
:105310007369676E616C20256420212121000000E3
:105320006C6F7720706F77657220202564206D7612
:105330002021212100000000580B0020F40900204A
:1053400000B50246104602F0FBFD0148906000BD2A
:105350009951000810B5142005F0AAFB04460CB9B9
:10536000002010BD2046FFF7EBFF2046F9E70000C4
:105370002DE9FC470546884600F0C8FA0646002499
:105380004FF0010900275AA128462A6990470120B9
:1053900001F02AF83046F168884700F0B3FB94E04A
:1053A000594800EB84005849103951F82410CDE9D0
:1053B0000010564901EB8413224655A1286802F0DB
:1053C000D9FD28462A69296890474F48103850F877
:1053D000240000904D4800EB84134B4800EB8402FE
:1053E00021463046D6F844C0E0470746002F35D165
:1053F00032E045481030FAF7A8FF82465346424A49
:10540000103221463046D6F84CC0E0470746E7B98F
:1054100046A128462A699047002000F0E5FF3B4856
:105420006438007848B939486438D0F8F811012058
:1054300008F0B4F94FF0000906E0344A643A601C01
:10544000D2F8F81108F0AAF907E0381D20B93AA1FE
:1054500028462A69904700E0CBE72CE007F10F00CF
:1054600068B93BA128462A6990474FF4FA6005F0D5
:1054700085FC00214046D8F81020904734E007F121
:105480000A00A0B921486438007840B11E4810389D
:1054900050F8240041421C48103840F824100420E1
:1054A00000F0A2FF30A128462A69904703E032A10C
:1054B00028462A699047601C04B24FF4FA6005F050
:1054C0005DFC042C01DB0024A146B9F1000F7FF440
:1054D00067AF00F01DFB3046316988470121404627
:1054E000D8F81420904700BF0020BDE8FC870000DA
:1054F0006770727320636E6E656374207374617479
:1055000065200D0A00000000680B0020580A0020EA
:10551000636E6E6E656374204443203A25642C25C7
:10552000732C25642C2573202E2E2E007375636337
:1055300065656420210A000063616E206E6F74202F
:1055400073656E64206461746120210A00000000AC
:1055500053494D20636172642063616E206E6F74E5
:1055600020776F726B210A00416464722065727249
:105570006F7220210A000000636F6E6E65637420F5
:105580006661696C65640A0000B50246104602F067
:10559000D7FC0148906000BD7153000810B514207D
:1055A00005F086FA04460CB9002010BD2046FFF72E
:1055B000EBFF2046F9E700002DE9FE4F04460D46BB
:1055C00000F0A4F90646A04600200290002781467C
:1055D0008246019040213948FAF78EFE012000F002
:1055E00003FF052128466A6990473548007838B19D
:1055F00033480078401E324908700020BDE8FE8F15
:1056000030A1204622699047FF202D49087030467E
:10561000F16888474AE0B4F90400029002A80090BB
:1056200023681A4625493046D6F828C0E047814607
:10563000B9F1000F2DDB002021490870002720E080
:10564000264800EB07111D4803F09CF8B8B90197F4
:105650002068D8F8141001AB214AD1F800C0029993
:10566000E0478246BAF1000F08D02068D8F8181039
:1056700000231A46D1F800C00299E04703E0781CE5
:1056800007B2042FDCDB00BF49463046326B90473F
:105690000CE00AF1040020B9002128462A6990474D
:1056A00003E0012128462A69904700E0B3E700BFE4
:1056B0003046316988470020A0E70000400C0020F8
:1056C0005000002067707273206465616C20736DF8
:1056D00073207374617465200D0A0000A80B00200C
:1056E000FD6D000800B50246104602F029FC014895
:1056F000906000BDB955000810B51C2005F0D8F920
:1057000004460CB9002010BD2046FFF7EBFF2046F1
:10571000F9E700002DE9FE4F04460E4600F0F6F8CA
:105720000546274600200290804682460190834627
:105730000090A9E0BAF1100F00DDA6E00AF1010027
:105740000FFA80FAB4F904000290216802AA2846F0
:105750006B6E98470190019800B196E02846E96881
:105760008847216802AA2846EB6E98470190284690
:1057700029698847019800282BDB484AD2F8F8119C
:10578000019A501C08F00AF845A12068FAF7CBFDF1
:105790008146B9F1000F0BD043A120462269904702
:1057A000AA6C2846019990473046F169884772E013
:1057B0002068796901AB414AD1F800C00299E047FD
:1057C0002068F96900231A46D1F800C00299E04721
:1057D0005AE0B4F90400029040213948FAF78CFDF0
:1057E0002846E96888472168354B02AA2846D5F83B
:1057F00070C0E0478346284629698847BBF1000FFF
:105800002ADD4FF000081FE02E4800EB08112C485D
:1058100002F0B8FFA0B9CDF800802068B9696B46E6
:10582000294AD1F800C00299E0470190019838B1A7
:105830002068F96900231A46D1F800C00299E047B0
:1058400008F101000FFA80F8B8F1040FDCDB5946CB
:1058500028462A6B904717E02846A96E8847019092
:10586000019800280FDB022000F0BEFD206817A180
:10587000019A02F07FFB204622692168904741F29D
:10588000883005F07BFA00BF54E700BF02213046A4
:105890007269904700BF0020BDE8FE8FF409002028
:1058A000534D534D4F4445007377697463682074BA
:1058B0006F20534D534D4F44450D0A00D5760008D7
:1058C000400C0020A80B0020FD6D000874637020C0
:1058D000636C6F7365203A202564200000B5024692
:1058E000104602F02DFB0148906000BD15570008DE
:1058F00010B5282005F0DCF804460CB9002010BDD6
:105900002046FFF7EBFF2046F9E7000010B50848F6
:10591000006848B904F0E8FD0549086008460068D9
:1059200081680348006888470148006810BD00008E
:10593000300000202DE9F04780460E46FFF7E6FFD5
:105940000546002400BF1AE0601C01F0BBF9A8B9AD
:105950000F4A601CD2F8F81107F020FF2846E968CA
:1059600088470C48FAF7F1FC81464B46094A214624
:105970002846EF6CB847284629698847641C042CE0
:10598000E2DB03213046726990470020BDE8F087D2
:10599000F4090020F00B002000B50246104602F08A
:1059A000CFFA0148906000BD3559000810B51420A9
:1059B00005F07EF804460CB9002010BD2046FFF724
:1059C000EBFF2046F9E710B5044601F057FB10BD88
:1059D00070B504460E46FFF799FF05461BA1204609
:1059E00022699047032000F0FFFC2846E9688847B9
:1059F0002846E9698847002818D12846296A884737
:105A000038B918494B8A0A7B17A1206802F0B2FA0C
:105A100003E01BA1206802F0ADFA2046226921684C
:105A2000904700213046726990470AE01CA1204649
:105A300022699047284669698847002130463269C3
:105A40009047284629698847002070BD67707273A7
:105A50002073656C6674657374207374617465205B
:105A60000D0A00007C0300207369676E616C3D25A0
:105A7000642C20706F7765723D2564206D76000080
:105A80006765745F73696D5F696E666F2073696DBA
:105A9000206661696C656421202E2E2E00000000B6
:105AA00064657465637465642073696D20666169FB
:105AB0006C65642C726573746172742067707273A4
:105AC0000D0A000000B50246104602F039FA0148FE
:105AD000906000BDD159000810B5142004F0E8FF13
