:020000040800F2
:10000000804C002041020008490200084B02000811
:100010004D0200084F0200085102000800000000D5
:10002000000000000000000000000000790100084E
:100030005502000800000000F10100082D02000830
:100040005B0200085B0200085B0200085B0200081C
:100050005B0200085B0200085B0200085B0200080C
:100060005B0200085B0200085B020008893E000892
:10007000C93E00085B0200085B0200085B02000842
:10008000053F0008893F00085B0200085B0200088A
:100090005B0200085B0200085B0200085B020008CC
:1000A0005B0200085B0200085B0200085B020008BC
:1000B000BD7B00085B0200085B0200085B020008D1
:1000C0005B0200085B0200085B02000891770008F1
:1000D0005B0200085B0200088D7F00087580000845
:1000E0005B0200085B0200085B020008DFF81CD01E
:1000F00000F03EFD0AF012FE002103480AF0BEFEA9
:100100000AF01EFEFEE70000BCF00008804C002054
:1001100080F309887047EFF309807047684680F3E1
:10012000098804480078C00714BF0220032080F328
:10013000148870477CF00008DFF818C0EFF30583DF
:100140001B0618BF6047EFF31483DB0708BF604747
:1001500000DF704741BC0008DFF818C0EFF30583EB
:100160001B0618BF6047EFF31483DB0708BF604727
:1001700000DF704725BE0008EFF30980816911F8A0
:10018000021CF1B990E80F10E047EFF3098C8CE8FE
:100190000700144B93E8060091420FD039B12CE9C7
:1001A000F00FC1F828C00CB40CF02EFA0CBC1A6089
:1001B000D2F828C0BCE8F00F8CF309886FF0020E6B
:1001C000704710B5084A1268914209D8074C54F894
:1001D000214090E80F10A047EFF3098C8CE80F0046
:1001E00010BD000070020020AC0C0008AC0C000830
:1001F0000CF0A0F80C4B93E80600914210D0EFF3FE
:10020000098C2CE9F00FC1F828C00CB40CF0FCF9F3
:100210000CBC1A60D2F828C0BCE8F00F8CF3098837
:100220006FF0020E70470000700200200CF0B4FA6C
:10023000E0E700000AF09CFE0CF0AEFADAE70000FE
:100240000648804706480047FEE7FEE7FEE7FEE770
:10025000FEE7FEE7FEE7FEE7FEE7FEE7517B00086C
:10026000ED00000840EA01039B0703D009E008C93C
:10027000121F08C0042AFAD203E011F8013B00F86B
:10028000013B521EF9D27047D2B201E000F8012BB7
:10029000491EFBD270470022F6E710B513460A4606
:1002A00004461946FFF7F0FF204610BD421E12F823
:1002B000013F002BFBD111F8013B02F8013B002B61
:1002C000F9D1704730B505462A460B4612F8010BA6
:1002D00013F8014B08B1A042F8D01CB1002802D09D
:1002E0006D1CF1E7284630BD421C10F8011B0029A7
:1002F000FBD1801A704710B5002200E0521C835CCD
:100300008C5CA34201D1002BF8D1D8B2E1B2401AE3
:1003100010BD034611F8012B00F8012B002AF9D17A
:100320001846704730B505460020034600E05B1CC8
:10033000934205D2EC5CC85C201A01D1002CF6D1A6
:1003400030BD30B50546002008E00A4602E0A34271
:1003500007D0521C1378002BF9D1401C2C5C002CC8
:10036000F3D130BD70B5064608F06EFA0468054654
:100370000A220021304600F02EFB2C6070BDF0B444
:1003800080EA0102D40F4200B2EB410F02D20246D2
:10039000084611464A0042D0C30DDDB2C1F3C75230
:1003A000AD1A202D35DAC1F3160141F4000204B173
:1003B0005242C5F1200602FA06F12A411044B3EB7D
:1003C000D05F23D0C4B1012DA0EBC35009DCF0BC39
:1003D0004FF0004202EAC352DBB200F5000000F029
:1003E0003BBB400000F1807000EBC350A0F1807077
:1003F00040EAD170490009E0490841EAC071A0EB28
:10040000C35000F50000400800EBC350F0BC00F002
:100410001ABB6142012202EB4101001BF6E7F0BC6E
:10042000704781F00041AAE780F00040A7E780EA2A
:10043000010210B502F00043400022D04A001FD054
:10044000010E01EB1261C0F35600C2F3560240F4F4
:10045000000042F40002A0FB022000047F391404D3
:1004600000D0401C50EA124001D44000491EC2B2E4
:100470000C0604EBD010401C4008802A02D003E098
:10048000002010BD20F00100002900DA00201843F0
:1004900010BD30B480EA010202F0004530F00042A5
:1004A00021F0004013D090B1C30DD40DC2F316015A
:1004B000C0F31600E41A41F4000140F400027D3458
:1004C000914201D3641C00E04900002C02DA30BCE8
:1004D000002070474FF400000023914201D3891A95
:1004E000034340084FEA4101F7D151B1914202D193
:1004F0004FF0004105E002D24FF0010101E06FF042
:10050000010103EBC450284430BC00F09CBA2DE933
:10051000FE4F804681EA0300C00F0C46009021F098
:10052000004123F00045B8EB0200A94105D2404646
:10053000214690461C460B46024623F000401043DD
:1005400047D0270DC7F30A00C3F30A510290401A9F
:10055000019040286BDAC3F3130040F4801B00982D
:10056000924620B10023D2EB030A63EB0B0B0198F8
:100570005946C0F14002504600F0FCF906460D46CF
:1005800050465946019A00F014FA10EB08006141F8
:10059000002487EA115284EAE7731A4340D0009A94
:1005A00062B3019A012A4FEA075215DC001B61EB86
:1005B00002014FF0004202EA0752CDE90042001C5E
:1005C00041F5801132462B4600F083FA03B0BDE8B6
:1005D000F08F40462146F9E7001B61EB0201001C49
:1005E00041F5801300185B412018A2F5001747EB76
:1005F000030140EAD570B6196D4111E06D084FEA6C
:10060000360645EAC0754FEA0752001B61EB02014E
:10061000001C41F5801149084FEA30000019514192
:1006200032462B4603B0BDE8F04F00F043BA0098C5
:10063000012240000023D0EB020263EBE07300983C
:1006400021464FEAE074B8EB000061EB0401E9E7F2
:1006500083F000435BE781F0004158E72DE9FE4F4E
:1006600081EA030404F0004421F0004100944FF0BB
:10067000000B23F0004350EA01045ED052EA030469
:100680005BD0C3F30A54C1F30A552C44A4F2F334EB
:100690000194A0FB0254C1F3130141F48011C3F390
:1006A000130343F4801301FB024400FB034E840A4E
:1006B000970A44EA815447EA8357A4FB07680295E6
:1006C0008D0A05FB07854FEA932C04FB0C54270584
:1006D000029D4FEA065847EA1637B5EB08056EEB60
:1006E000070C870E920E47EA811742EA8312A7FB96
:1006F0000201B6EB0B0164EB00042B0D43EA0C3353
:100700005E1844EB1C50DA465146E7FB0201C5F384
:1007100013044FEA0B3343EA14534FEA0432019CAB
:1007200043EA0603A4F10C040294009CCDE900B452
:1007300000F0CFF903B0BDE8F08F00200146F9E7E3
:100740002DE9F04D81EA030404F0004B21F000454F
:1007500014464FF0000A23F0004150EA050220D071
:1007600054EA01021DD0C5F30A570246C5F313032C
:10077000C1F31300C1F30A5640F4801543F480130B
:10078000A7EB0608101BD64608F2FD3873EB0500F0
:1007900002D308F1010801E092185B41B8F1000FA3
:1007A00003DA00200146BDE8F08D00204FF48011EF
:1007B000064684460EE0171B73EB050705D3121B94
:1007C00063EB050306434CEA010C49084FEA30008D
:1007D00092185B4150EA0107EDD152EA030012D0B2
:1007E00082EA040083EA0501084305D0101BAB41EF
:1007F00006D20122002306E000224FF0004302E06F
:100800006FF0010253101AEB06004CEB085110EB8D
:100810000A0041EB0B01BDE8F04D00F04BB9C10FF0
:1008200080EAE0700844CA079623002100F014B95A
:1008300096230022114600F00FB920F00040C10DB0
:10084000C0F3160040F400007F2901DA0020704751
:10085000962903DCC1F19601C8407047963988405B
:10086000704700F0004230F000400AD0C10D01F5A1
:100870006071C0F3160042EA0151C20840071143FB
:10088000704700200146704730B5041E71F1000426
:1008900004DB4FF00044404264EB0101141E73F18D
:1008A000000405DB1C464FF00043524263EB040397
:1008B0008B4208BF824230BD30B5041E71F1000486
:1008C00004DB4FF00044404264EB0101141E73F15D
:1008D000000405DB1C464FF00043524263EB040367
:1008E000994208BF904230BD01F0004330B421F07E
:1008F000004150EA010206D00A0DA2F56072C1F370
:100900001301002A02DC30BC00207047440F44EA87
:10091000C104C100E01830BC00EBC25000F093B835
:10092000002801DBC0F10040002901DBC1F10041DA
:1009300081427047002801DBC0F10040002901DB43
:10094000C1F100418842704730B50B460146002096
:100950002022012409E021FA02F59D4205D303FA81
:1009600002F5491B04FA02F52844151EA2F1010202
:10097000F1DC30BD202A04DB203A00FA02F100202D
:1009800070479140C2F1200320FA03F319439040CD
:100990007047202A04DB203A21FA02F00021704738
:1009A00021FA02F3D040C2F12002914008431946D7
:1009B0007047202A06DBCB17203A41FA02F043EABF
:1009C000E07306E041FA02F3D040C2F12002914008
:1009D0000843194670472DE9F04791460F46804677
:1009E0000446002614F8015B2DB100F0D3F800682E
:1009F000405DC007F6D12B2D02D02D2D18D0641EDE
:100A00004A463946204600F0C9F827B13968A14264
:100A100001D1C7F8008071054FF002040BD54042A8
:100A2000002803DD07F010FF0460A007BDE8F08791
:100A300046F48066E4E70028F8DA07F005FF046072
:100A40006FF00040F2E70029A8BF7047401C490042
:100A500008BF20F00100704710B4B0FA80FC00FA23
:100A60000CF050EA010404BF10BC704749B1CCF14E
:100A7000200421FA04F411FA0CF118BF01212143DA
:100A80000843A3EB0C01CB1D4FEA00614FEA102095
:100A900042BF002010BC704700EBC3501044002937
:100AA000A4BF10BC7047401C490008BF20F00100E3
:100AB00010BC704710B5141E73F1000408DA401C16
:100AC00041F1000192185B411A4301D120F001006D
:100AD00010BD2DE9F04D92469B4611B1B1FA81F25D
:100AE00002E0B0FA80F220329046FFF743FF04465E
:100AF0000F4640EA0A0041EA0B0153465A460843B2
:100B000013D0114653EA010019D0C8F140025046F3
:100B1000FFF73FFF05460E46504659464246FFF74F
:100B200029FF084305D0012004E020463946BDE8EE
:100B3000F08D0020054346EAE0762C4337430A98BF
:100B40006305E40AA0EB08000022FD0A44EA4754CA
:100B50000A3002D500200146E9E701051019694174
:100B6000DDE9084500196941BDE8F04DA2E7000044
:100B7000064C074D06E0E06840F0010394E80700EA
:100B800098471034AC42F6D3FFF7B4FA54F100089A
:100B900074F100080048704750F100082DE9F05F3B
:100BA00082460078002715468B460AF10104B946B3
:100BB000302801D09DB113E014F8010B01277828EB
:100BC00003D0582801D045B10AE00DB1102D07D14E
:100BD0000027102514F8010B02E0082500E00A2583
:100BE0000026B0460EE005FB080005FB06F10127D4
:100BF00001EB10461FFA80F8B6F5803F00D3B946E6
:100C000014F8010B294600F018F80028EBDABBF1C4
:100C1000000F05D00FB1641E00E05446CBF8004031
:100C2000B9F1000F06D007F00FFE02210160C81EC7
:100C3000BDE8F09F48EA0640FAE73A2800D230388B
:100C400020F02002412A01D3A2F13700884201D3CB
:100C50004FF0FF30704770B58C1810F8015B15F03D
:100C6000070301D110F8013B2A1106D110F8012B1E
:100C700003E010F8016B01F8016B5B1EF9D12B0743
:100C800005D40023521E0DD401F8013BFAE710F8F9
:100C9000013BCB1A921C03E013F8015B01F8015BE6
:100CA000521EF9D5A142D8D3002070BD000000002B
:100CB00010B504461348006848B1C4EBC400124A9A
:100CC00002EBC000416820460E4A126890470F4868
:100CD000006848B1C4EBC4000B4A02EBC0000189B4
:100CE00020460A4A126890470948006848B1C4EB98
:100CF000C400054A02EBC00081782046044A12680D
:100D0000904710BDE001002068150020E40100209C
:100D1000E801002010B50121034800F0BAF80121D4
:100D2000014800F003F810BD0024014021B18268A1
:100D300042F00102826003E0826822F001028260D8
:100D4000704721B1826842F48072826003E0826859
:100D500022F4807282607047014600208A6802F0A7
:100D600004020AB1012000E0002070470146002083
:100D70008A6802F008020AB1012000E000207047F2
:100D800030B502460020002350680F4C20400D79FA
:100D90000C6844EA05242043506090680B4C2040C6
:100DA000D1E902542C434D7944EA45042043906034
:100DB000D06A20F470000C7C641EE4B2234340EA45
:100DC0000350D06230BD0000FFFEF0FFFDF7F1FFE1
:100DD000F0B504460D4600200021092D11DDE06824
:100DE000A5F10A0606EB4607072606FA07F188432F
:100DF000A5F10A0606EB460603FA06F10843E06091
:100E00000CE0206905EB4507072606FA07F1884341
:100E100005EB450603FA06F108432061072A0FDABD
:100E2000606B561E06EB86071F2606FA07F18843FD
:100E3000561E06EB860605FA06F10843606322E0BB
:100E40000D2A0FDA206BD61F06EB86071F2606FA3F
:100E500007F18843D61F06EB860605FA06F108431C
:100E6000206310E0E06AA2F10D0606EB86071F265C
:100E700006FA07F18843A2F10D0606EB860605FA8D
:100E800006F10843E062F0BD816841F0080181602D
:100E9000704721B1826842F4A002826003E0826858
:100EA00022F4A00282607047816841F004018160F1
:100EB000704700210160017141718160C1600121B1
:100EC0000174704710B50146CAB20B1243EA022002
:100ED00010BD000070B502460C46FF25FF2309E057
:100EE00012F8010B80EA05010648405C80EA030520
:100EF0000548435C201EA4F10106B4B2F0D143EAD8
:100F0000052070BD3CEE00083CEF000801B592B032
:100F1000129830B101287DD0022842F0F18601F00C
:100F200059BF1298C0EBC000FE4911F830000828E4
:100F300071D0092870D00A2802D00B286DD100E0AA
:100F400000BF1298C0EBC000F64901EBC000808CD6
:100F50000290FFF76DFC0390FFF783FC0022F24B39
:100F6000CDE90401FFF7ECFBCDE90601FFF7BCFC7E
:100F70000F901298C0EBC001EA4800EBC100B0F935
:100F800026000290FFF74BFC0390FFF76AFC00225B
:100F9000E64BCDE90401FFF7D3FBCDE90601FFF7EE
:100FA000A3FC0E90129800EB4000E14901EB800099
:100FB00000890390FFF73CFC0590129800EB40007D
:100FC000DB4901EB8000C0880390FFF731FC0490FF
:100FD0000599FFF726FA0790129800EB4000D449D4
:100FE00001EB800000890390FFF722FC0590129826
:100FF00000EB4000CE4931F820000390FFF718FCC9
:1010000004900599FFF70DFA06900799FFF741FA4A
:101010000D9003E0FDE315E315E3FBE30F990D9855
:10102000FFF705FA07900E99FFF7A9F90A900A98B9
:10103000FFF717FCBF4AC04BCDE90601FFF724FCC0
:1010400001D200200A90BD480068FFF70AFC002288
:10105000BB4BCDE90601FFF72FFC02D20020B749B8
:1010600008601298C0EBC000AE4911F830000A28A1
:101070000DD1B2480068FFF7F4FBAE4AAE4BCDE9A4
:101080000601FFF701FC02D20020AC49086012986B
:10109000C0EBC000A34911F830000B280ED1A748BF
:1010A0000068FFF7DEFBA34AA34BCDE90601FFF77B
:1010B000EBFB03D24FF07E50A0490860A1490A988B
:1010C000FFF7B5F909909F499C480068FFF7AFF911
:1010D0000890DDE90810FFF7A4F99B490790FFF796
:1010E00029FC02D895490A980860DDE90801FFF754
:1010F00098F995490790FFF71DFC02D88F490A9887
:101100000860DDE90801FFF78CF90590FFF7A9FBFE
:101110008E4A8F4BCDE90601FFF7B6FB07D80021B9
:101120000A98FFF7FDFB02D184490A980860DDE9BF
:101130000810FFF776F90590FFF793FB834A844B7D
:10114000CDE90601FFF7A0FB07D800210A98FFF7B9
:10115000E7FB02D179490A98086078480068FFF7F0
:1011600080FB7C4A7C4BCDE90001FFF777FACDE9A3
:1011700004010A98FFF775FB744A784BCDE900012A
:10118000FFF76CFACDE90201DDE90423FFF7BFF9AF
:10119000CDE90601FFF7A8FB0A906B490A98FFF713
:1011A000BFFB0CD20A98FFF75CFB624A624BCDE9A9
:1011B0000601FFF781FB02D260490A980860129885
:1011C00000EB40005A4931F82010129800EB400023
:1011D000574A02EB80000089A0F5007081420BDACB
:1011E00000200A905549086001211298C0EBC00008
:1011F0004C4A02EBC00081701298C0EBC000494914
:1012000011F830000B2814D10A98FFF72AFB0022AE
:10121000534BCDE90601FFF737FB0AD24FF07E5062
:101220000A9001211298C0EBC0003E4A02EBC000B8
:1012300081704C490A98FFF72CF94B490790FFF74A
:10124000F6F8109048491098FFF774FB01D2464811
:1012500010900A98FFF705FB0022444BCDE90601E8
:10126000FFF72AFB01D23F480A901298C0EBC00159
:101270002C4810F831000A2853D11298C0EBC00056
:10128000284901EBC000C1891298C0EBC000254A73
:1012900002EBC000008A081A0190FFF7C0FA002193
:1012A00003901098FFF7BDF802900399FFF7BFF87D
:1012B0002D490490FFF7EDF806901298C0EBC0019D
:1012C000184800EBC100008A0490FFF7B1FA0590BE
:1012D0000699FFF754F80790FFF7AFFA81B212981A
:1012E000C0EBC0000F4A02EBC00001811299C1EBB4
:1012F000C10102EBC1010A9848601298C0EBC0001E
:10130000114601EBC00001891298C0EBC00002EB4E
:10131000C000408A81422EDB02211298C0EBC0003F
:1013200026E0A0E06815002000408F40006AF840E9
:1013300010160020FCA9F1D24D62403FC0010020F0
:101340000000244000007A44000020419A999999B5
:101350009999C93FCDCCCCCCCCCCEC3F9999B93F35
:101360000000F03F0000A0400060EA46000014408A
:1013700002EBC00081701298C0EBC000FE4901EB87
:10138000C00001891298C0EBC000FB4A02EBC0000C
:10139000C089814206DB04211298C0EBC00002EB39
:1013A000C00081701298C0EBC000F34901EBC0008F
:1013B00001891298C0EBC000EF4A02EBC000808A9E
:1013C000814206DC03211298C0EBC00002EBC00092
:1013D00081701298C0EBC000E74901EBC0000189A1
:1013E0001298C0EBC000E44A02EBC000008A8142C0
:1013F00006DC05211298C0EBC00002EBC000817032
:101400001298C0EBC000DC4901EBC00001891298C2
:10141000C0EBC000D84A02EBC000408AA0F28F2087
:10142000814206DA00211298C0EBC00002EBC00036
:1014300081701298C0EBC000CF4901EBC000018958
:101440001298C0EBC000CC4A02EBC000808A00F2C8
:101450008F20814206DD00211298C0EBC00002EB14
:10146000C0008170EDE01298C0EBC000C24911F8D5
:1014700030000B28F6D10A98FFF7F3F90022BF4B92
:10148000CDE90601FFF700FA05D24FF07E500A9031
:10149000BB48109008E0BB491098FFF74BFA03D205
:1014A000B8481090B8480A901298C0EBC000B249F2
:1014B00001EBC000C1891298C0EBC000AE4A02EB3C
:1014C000C000008A081A0190FFF7A9F9AC490390FF
:1014D0001098FEF7A6FF02900399FEF7A8FFAB490C
:1014E0000490FEF7D6FF06901298C0EBC001A24808
:1014F00000EBC100008A0490FFF79AF90590069965
:10150000FEF73DFF0790FFF798F981B21298C0EB04
:10151000C000994A02EBC00001811299C1EBC101E0
:1015200002EBC1010A9848601298C0EBC000114656
:1015300001EBC00001891298C0EBC00002EBC000B3
:10154000408A814206DB02211298C0EBC00002EB08
:10155000C00081701298C0EBC000874901EBC00049
:1015600001891298C0EBC000834A02EBC000C08919
:10157000814206DB04211298C0EBC00002EBC000E0
:1015800081701298C0EBC0007B4901EBC00001895B
:101590001298C0EBC000784A02EBC000808A8142FA
:1015A00006DC03211298C0EBC00002EBC000817082
:1015B0001298C0EBC000704901EBC000018912987D
:1015C000C0EBC0006C4A02EBC000008A814206DC1E
:1015D00005211298C0EBC00002EBC0008170129888
:1015E000C0EBC000644901EBC00001891298C0EB58
:1015F000C000614A02EBC000408AA0F28F20814205
:1016000006DA00211298C0EBC00002EBC000817026
:101610001298C0EBC000584901EBC0000189129834
:10162000C0EBC000544A02EBC000808A00F28F2059
:10163000814206DD00211298C0EBC00002EBC00021
:101640008170FDE300BF1298C0EBC0004A4901EB76
:10165000C000008D0690FFF7EBF84D490790FEF7AC
:1016600018FF0F901298C0EBC000434901EBC00077
:10167000B0F92A000790FFF7D2F80E90129800EB0D
:101680004000444901EB800000890390FFF7D0F847
:101690000590129800EB40003E4901EB8000C088A5
:1016A0000390FFF7C5F804900599FEF7BAFE07907E
:1016B000129800EB4000374901EB8000008903904D
:1016C000FFF7B6F80590129800EB4000314931F869
:1016D00020000390FFF7ACF804900599FEF7A1FEF7
:1016E00006900799FEF7D5FE0D90129800EB40008A
:1016F000284901EB800000890390FFF799F80590D5
:10170000129800EB4000234901EB8000C088039051
:10171000FFF78EF804900599FEF783FE0790129864
:1017200000EB40001B4901EB800000890390FFF7AC
:101730007FF80590129800EB4000164901EB8000FD
:1017400040880390FFF774F804900599FEF769FE4E
:1017500006900799FEF79DFE0C901298C0EBC00012
:10176000054901EBC000B0F926000490FFF757F8D7
:101770000949059012E00000681500200000F03FC4
:101780000080BB450060EA460000A0400080BB46E8
:101790000000C842101600200050C347FEF779FE33
:1017A00007901298C0EBC000FE4901EBC000808C8E
:1017B0000390FFF73DF8FC490490FEF76AFE0590A0
:1017C0000D99FEF734FE06900799FEF7D8FD0B90B1
:1017D0001298C0EBC000F34901EBC000B0F926003D
:1017E0000490FFF71CF8F1490590FEF752FE0790B0
:1017F0001298C0EBC000EB4901EBC000808C039055
:10180000FFF716F8E8490490FEF743FE05900C999F
:1018100001E02EE329E3FEF70AFE06900799FEF7A2
:10182000AEFD0A90DDE90A10FEF7FBFD0690E048E8
:1018300001680698FEF72DFEDB490790FEF7F7FDDD
:10184000DC490860DDE90A10FEF7EBFD06900F9910
:10185000FEF71FFED4490790FEF7E9FD0A900A98AB
:10186000FEF7FFFFD44AD54BCDE90601FFF70CF890
:1018700001D200200A901298C0EBC000C94911F8AB
:10188000300008280DD1CE480068FEF7EAFFCA4AAA
:10189000CA4BCDE90601FEF7F7FF02D20020C84986
:1018A0000860C1490A98FEF7C2FD0990BE49C448C4
:1018B0000068FEF7BCFD0890DDE90810FEF7B1FDF9
:1018C000C0490790FFF736F802D8BD490A9808606A
:1018D000DDE90801FEF7A5FDBA490790FFF72AF8F0
:1018E00002D8B7490A980860DDE90801FEF799FDBA
:1018F0000590FEF7B6FFB44AB44BCDE90601FEF7FA
:10190000C3FF07D800210A98FFF70AF802D1AC49B3
:101910000A980860DDE90810FEF783FD0590FEF7E0
:10192000A0FFA94AA94BCDE90601FEF7ADFF07D8F4
:1019300000210A98FEF7F4FF02D1A1490A98086035
:101940009F480068FEF78DFFA14AA24BCDE9000138
:10195000FEF784FECDE904010A98FEF782FF9A4A59
:101960009D4BCDE90001FEF779FECDE90201DDE9ED
:101970000423FEF7CCFDCDE90601FEF7B5FF0A9082
:1019800096490A98FEF7CCFF0CD20A98FEF769FF39
:10199000894A8A4BCDE90601FEF78EFF02D28849BB
:1019A0000A9808601298C0EBC0007E4911F8300018
:1019B000092818D182480068FEF753FF884A894BEE
:1019C000CDE90601FEF760FF0DD24FF081400A908D
:1019D00000207B49086001211298C0EBC000714AC9
:1019E00002EBC000817080490A98FEF752FD7F49E2
:1019F0000790FEF71CFD10907C491098FEF79AFFA7
:101A000001D27A4810900A98FEF72BFF0022784BFB
:101A1000CDE90601FEF750FF01D273480A901298F3
:101A2000C0EBC0005F4911F8300008287ED1714931
:101A30001098FEF77FFF03D26E4810906E480A9010
:101A40000A98FEF70EFF00226C4BCDE90601FEF767
:101A500033FF03D268480A90664810901298C0EB92
:101A6000C000504901EBC000C1891298C0EBC00012
:101A70004C4A02EBC000008A081A0190FEF7CFFE24
:101A8000002103901098FEF7CCFC02900399FEF71A
:101A9000CEFC58490490FEF7FCFC06901298C0EB6F
:101AA000C000404901EBC000008A0490FEF7C0FE70
:101AB00005900699FEF763FC0790FEF7BEFE81B223
:101AC0001298C0EBC000374A02EBC00001811299A6
:101AD000C1EBC10102EBC1010A9848601298C0EB4A
:101AE000C000114601EBC00001891298C0EBC00094
:101AF00002EBC000408A814206DB02211298C0EB53
:101B0000C00002EBC00081701298C0EBC0002549F4
:101B100001EBC00001891298C0EBC000214A02EB22
:101B2000C000C089814208DB042100E095E01298E2
:101B3000C0EBC00002EBC00081701298C0EBC00186
:101B4000184800EBC10001891298C0EBC000154A8B
:101B500002EBC000808A814206DC03211298C0EBB0
:101B6000C00002EBC00081701298C0EBC0000D49AC
:101B700001EBC00001891298C0EBC000094A02EBDA
:101B8000C000008A814206DC05211298C0EBC0002B
:101B900002EBC00081701298C0EBC000014901EB5C
:101BA000C0002DE06815002000007A440050C347B3
:101BB000D0010020CC010020FCA9F1D24D62403FB1
:101BC000C0010020000048429A9999999999C93F0B
:101BD000CDCCCCCCCCCCEC3F9999B93F0000F041B6
:101BE000AE47E17A14AE0F400000A0410060EA4623
:101BF0000000344000606A4600002041000024409C
:101C000001891298C0EBC000FE4A02EBC000408A76
:101C1000A0F28F20814206DA00211298C0EBC000AA
:101C200002EBC00081701298C0EBC000F54901EBD7
:101C3000C00001891298C0EBC000F24A02EBC0005C
:101C4000808A00F28F20814206DD00211298C0EBCD
:101C5000C00002EBC000817006E11298C0EBC0002A
:101C6000E84911F830000928F6D1E7491098FEF745
:101C700057FE05D2E44810904FF081400A9008E0EA
:101C8000E2491098FEF756FE03D2E0481090E04873
:101C90000A900A98FEF7E5FD0022DE4BCDE9060129
:101CA000FEF7F2FD05D24FF081400A90D648109021
:101CB0000BE00A98FEF7D5FD0022D74BCDE90601CF
:101CC000FEF7FAFD01D2D14810901298C0EBC00087
:101CD000CC4901EBC000C1891298C0EBC000C94AD1
:101CE00002EBC000008A081A0190FEF798FDC64971
:101CF00003901098FEF795FB02900399FEF797FB6F
:101D0000C6490490FEF7C5FB06901298C0EBC000D0
:101D1000BC4901EBC000008A0490FEF789FD0590E4
:101D20000699FEF72CFB0790FEF787FD81B212980B
:101D3000C0EBC000B34A02EBC00001811299C1EBB5
:101D4000C10102EBC1010A9848601298C0EBC000C3
:101D5000114601EBC00001891298C0EBC00002EBF4
:101D6000C000408A814206DB02211298C0EBC0000D
:101D700002EBC00081701298C0EBC000A14901EBDA
:101D8000C00001891298C0EBC0009E4A02EBC0005F
:101D9000C089814206DB04211298C0EBC00002EB2F
:101DA000C00081701298C0EBC000964901EBC000E2
:101DB00001891298C0EBC000924A02EBC000808AF1
:101DC000814206DC03211298C0EBC00002EBC00088
:101DD00081701298C0EBC0008A4901EBC0000189F4
:101DE0001298C0EBC000874A02EBC000008A814213
:101DF00006DC05211298C0EBC00002EBC000817028
:101E00001298C0EBC0007F4901EBC0000189129815
:101E1000C0EBC0007B4A02EBC000408AA0F28F20DA
:101E2000814206DA00211298C0EBC00002EBC0002C
:101E300081701298C0EBC000724901EBC00000E055
:101E400014E001891298C0EBC0006E4A02EBC0009A
:101E5000808A00F28F20814206DD00211298C0EBBB
:101E6000C00002EBC000817000E000BF00BF01F0C5
:101E700048BF1298C0EBC000624911F83000082832
:101E80007ED009287DD00A2802D00B287AD100E024
:101E900000BF1298C0EBC0005A4901EBC000808C13
:101EA0000690FEF7C5FC5E490790FEF7F2FA0F9028
:101EB0001298C0EBC000534901EBC000B0F92600F6
:101EC0000690FEF7ACFC57490790FEF7E2FA0E9039
:101ED000129800EB4001544800EB81000089039008
:101EE000FEF7A6FC0590129800EB40004E4901EB6E
:101EF0008000C0880390FEF79BFC04900599FEF7D4
:101F000090FA0790129800EB4000474901EB8000DF
:101F100000890390FEF78CFC0590129800EB4000BE
:101F2000414931F820000390FEF782FC04900599A6
:101F3000FEF777FA06900799FEF7ABFA0D900F9926
:101F40000D98FEF774FA07900E99FEF718FA0A90AA
:101F50000A98FEF786FC354A354BCDE90601FEF7B7
:101F600093FC01D200200A9032480068FEF779FC09
:101F70000022314BCDE90601FEF79EFC06D202E0BD
:101F800010E310E3FEE300202A4908601298C0EB3A
:101F9000C0011C4810F831000A280DD125480068FE
:101FA000FEF75FFC214A224BCDE90601FEF76CFCEF
:101FB00002D200201F4908601298C0EBC0001149EE
:101FC00011F830000B280ED11A480068FEF749FCC2
:101FD000164A174BCDE90601FEF756FC03D24FF027
:101FE0007E50144908600E490A98FEF720FA0990BD
:101FF0000B4910480068FEF71AFA0890DDE908104E
:102000001CE00000681500200080BB450060EA4627
:102010000000A04100001040000034400080BB469A
:1020200000007A440050C34710160020FCA9F1D2EA
:102030004D62403FC401002000002440FEF7F1F94A
:10204000FE490790FEF776FC02D8FD490A98086021
:10205000DDE90801FEF7E5F9F8490790FEF76AFCAB
:1020600002D8F7490A980860DDE90801FEF7D9F9B6
:102070000590FEF7F6FBF34AF34BCDE90601FEF7B8
:1020800003FC07D800210A98FEF74AFC02D1EC496C
:102090000A980860DDE90810FEF7C3F90590FEF71D
:1020A000E0FBE84AE84BCDE90601FEF7EDFB07D877
:1020B00000210A98FEF734FC02D1E1490A98086031
:1020C000DF480068FEF7CDFBE04AE14BCDE90001B7
:1020D000FEF7C4FACDE904010A98FEF7C2FBD94A1B
:1020E000DC4BCDE90001FEF7B9FACDE90201DDE9EB
:1020F0000423FEF70CFACDE90601FEF7F5FB0A9082
:10210000CE490A98FEF70CFC0CD20A98FEF7A9FB00
:10211000D14AD24BCDE90601FEF7CEFB02D2C84927
:102120000A980860129800EB4000CD4931F8201061
:10213000129800EB4000CA4A02EB80000089A0F52B
:10214000007081420BDA00200A90BD49086001212D
:102150001298C0EBC000C34A02EBC0008170129815
:10216000C0EBC000BF4911F830000B2814D10A9809
:10217000FEF777FB0022BC4BCDE90601FEF784FB9E
:102180000AD24FF07E500A9001211298C0EBC00095
:10219000B44A02EBC0008170B4490A98FEF779F99D
:1021A000B3490790FEF743F91090B1491098FEF734
:1021B000C1FB01D2AE4810900A98FEF752FB0022F4
:1021C000AC4BCDE90601FEF777FB01D2A7480A9098
:1021D0001298C0EBC000A34911F830000A287DD145
:1021E0001298C0EBC00001EBC000C1891298C0EB8F
:1021F000C0009C4A02EBC000008A081A0190FEF75A
:102200000EFB002103901098FEF70BF90290039942
:10221000FEF70DF996490490FEF73BF906901298E7
:10222000C0EBC0018F4800EBC100008A0490FEF7AC
:10223000FFFA05900699FEF7A2F80790FEF7FDFA5F
:1022400081B21298C0EBC000864A02EBC000018147
:102250001299C1EBC10102EBC1010A9848601298C2
:10226000C0EBC000114601EBC00001891298C0EB21
:10227000C00002EBC000408A814206DB02211298B6
:10228000C0EBC00002EBC00081701298C0EBC00030
:10229000744901EBC00001891298C0EBC000714A7B
:1022A00002EBC000C089814206DB04211298C0EB1A
:1022B000C00002EBC00081701298C0EBC0006949F9
:1022C00001EBC00001891298C0EBC000654A02EB27
:1022D000C000808A814208DC032100E04FE01298B0
:1022E000C0EBC00002EBC00081701298C0EBC000D0
:1022F0005C4901EBC00001891298C0EBC000594A4B
:1023000002EBC000008A814206DC05211298C0EB76
:10231000C00002EBC00081701298C0EBC0005149B0
:1023200001EBC00001891298C0EBC0004D4A02EBDE
:10233000C000408AA0F28F20814206DA0021129864
:10234000C0EBC00002EBC00081701298C0EBC0006F
:10235000444901EBC00001891298C0EBC000414A1A
:1023600002EBC000808A00F28F20814206DD00214E
:102370001298C0EBC00002EBC000817011E112980E
:10238000C0EBC000374911F830000B2855D10A982E
:10239000FEF767FA0022344BCDE90601FEF774FA26
:1023A00005D24FF07E500A903348109008E0304933
:1023B0001098FEF7BFFA03D22D4810902B480A90D0
:1023C0001298C0EBC000274901EBC000C1891298E8
:1023D000C0EBC000234A02EBC000008A081A01903B
:1023E000FEF71DFA244903901098FEF71AF80290A0
:1023F0000399FEF71CF821490490FEF74AF806906D
:102400001298C0EBC000174901EBC000008A04908D
:10241000FEF70EFA05900699FDF7B1FF0790FEF75B
:102420000CFA81B21298C0EBC0000E4A02EBC00059
:1024300001811299C1EBC10122E0B2E0000020410C
:10244000C40100209A9999999999C93FCDCCCCCCD7
:10245000CCCCEC3F9999B93FFCA9F1D24D62403FF9
:1024600010160020681500200000F03F0000A0407A
:102470000060EA46000014400080BB450080BB4677
:1024800002EBC1010A9848601298C0EBC0001146E7
:1024900001EBC00001891298C0EBC00002EBC00044
:1024A000408A814206DB02211298C0EBC00002EB99
:1024B000C00081701298C0EBC000FE4901EBC00063
:1024C00001891298C0EBC000FA4A02EBC000C08933
:1024D000814206DB04211298C0EBC00002EBC00071
:1024E00081701298C0EBC000F24901EBC000018975
:1024F0001298C0EBC000EF4A02EBC000808A814214
:1025000006DC03211298C0EBC00002EBC000817012
:102510001298C0EBC000E74901EBC0000189129896
:10252000C0EBC000E34A02EBC000008A814206DC37
:1025300005211298C0EBC00002EBC0008170129818
:10254000C0EBC000DB4901EBC00001891298C0EB71
:10255000C000D84A02EBC000408AA0F28F2081421E
:1025600006DA00211298C0EBC00002EBC0008170B7
:102570001298C0EBC000CF4901EBC000018912984E
:10258000C0EBC000CB4A02EBC000808A00F28F2073
:10259000814206DD00211298C0EBC00002EBC000B2
:1025A0008170FDE300BF1298C0EBC000C14901EB90
:1025B000C000008D0690FEF73BF9BF490790FDF77C
:1025C00068FF0F901298C0EBC000BA4901EBC00041
:1025D000B0F92A000790FEF722F90E90129800EB4E
:1025E0004000B64901EB800000890390FEF720F916
:1025F0000590129800EB4000B04901EB8000C088C4
:102600000390FEF715F904900599FDF70AFF07906E
:10261000129800EB4000A94901EB8000008903906B
:10262000FEF706F90590129800EB4000A34931F837
:1026300020000390FEF7FCF804900599FDF7F1FEE9
:1026400006900799FDF725FF0D90129800EB4000CA
:102650009A4901EB800000890390FEF7E9F80590A4
:10266000129800EB4000954901EB8000C088039070
:10267000FEF7DEF804900599FDF7D3FE0790129857
:1026800000EB40008D4901EB800000890390FEF7CC
:10269000CFF80590129800EB4000884901EB8000CC
:1026A00040880390FEF7C4F804900599FDF7B9FE41
:1026B00006900799FDF7EDFE0C901298C0EBC00054
:1026C0007C4901EBC000B0F926000490FEF7A7F8A2
:1026D0007B490590FDF7DDFE07901298C0EBC00026
:1026E000744901EBC000808C0390FEF7A1F8754996
:1026F0000490FDF7CEFE05900D99FDF798FE06902B
:102700000799FDF73CFE0B901298C0EBC000694999
:1027100001EBC000B0F926000490FEF780F868498C
:102720000590FDF7B6FE07901298C0EBC000614916
:1027300001EBC000808C0390FEF77AF861490490A9
:10274000FDF7A7FE05900C99FDF771FE069007991D
:10275000FDF715FE0A90DDE90A10FDF762FE06900E
:10276000594801680698FDF794FE56490790FDF711
:102770005EFE56490860DDE90A10FDF752FE06903C
:102780000F9900E023E3FDF784FE4E490790FDF723
:102790004EFE0A900A98FEF764F84D4A4D4BCDE97B
:1027A0000601FEF771F801D200200A901298C0EBE2
:1027B000C000404911F8300008280DD14648006893
:1027C000FEF74FF8424A434BCDE90601FEF75CF8AD
:1027D00002D20020404908603A490A98FDF727FED6
:1027E000099038493C480068FDF721FE0890DDE972
:1027F0000810FDF716FE39490790FEF79BF802D83E
:1028000035490A980860DDE90801FDF70AFE3349F9
:102810000790FEF78FF802D82F490A980860DDE983
:102820000801FDF7FEFD0590FEF71BF82C4A2D4B25
:10283000CDE90601FEF728F807D800210A98FEF72F
:102840006FF802D124490A980860DDE90810FDF705
:10285000E8FD0590FEF705F8214A224BCDE9060177
:10286000FEF712F807D800210A98FEF759F802D1AE
:1028700019490A98086018480068FDF7F2FF1A4ADB
:102880001A4BCDE90001FDF7E9FECDE904010A98F4
:10289000FDF7E7FF124A164BCDE90001FDF7DEFE1A
:1028A000CDE90201DDE90423FDF731FECDE90601A2
:1028B00020E00000681500200000C842101600202B
:1028C0000050C34700007A44D0010020CC01002012
:1028D000FCA9F1D24D62403FC401002000004842F3
:1028E0009A9999999999C93FCDCCCCCCCCCCEC3F55
:1028F0009999B93FFDF7F8FF0A90FE490A98FEF74B
:102900000FF80CD20A98FDF7ACFFFB4AFB4BCDE960
:102910000601FDF7D1FF02D2F9490A980860129822
:10292000C0EBC000F74911F83000092819D1F4486C
:102930000068FDF796FFF44AF44BCDE90601FDF778
:10294000A3FF0ED24FF081400A904FF07E50EC4929
:10295000086001211298C0EBC000EA4A02EBC000F7
:102960008170EB490A98FDF794FDEA490790FDF75D
:102970005EFD1090E7491098FDF7DCFF01D2E548B5
:1029800010900A98FDF76DFF0022E34BCDE9060198
:10299000FDF792FF01D2DE480A901298C0EBC0000A
:1029A000D84911F8300008287ED1DC491098FDF78D
:1029B000C1FF03D2D9481090D9480A900A98FDF770
:1029C00050FF0022D74BCDE90601FDF775FF03D27A
:1029D000D3480A90D14810901298C0EBC000C94962
:1029E00001EBC000C1891298C0EBC000C54A02EBE0
:1029F000C000008A081A0190FDF711FF0021039022
:102A00001098FDF70EFD02900399FDF710FDC349E4
:102A10000490FDF73EFD06901298C0EBC001B94846
:102A200000EBC100008A0490FDF702FF05900699B3
:102A3000FDF7A5FC0790FDF700FF81B21298C0EBEF
:102A4000C000B04A02EBC00001811299C1EBC10184
:102A500002EBC1010A9848601298C0EBC000114611
:102A600001EBC00001891298C0EBC00002EBC0006E
:102A7000408A814206DB02211298C0EBC00002EBC3
:102A8000C00081701298C0EBC0009E4901EBC000ED
:102A900001891298C0EBC0009A4A02EBC000C089BD
:102AA000814208DB042100E066E01298C0EBC00020
:102AB00002EBC00081701298C0EBC000914901EB9D
:102AC000C00001891298C0EBC0008E4A02EBC00022
:102AD000808A814206DC03211298C0EBC00002EB21
:102AE000C00081701298C0EBC000864901EBC000A5
:102AF00001891298C0EBC000824A02EBC000008A34
:102B0000814206DC05211298C0EBC00002EBC00038
:102B100081701298C0EBC0007A4901EBC0000189B6
:102B20001298C0EBC000774A02EBC000408AA0F2C6
:102B30008F20814206DA00211298C0EBC00002EB20
:102B4000C00081701298C0EBC0006E4901EBC0005C
:102B500001891298C0EBC0006A4A02EBC000808A6B
:102B600000F28F20814206DD00211298C0EBC000E8
:102B700002EBC000817029E11298C0EBC0006149EE
:102B800011F8300009287DD167491098FDF7C8FE7B
:102B900005D2654810904FF081400A9008E05D49E9
:102BA0001098FDF7C7FE03D25A48109058480A9073
:102BB0000A98FDF756FE00225C4BCDE90601FDF7B1
:102BC00063FE05D24FF081400A90574810900BE009
:102BD0000A98FDF746FE00224F4BCDE90601FDF7AE
:102BE0006BFE01D24B4810901298C0EBC0004549D3
:102BF00001EBC000C1891298C0EBC000414A02EB52
:102C0000C000008A081A0190FDF709FE46490390AA
:102C10001098FDF706FC02900399FDF708FC444963
:102C20000490FDF736FC06901298C0EBC0003549C1
:102C300001EBC000008A0490FDF7FAFD05900699AB
:102C4000FDF79DFB0790FDF7F8FD81B21298C0EBF0
:102C5000C0002C4A02EBC00001811299C1EBC101F6
:102C600002EBC1010A9848601298C0EBC0001146FF
:102C700001EBC00001891298C0EBC00002EBC0005C
:102C8000408A00E0A2E0814206DB02211298C0EBFC
:102C9000C00002EBC00081701298C0EBC00019495F
:102CA00001EBC00001891298C0EBC000154A02EB8D
:102CB000C000C089814206DB04211298C0EBC0002D
:102CC00002EBC00081701298C0EBC0000D4901EB0F
:102CD000C00001891298C0EBC0000A4A02EBC00094
:102CE000808A814227DC03211298C0EBC00002EBEE
:102CF000C0001FE00000F041FCA9F1D24D62403F4E
:102D0000C401002068150020AE47E17A14AE0F40E0
:102D10000000A0410060EA460000344000606A46BE
:102D200000002041000024400080BB45000010400E
:102D30000080BB4681701298C0EBC000FE4901EBD9
:102D4000C00001891298C0EBC000FB4A02EBC00032
:102D5000008A814206DC05211298C0EBC00002EB1C
:102D6000C00081701298C0EBC000F34901EBC000B5
:102D700001891298C0EBC000EF4A02EBC000408A04
:102D8000A0F28F20814206DA00211298C0EBC00029
:102D900002EBC00081701298C0EBC000E64900E071
:102DA00016E001EBC00001891298C0EBC000E24AB6
:102DB00002EBC000808A00F28F20814206DD0021F4
:102DC0001298C0EBC00002EBC000817000E000BFB1
:102DD00000BFFDE31298C0EBC000D74911F83000E6
:102DE00008287DD009287CD00A2802D00B2879D168
:102DF00000E000BF1298C0EBC000CF4901EBC0005B
:102E0000808C0690FDF714FDCC490790FDF741FB3F
:102E10000F901298C0EBC000C74901EBC000B0F999
:102E200026000690FDF7FBFCC5490790FDF731FB36
:102E30000E90129800EB4000C24901EB800000891F
:102E40000390FDF7F5FC0590129800EB4000BD499A
:102E500001EB8000C0880390FDF7EAFC049005991F
:102E6000FDF7DFFA0790129800EB4000B54901EB3F
:102E7000800000890390FDF7DBFC0590129800EBC1
:102E80004000B04931F820000390FDF7D1FC0490D8
:102E90000599FDF7C6FA06900799FDF7FAFA0D9025
:102EA0000F990D98FDF7C3FA07900E99FDF767FA91
:102EB0000A900A98FDF7D5FCA34AA44BCDE9060178
:102EC000FDF7E2FC01D200200A90A1480068FDF75E
:102ED000C8FC00229F4BCDE90601FDF7EDFC02E0A6
:102EE000F7E2F7E2FEE302D2002099490860129867
:102EF000C0EBC000904911F830000A280DD1944869
:102F00000068FDF7AEFC904A904BCDE90601FDF755
:102F1000BBFC02D200218E4801601298C0EBC000B9
:102F2000854911F830000B280ED189480068FDF75B
:102F300098FC854A854BCDE90601FDF7A5FC03D237
:102F40004FF07E50824908607C490A98FDF76FFA7D
:102F500009907A497E480068FDF769FA0890DDE932
:102F60000810FDF75EFA7C490790FDF7E3FC02D8F4
:102F700077490A980860DDE90801FDF752FA7649B9
:102F80000790FDF7D7FC02D871490A980860DDE97F
:102F90000801FDF746FA0590FDF763FC6F4A704B98
:102FA000CDE90601FDF770FC07D800210A98FDF76E
:102FB000B7FC02D166490A980860DDE90810FDF700
:102FC00030FA0590FDF74DFC644A654BCDE90601EA
:102FD000FDF75AFC07D800210A98FDF7A1FC02D1A1
:102FE0005B490A9808605A480068FDF73AFC5D4A58
:102FF0005D4BCDE90001FDF731FBCDE904010A98F5
:10300000FDF72FFC554A594BCDE90001FDF726FB92
:10301000CDE90201DDE90423FDF779FACDE90601E6
:10302000FDF762FC0A904C490A98FDF779FC0CD236
:103030000A98FDF716FC444A444BCDE90601FDF71A
:103040003BFC02D242490A980860129800EB40000B
:103050003C4931F82010129800EB4000394A02EB4D
:1030600080000089A0F5007081420BDA00200A90F0
:103070003749086001211298C0EBC0002E4A02EBCC
:10308000C00081701298C0EBC0002B4911F83000CD
:103090000B2814D10A98FDF7E4FB0022344BCDE94C
:1030A0000601FDF7F1FB0AD24FF07E500A90012194
:1030B0001298C0EBC000204A02EBC00081702D497D
:1030C0000A98FDF7E6F92C490790FDF7B0F9109042
:1030D00029491098FDF72EFC01D2274810900A9834
:1030E000FDF7BFFB0022254BCDE90601FDF7E4FB10
:1030F00001D220480A901298C0EBC0000E4911F886
:1031000030000A287ED11298C0EBC00001EBC0004D
:10311000C1891298C0EBC000074A02EBC000008AC8
:10312000081A0190FDF77BFB002103901098FDF732
:1031300078F90290039923E06815002000007A4492
:103140000050C34710160020FCA9F1D24D62403F49
:10315000C801002000002440000020419A9999995C
:103160009999C93FCDCCCCCCCCCCEC3F9999B93F07
:103170000000F03F0000A0400060EA46000014405C
:10318000FDF755F9FE490490FDF783F90690129872
:10319000C0EBC000FB4901EBC000008A0490FDF7C2
:1031A00047FB05900699FDF7EAF80790FDF745FB08
:1031B00081B21298C0EBC000F24A02EBC00001815C
:1031C0001299C1EBC10102EBC1010A984860129843
:1031D000C0EBC000114601EBC00001891298C0EBA2
:1031E000C00002EBC000408A814206DB0221129837
:1031F000C0EBC00002EBC00081701298C0EBC001B0
:10320000E04800E074E000EBC10001891298C0EBD7
:10321000C000DC4A02EBC000C089814206DB042109
:103220001298C0EBC00002EBC00081701298C0EB96
:10323000C000D44901EBC00001891298C0EBC00066
:10324000D04A02EBC000808A814206DC032112983A
:10325000C0EBC00002EBC00081701298C0EBC00050
:10326000C84901EBC00001891298C0EBC000C54AF3
:1032700002EBC000008A814206DC05211298C0EBF7
:10328000C00002EBC00081701298C0EBC000BD49C5
:1032900001EBC00001891298C0EBC000B94A02EBF3
:1032A000C000408AA0F28F20814207DA00211298E4
:1032B000C0EBC002B34800EBC20081701298C0EBB3
:1032C000C000B04901EBC00001891298C0EBC000FA
:1032D000AC4A02EBC000808A00F28F20814206DDFA
:1032E00000211298C0EBC00002EBC0008170EFE03B
:1032F0001298C0EBC001A34810F831000B287DD113
:103300000A98FDF7AEFA00229F4BCDE90601FDF7C2
:10331000BBFA05D24FF07E500A909C48109008E00E
:1033200097491098FDF706FB03D2954810909848EE
:103330000A901298C0EBC000924901EBC000C1890D
:103340001298C0EBC0008F4A02EBC000008A081A36
:103350000190FDF764FA8D4903901098FDF761F82C
:1033600002900399FDF763F88A490490FDF791F8FC
:1033700006901298C0EBC000824901EBC000008AA1
:103380000490FDF755FA05900699FCF7F8FF0790B1
:10339000FDF753FA81B21298C0EBC000794A02EBF4
:1033A000C00001811299C1EBC10102EBC1010A9871
:1033B00048601298C0EBC000114601EBC0000189C3
:1033C0001298C0EBC00002EBC000408A814206DBCD
:1033D00002211298C0EBC00002EBC000817012986D
:1033E000C0EBC000674901EBC00001891298C0EB37
:1033F000C000644A02EBC000C08900E068E081427E
:1034000006DB04211298C0EBC00002EBC000817003
:103410001298C0EBC0005B4901EBC0000189129813
:10342000C0EBC000574A02EBC000808A814206DC34
:1034300003211298C0EBC00002EBC000817012980B
:10344000C0EBC0004F4901EBC00001891298C0EBEE
:10345000C0004C4A02EBC000008A814206DC052114
:103460001298C0EBC00002EBC00081701298C0EB54
:10347000C000444901EBC00001891298C0EBC000B4
:10348000404A02EBC000408AA0F28F20814206DA57
:1034900000211298C0EBC00002EBC00081701298AE
:1034A000C0EBC000374901EBC00001891298C0EBA6
:1034B000C000344A02EBC000808A00F28F208142B3
:1034C00006DD00211298C0EBC00002EBC000817045
:1034D000FEE300BF1298C0EBC0002A4901EBC00018
:1034E000008D0690FDF7A4F92B490790FCF7D1FF5A
:1034F0000F901298C0EBC000224901EBC000B0F958
:103500002A000790FDF78BF90E90129800EB40000F
:10351000224901EB800000890390FDF789F90590AD
:10352000129800EB40001D4901EB8000C088039019
:10353000FDF77EF904900599FCF773FF0790129848
:1035400000EB4000154901EB800000890390FDF776
:103550006FF90590129800EB4000104931F82000F7
:103560000390FDF765F904900599FCF75AFF069062
:103570000799FCF78EFF0D90129800EB40000FE0CA
:103580000060EA46681500200000F03F0080BB455F
:103590000000A0400080BB460000C842101600207A
:1035A000FD4901EB800000890390FDF741F905908A
:1035B000129800EB4000F84901EB8000C0880390AE
:1035C000FDF736F904900599FCF72BFF079000E012
:1035D00095E3129800EB4000EF4901EB8000008971
:1035E0000390FDF725F90590129800EB4000EA4999
:1035F00001EB800040880390FDF71AF904900599CB
:10360000FCF70FFF06900799FCF743FF0C90129808
:10361000C0EBC000E14901EBC000B0F92600049006
:10362000FDF7FDF8DE490590FCF733FF079012988F
:10363000C0EBC000D94901EBC000808C0390FDF7BE
:10364000F7F8D8490490FCF724FF05900D99FCF792
:10365000EEFE06900799FCF792FE0B901298C0EBD5
:10366000C000CE4901EBC000B0F926000490FDF780
:10367000D6F8CB490590FCF70CFF07901298C0EBE9
:10368000C000C64901EBC000808C0390FDF7D0F864
:10369000C4490490FCF7FDFE05900C99FCF7C7FEA9
:1036A00006900799FCF76BFE0A90DDE90A10FCF71B
:1036B000B8FE0690BC4801680698FCF7EAFEB949D6
:1036C0000790FCF7B4FEB9490860DDE90A10FCF781
:1036D000A8FE06900F99FCF7DCFEB2490790FCF7B4
:1036E000A6FE00E009E30A900A98FDF7BAF8B04A8E
:1036F000B04BCDE90601FDF7C7F801D200200A90D2
:103700001298C0EBC000A54911F8300008280DD16F
:10371000A9480068FDF7A5F8A54AA64BCDE9060122
:10372000FDF7B2F802D20020A34908609D490A982B
:10373000FCF77DFE09909B499F480068FCF777FEE7
:103740000890DDE90810FCF76CFE9C490790FDF736
:10375000F1F802D898490A980860DDE90801FCF7F9
:1037600060FE96490790FDF7E5F802D892490A985D
:103770000860DDE90801FCF754FE0590FDF771F8DB
:103780008F4A904BCDE90601FDF77EF807D800215E
:103790000A98FDF7C5F802D187490A980860DDE963
:1037A0000810FCF73EFE0590FDF75BF8844A854B58
:1037B000CDE90601FDF768F807D800210A98FDF762
:1037C000AFF802D17C490A9808607B480068FDF791
:1037D00048F87D4A7D4BCDE90001FCF73FFFCDE97C
:1037E00004010A98FDF73DF8754A794BCDE90001CF
:1037F000FCF734FFCDE90201DDE90423FCF787FE85
:10380000CDE90601FDF770F80A9072490A98FDF7B4
:1038100087F80CD20A98FDF724F8654A654BCDE984
:103820000601FDF749F802D263490A980860129828
:10383000C0EBC000594911F83000092818D15E4882
:103840000068FDF70EF8644A644BCDE90601FDF708
:103850001BF80DD24FF081400A90002056490860B5
:1038600001211298C0EBC0004C4A02EBC0008170ED
:103870005B490A98FCF70DFE5A490790FCF7D7FD03
:10388000109058491098FDF755F801D255481090FE
:103890000A98FCF7E6FF0022534BCDE90601FDF73D
:1038A0000BF801D24E480A901298C0EBC0003B4979
:1038B00011F8300008286ED14C491098FDF73AF8FD
:1038C00003D24A4810904A480A900A98FCF7C9FF68
:1038D0000022484BCDE90601FCF7EEFF03D2444835
:1038E0000A90424810901298C0EBC0002B4901EB9F
:1038F000C000C1891298C0EBC000284A02EBC0008A
:10390000008A081A0190FCF78AFF002103901098A2
:10391000FCF787FD02900399FCF789FD3349049079
:10392000FCF7B7FD06901298C0EBC0001B4901EBF5
:10393000C000008A0490FCF77BFF05900699FCF715
:103940001EFD0790FCF779FF81B21298C0EBC00012
:10395000124A02EBC00001811299C1EBC10102EBD6
:10396000C1010A9848601298C0EBC000114601EBF3
:10397000C00001891298C0EBC00002EBC000408A71
:10398000814206DB02211298C0EBC00002EBC000AE
:103990008170129830E0A6E0101600206815002013
:1039A0000050C34700007A44D0010020CC01002021
:1039B000FCA9F1D24D62403FC801002000004842FE
:1039C0009A9999999999C93FCDCCCCCCCCCCEC3F64
:1039D0009999B93F0000F041AE47E17A14AE0F402B
:1039E0000000A0410060EA460000344000606A46E2
:1039F0000000204100002440C0EBC000C24901EBA0
:103A0000C00001891298C0EBC000BF4A02EBC000A1
:103A1000C089814206DB04211298C0EBC00002EB92
:103A2000C00081701298C0EBC000B74901EBC00024
:103A300001891298C0EBC000B34A02EBC000808A33
:103A4000814206DC03211298C0EBC00002EBC000EB
:103A500081701298C0EBC000AB4901EBC000018936
:103A60001298C0EBC000A84A02EBC000008A814255
:103A700006DC05211298C0EBC00002EBC00081708B
:103A80001298C0EBC000A04901EBC0000189129858
:103A9000C0EBC0009C4A02EBC000408AA0F28F201D
:103AA000814206DA00211298C0EBC00002EBC00090
:103AB00081701298C0EBC000934901EBC0000189EE
:103AC0001298C0EBC000904A02EBC000808A00F25E
:103AD0008F20814206DD00211298C0EBC00002EB6E
:103AE000C000817008E11298C0EBC000864911F84F
:103AF000300009287ED185491098FCF711FF05D2C6
:103B0000824810904FF081400A9008E08049109858
:103B1000FCF710FF03D27E4810907E480A900A9866
:103B2000FCF79FFE00227C4BCDE90601FCF7ACFEC2
:103B300005D24FF081400A90744810900BE00A982B
:103B4000FCF78FFE0022754BCDE90601FCF7B4FEB1
:103B500001D26F4810901298C0EBC0006A4901EB87
:103B6000C000C1891298C0EBC000674A02EBC000D8
:103B7000008A081A0190FCF752FE644903901098DD
:103B8000FCF74FFC02900399FCF751FC6449049048
:103B9000FCF77FFC06901298C0EBC0005A4901EB7D
:103BA000C000008A0490FCF743FE05900699FCF7DC
:103BB000E6FB0790FCF741FE81B21298C0EBC00013
:103BC000514A02EBC00001811299C1EBC10102EB25
:103BD000C1010A9848601298C0EBC000114601EB81
:103BE000C00001891298C0EBC00002EBC000408AFF
:103BF000814200E080E006DB02211298C0EBC000A9
:103C000002EBC00081701298C0EBC0003E4901EB8E
:103C1000C00001891298C0EBC0003B4A02EBC00013
:103C2000C089814206DB04211298C0EBC00002EB80
:103C3000C00081701298C0EBC000334901EBC00096
:103C400001891298C0EBC0002F4A02EBC000808AA5
:103C5000814206DC03211298C0EBC00002EBC000D9
:103C600081701298C0EBC000274901EBC0000189A8
:103C70001298C0EBC000244A02EBC000008A8142C7
:103C800006DC05211298C0EBC00002EBC000817079
:103C90001298C0EBC0001C4901EBC00001891298CA
:103CA000C0EBC000184A02EBC000408AA0F28F208F
:103CB000814206DA00211298C0EBC00002EBC0007E
:103CC00081701298C0EBC0000F4901EBC00000E00A
:103CD00014E001891298C0EBC0000B4A02EBC0004F
:103CE000808A00F28F20814206DD00211298C0EB0D
:103CF000C00002EBC000817000E000BF00BF00E028
:103D000000BF00BF13B000BD681500200080BB4598
:103D10000060EA460000A04100001040000034406E
:103D20000080BB4610B50348007800F045FE00F067
:103D300075FF10BDA90100202DE9F0410646884617
:103D400014461D4627462A463946304600F04AF8B2
:103D5000BDE8F0810149016070470000393D00086D
:103D600010B5042006F064FE04460CB9002010BD16
:103D70002046FFF7EFFF2046F9E74FF4007006F00A
:103D800057FE064600244FF400713046FCF783FAD4
:103D900027E00A2006F0B6FF4FF40071304608F025
:103DA0001BFF0446002C00DC1BE0304605F0D9FF69
:103DB00068B9304606F05EF800BF3046FCF794FA6A
:103DC00085B22946304608F05BFF0028F5D1304621
:103DD00005F03AF920B9304605F0D6F905F08EF92C
:103DE00000BFD6E770B506460C461546304605F0CE
:103DF0002BF950B90748046007480560304605F0C4
:103E0000C3F905F07BF9002070BD0020014908606E
:103E1000401EF9E7440000204800002070B5054628
:103E20000C462846216888470F4908602846616883
:103E300088470D4948602846A16888470A49886034
:103E40002846216988470849C8602846616988472B
:103E5000054908612846E1688847034948610846E2
:103E60000068A860002070BDB00C002010B50548A7
:103E7000006818B900F054FE024908600148006863
:103E800010BD00004C00002010B5012000F094F996
:103E900098B10021094800F0D9F800210848FCF742
:103EA000F8FF00210648FCF741FF01200549087092
:103EB00000F08AF8012000F0BBF810BD08000240B5
:103EC00000240140A201002010B5202000F074F968
:103ED00098B10A49486800F0ABF808490868002121
:103EE00000F0B4F840F22661054804F03FF90122E1
:103EF00040F22661024804F07AFA10BDBC000020AE
:103F0000004800401CB54FF4001000F055F980B394
:103F10001849C868002100F099F81649086900F0AE
:103F200087F8154806F072F804461249C86800F090
:103F30003FF9201A1149888001AA69460E480AF003
:103F4000C1F80C490098C968C860BDF90400094966
:103F5000C96848600749C868012100F077F8084837
:103F6000006801690648006888470648006806F04E
:103F70006DFF1CBDD4000020001400201C15002083
:103F80003C0000206C01002010B54FF0007000F0E4
:103F900013F998B10A49486800F04AF808490868D6
:103FA000002100F053F840F22661064804F0DEF8E4
:103FB000012240F22661034804F019FA10BD000006
:103FC000D40000200044004000B58BB01449C868FC
:103FD00000F048F813480090134801900020029028
:103FE000C820039000200490802005904000069097
:103FF0008000079020200890002009900A906946D0
:104000000A4800F072F906490122C868022100F04E
:1040100063F90349C868012100F018F80BB000BD2E
:10402000FC0000204C240140B8160020080002408B
:1040300000F0805111B10349086001E00249486075
:1040400070470000040402400000024021B10268F1
:1040500042F00102026004E002684FF6FE731A406B
:104060000260704701684FF6FE7211400160002146
:10407000016041608160C1604B49884208D14A4972
:104080000839496841F00F01474A083A51608AE00F
:1040900045491431884208D143490839496841F0FB
:1040A000F001414A083A51607DE03F492831884299
:1040B00008D13D490839496841F470613A4A083AE3
:1040C000516070E038493C31884208D1364908399E
:1040D000496841F47041344A083A516063E032491A
:1040E0005031884208D130490839496841F470217B
:1040F0002D4A083A516056E02B496431884208D174
:1041000029490839496841F47001274A083A516041
:1041100049E025497831884208D12349083949685E
:1041200041F07061204A083A51603CE01F498842E2
:1041300006D1011F096841F00F01021F116032E032
:104140001A491431884208D11849091F096841F0F9
:10415000F001164A121F116025E0144928318842E7
:1041600008D11249091F096841F470610F4A121FF2
:10417000116018E00D493C31884208D10B49091FF4
:10418000096841F47041094A121F11600BE00749A8
:104190005031884207D10549091F096841F470214F
:1041A000024A121F116070470800024008040240D2
:1041B0000146486880B2704701460020002201F0A5
:1041C000805313B1054B1A6801E0054B1A6802EAE7
:1041D00001030BB1012000E0002070470004024001
:1041E0000000024000B58DB00121084602F0B4FF86
:1041F000344908680021FFF729FF32490868FFF7B2
:1042000031FF314802903148039010200490400162
:1042100005900020069080200790002008900990CB
:104220000A904FF480500B9000200C9025490868AC
:1042300002A900F05AF823494868FFF7F9FE21491E
:1042400008680021FFF702FF1E49012208680221C9
:1042500000F042F801AA69461D4809F033FF1949E8
:10426000C8680021FFF7F2FE1649C868FFF7FAFE9A
:10427000154802900098039000200490BDF90400B6
:10428000059000200690802007900020089009905B
:104290000A904FF440500B9000200C900949C868D8
:1042A00002A900F022F807490869FFF7C1FE054995
:1042B000C8680121FFF7CAFE06490098C8600DB022
:1042C00000BD0000BC00002004480040F00C0020AD
:1042D000C80C0020F00F00201AB103680B430360E4
:1042E00002E003688B430360704710B50022026848
:1042F00047F6F0739A430C6A8B6823430C69234397
:104300004C6923438C692343CC6923434C6A234380
:104310008C6A23431A430260CB6843600B68836056
:104320004B68C36010BD000000B58DB00121084688
:1043300002F012FF2F4908680021FFF787FE2D4980
:104340000868FFF78FFE2C4802902C48039010203D
:104350000490000105900020069080200790002026
:10436000089009900A900B900C902249086802A9C5
:10437000FFF7BBFF1F494868FFF75AFE1D49086851
:104380000021FFF763FE1B49012208680221FFF7A5
:10439000A3FF01AA69461A4809F094FE1549C868A6
:1043A0000021FFF753FE1349C868FFF75BFE124870
:1043B00002900098039000200490BDF9040005903D
:1043C00000200690802007900020089009900A9015
:1043D0000B900C900749C86802A9FFF786FF0549B2
:1043E0000869FFF725FE0349C8680121FFF72EFE83
:1043F0000DB000BDD4000020044400400010002097
:104400000014002010B5044674B1012C02D0FF2C1A
:104410001FD114E01048006818B902F0FBF90E49EA
:1044200008600D48006810BD0C48006818B900F01D
:10443000C7FB0A49086009480068001DF3E70848FF
:10444000006818B900F09CFB054908600448006842
:10445000E9E70020E7E70000280200202C02002006
:1044600030020020F0B50D46002120B101287AD09D
:10447000022879D1AFE100241EE0002216E0FE4EB2
:1044800036F81270B446561C3CF81660B7420BDD85
:10449000664636F812103746561C37F8166027F86D
:1044A0001260561C27F81610561CF2B2C4F1C7064B
:1044B0009642E4DC661CF4B2C72CDEDB00215823F4
:1044C00005E0ED4E36F8136031445E1CF3B2712BFB
:1044D000F7DB1926B1FBF6F1E84F398035B1012D34
:1044E0002DD0022D56D0032D7ED182E0C0EBC00628
:1044F000E34F17F83660082E05D0C0EBC00617F85A
:104500003660092E07D100EB4007DFF878C30CEBCB
:104510008707798012E0C0EBC006D94F17F83660E4
:104520000A2E05D0C0EBC00617F836600B2E05D159
:1045300000EB4007DFF84CC32CF8271072E0C0EB0B
:10454000C006CF4F17F83660082E05D0C0EBC00666
:1045500017F83660092E08D100EB4007DFF824C3B6
:104560002CF8271015E05FE01CE2C0EBC006C44F3A
:1045700017F836600A2E05D0C0EBC00617F8366073
:104580000B2E06D100EB4007DFF8F8C20CEB8707D3
:10459000398147E0C0EBC006B94F17F83660082EE6
:1045A00005D0C0EBC00617F83660092E07D100EB26
:1045B0004007DFF8D0C20CEB8707398118E0C0EB69
:1045C000C006AF4F17F836600A2E05D0C0EBC00604
:1045D00017F836600B2E0BD100EB4007DFF8A4C2B2
:1045E0000CEB8707F98000E01BE00126A64F3E7028
:1045F00018E0C0EBC006A24F17F83660082E05D0B1
:10460000C0EBC00617F83660092E09D100EB400751
:10461000DFF870C20CEB8707F98001269A4F3E70D5
:1046200000E000BF00BFBEE100241EE0002216E053
:10463000914E36F81270B446561C3CF81660B742DC
:104640000BDD664636F812103746561C37F81660F2
:1046500027F81260561C27F81610561CF2B2C4F147
:10466000C7069642E4DC661CF4B2C72CDEDB0021F0
:10467000582305E0804E36F8136031445E1CF3B2D7
:10468000712BF7DB1926B1FBF6F1804F398035B17C
:10469000012D2DD0022D54D0032D7DD180E0C0EB13
:1046A000C006774F17F83660082E05D0C0EBC0065D
:1046B00017F83660092E07D100EB4007DFF8C4C1B8
:1046C0000CEB8707798012E0C0EBC0066C4F17F83F
:1046D00036600A2E05D0C0EBC00617F836600B2EE8
:1046E00005D100EB4007DFF89CC12CF8271070E0E3
:1046F000C0EBC006624F17F83660082E05D0C0EB3D
:10470000C00617F83660092E06D100EB4007DFF827
:1047100074C12CF8271013E0C0EBC006584F17F8EF
:1047200036600A2E05D0C0EBC00617F836600B2E97
:1047300006D100EB4007DFF84CC10CEB870739814D
:1047400047E0C0EBC0064E4F17F83660082E05D084
:10475000C0EBC00617F83660092E07D100EB400702
:10476000DFF820C10CEB8707398118E0C0EBC006E9
:10477000434F17F836600A2E05D0C0EBC00617F875
:1047800036600B2E0BD100EB4007DFF8F8C00CEBC6
:104790008707F980012600E01AE03D4F3E7018E0DF
:1047A000C0EBC006364F17F83660082E05D0C0EBB8
:1047B000C00617F83660092E09D100EB4007DFF874
:1047C000C4C00CEB8707F9800126314F3E7000E032
:1047D00000BF00BFE7E000241EE0002216E0264EE6
:1047E00036F81270B446561C3CF81660B7420BDD22
:1047F000664636F812103746561C37F8166027F80A
:104800001260561C27F81610561CF2B2C4F1C706E7
:104810009642E4DC661CF4B2C72CDEDB0021582390
:1048200005E0154E36F8136031445E1CF3B2712B6F
:10483000F7DB1926B1FBF6F1164F398035B1012DA2
:104840003ED0022D65D0032D78D190E0C0EBC0069C
:104850000B4F17F83660082E05D0C0EBC00617F8CE
:104860003660092E18D100EB4007DFF818C00CEBBA
:104870008707798023E00000B8160020BA010020E5
:104880006815002010160020B7010020BC01002090
:10489000B8010020BE010020C0EBC006434F17F84E
:1048A00036600A2E05D0C0EBC00617F836600B2E16
:1048B00005D100EB4007DFF8F8C02CF827106FE0B7
:1048C000C0EBC006394F17F83660082E05D0C0EB94
:1048D000C00617F83660092E06D100EB4007DFF856
:1048E000D0C02CF8271013E0C0EBC0062F4F17F8EC
:1048F00036600A2E05D0C0EBC00617F836600B2EC6
:1049000006D100EB4007DFF8A8C00CEB8707398120
:1049100046E0C0EBC006254F17F83660082E05D0DC
:10492000C0EBC00617F83660092E08D100EB40072F
:10493000DFF87CC00CEB8707398117E02FE0C0EB74
:10494000C0061A4F17F836600A2E05D0C0EBC00615
:1049500017F836600B2E09D100EB4007DFF850C086
:104960000CEB8707F9800126124F3E7018E0C0EB70
:10497000C0060E4F17F83660082E05D0C0EBC006F3
:1049800017F83660092E09D100EB4007DFF820C088
:104990000CEB8707F9800126064F3E7000E000BF50
:1049A00000BF00E000BF00BFF0BD000068150020A0
:1049B00010160020B901002010B5044641480078C7
:1049C00001287ED100203F49087024B1012C28D055
:1049D000022C74D14BE03C4800783C4908703A48BE
:1049E0000078401C38490870002009F017FA0022AE
:1049F00002213748FFF770FC00220121880703F0ED
:104A00002CFA324801780020FFF72CFD0122022108
:104A10002F48FFF761FC01221146900703F01DFAB1
:104A20004EE02C4800782C4908702A480078401C39
:104A300028490870012009F0F1F9002202212448D8
:104A4000FFF74AFC00220121880703F006FA2248FA
:104A500001780120FFF706FD012202211C48FFF723
:104A60003BFC01221146900703F0F7F928E01B48B0
:104A700000781B49087019480078401C17490870D5
:104A8000022009F0CBF9002202211148FFF724FC93
:104A900000220121880703F0E0F911480178022083
:104AA000FFF7E0FC012202210948FFF715FC012273
:104AB0001146900703F0D1F902E002E0FFE700BFE2
:104AC00000BF10BDA2010020AB010020AC010020FE
:104AD00008000240AD010020AE010020AF0100201F
:104AE000B001002070B50446064890F8F40138B1D2
:104AF0002046FBF7F9FB85B22946204608F0C0F8AE
:104B000070BD00001C0A00200149016070470000D0
:104B10005D9D000801490160704700003B4B0008A3
:104B200010B5042005F084FF04460CB9002010BD28
:104B30002046FFF7EFFF2046F9E710B50446062CA4
:104B40000FD2DFE804F003060B0E080702F0EAFAC2
:104B500009E000BF00BF02F00DFE04E002F0C2FC5D
:104B600001E0002000BF00BF10BD000000B50246FC
:104B70001046FFF7C9FF0148506000BDFDAC0008BA
:104B800010B50C2005F054FF04460CB9002010BDF0
:104B90002046FFF7EBFF2046F9E7000010B504467A
:104BA000201DFFF7B1FF034860600349E16003493E
:104BB000A16010BD75E80008A5E8000839E8000804
:104BC00010B5102005F034FF04460CB9002010BDCC
:104BD0002046FFF7E3FF2046F9E700E0401C01789C
:104BE000202902D101780029F8D1704701490160DC
:104BF00070470000134C000810B5042005F018FFA2
:104C000004460CB9002010BD2046FFF7EFFF2046F8
:104C1000F9E710B504464FF0FF3010BD10B54D4810
:104C20000078012807D04C480078012803D04B4871
:104C3000007801282CD147480078012829D100208C
:104C400044490870002202214548FFF745FB002235
:104C50000121880703F001F9002042490870424908
:104C60000870FCF753F90020FCF722F83F48007861
:104C700020B901203D49087009F0D0F80122022135
:104C80003748FFF729FB01221146900703F0E5F8AA
:104C90005EE03148007801282BD100202E490870B1
:104CA000002202212E48FFF717FB0022012188076E
:104CB00003F0D3F800202E4908702E490870012017
:104CC000FCF724F90120FBF7F3FF284800780128BE
:104CD00004D102202549087009F0A0F80122022120
:104CE0001F48FFF7F9FA01221146900703F0B5F8C3
:104CF0002EE01A48007801282AD1002017490870B0
:104D0000002202211648FFF7E7FA00220121880756
:104D100003F0A3F800201849087018490870022011
:104D2000FCF7F4F80220FBF7C3FF104800780228D4
:104D300004D100200D49087009F070F80122022109
:104D40000748FFF7C9FA01221146900703F085F8DA
:104D500010BD0000B7010020B8010020B9010020FB
:104D600008000240AC010020AB010020A901002096
:104D7000AE010020AD010020B0010020AF010020F5
:104D80002DE9F04705460E469046994600F06AFF29
:104D9000074600240E48007830B90D48D0F8F811C5
:104DA000012008F0E7FA0AE0002406E0084A601C47
:104DB000D2F8F81108F0DEFA641C042CF6DB324657
:104DC000294638463B6D98470020BDE8F087000033
:104DD0001C0A00200149016070470000814D000855
:104DE00010B5042005F024FE04460CB9002010BDC7
:104DF0002046FFF7EFFF2046F9E700002DE9F05FBE
:104E00000746894692469B4600F02CFF0446002543
:104E1000A8462046E168884700BF1AE0114800EB29
:104E200005113A462046636A9847064606F109008E
:104E300058B908F101000FFA80F8B8F1030F08DD46
:104E4000681C05B24FF0000803E0681C05B24FF083
:104E50000008042DE2DB2046216988470020BDE8D8
:104E6000F09F0000D00B0020014901607047000056
:104E7000FD4D000810B5042005F0DAFD04460CB91C
:104E8000002010BD2046FFF7EFFF2046F9E72DE98F
:104E9000F04105460C46174698460026A1B2284622
:104EA00007F0EEFE064606F1080018B9642005F08A
:104EB00029FF02E00A2005F025FF0020BDE8F0816F
:104EC00001490160704700008F4E000810B50420B2
:104ED00005F0AEFD04460CB9002010BD2046FFF7DA
:104EE000EFFF2046F9E7000008B50320ADF8000009
:104EF00010208DF8030003208DF8020069462F482A
:104F000000F072F82E488088ADF8000010208DF86F
:104F1000030003208DF8020029490868694600F063
:104F200063F828488088ADF8000010208DF8030051
:104F300003208DF8020023490868694600F054F800
:104F400021488088ADF8000010208DF80300032070
:104F50008DF802001C490868694600F045F81A4AB5
:104F60009188106800F0CBF8184880881849898823
:104F70000843184989880843ADF8000010208DF8CF
:104F8000030002208DF8020069460C4800F02CF85E
:104F90001148808811498988084311498988084344
:104FA000ADF8000010208DF8030002208DF80200FB
:104FB00069460C4800F018F808BD0000000C0140DC
:104FC0007C000020840000206C00002014010020E0
:104FD0001C010020240100202C01002034010020AD
:104FE0003C010020001001402DE9F041024600255F
:104FF0000026002000230024002791F803C00CF0B5
:105000000F0591F803C00CF0100CBCF1000F03D099
:1050100091F802C04CEA050591F800C0BCF1000F00
:1050200031D0146800202BE04FF0010C0CFA00F393
:10503000B1F800C00CEA03069E4220D183004FF075
:105040000F0C0CFA03F7BC4305FA03FC4CEA04040A
:1050500091F803C0BCF1280F06D14FF0010C0CFAF7
:1050600000FCC2F814C00AE091F803C0BCF1480F7C
:1050700005D14FF0010C0CFA00FCC2F810C0401C26
:105080000828D1D31460B1F800C0BCF1FF0F34DDA3
:10509000546800202EE000F1080C4FF0010808FAD7
:1050A0000CF3B1F800C00CEA03069E4221D1830044
:1050B0004FF00F0C0CFA03F7BC4305FA03FC4CEA63
:1050C000040491F803C0BCF1280F05D100F1080CCD
:1050D00008FA0CF8C2F8148091F803C0BCF1480F2C
:1050E00007D100F1080C4FF0010808FA0CF8C2F8DB
:1050F0001080401C0828CED35460BDE8F081416187
:1051000070470161704700002DE9F04104460E46EA
:10511000032700F0A7FD8046042C02DB381FBDE802
:10512000F0810EE0094800EB041132464046D8F801
:1051300024309847054605F1090008B97F1E00E0B4
:1051400001E0002FEED100BF2846E8E7D00B002099
:1051500010B50548006818B9FEF702FE024908605C
:105160000148006810BD00005C00002010B5054833
:10517000006818B9FFF740FD02490860014800685F
:1051800010BD00005400002010B50548006818B993
:10519000FFF726FE024908600148006810BD0000C4
:1051A0006400002010B50548006818B9FFF762FEDA
:1051B000024908600148006810BD00006800002036
:1051C00010B50548006818B9FFF780FE024908606D
:1051D0000148006810BD00006000002010B50548BF
:1051E000006818B901F094FB0249086001480068A2
:1051F00010BD00005800002070B5002405257FE098
:1052000041A14548FBF785F80A223C21424802F0BB
:10521000B0FB42A14048FBF755F804461CB1002101
:105220004148C1716DE041A13B48FBF74BF8044692
:105230001CB101213C48C17163E03FA13648FBF736
:1052400041F804461CB102213748C17159E03DA123
:105250003148FBF737F804461CB103213248C171CD
:105260004FE03BA12C48FBF72DF804461CB104216C
:105270002D48C17145E039A12748FBF723F80446C2
:105280001CB105212848C1713BE037A12248FBF73A
:1052900019F804461CB106212348C17131E035A13B
:1052A0001D48FBF70FF804461CB107211E48C171C9
:1052B00027E032A11848FBF705F804461CB1082185
:1052C0001948C1711DE02FA11348FAF7FBFF0446EE
:1052D0001CB109211448C17113E02DA10E48FAF741
:1052E000F1FF04461CB10A210F48C17109E035B134
:1052F000681E05B24FF47A7005F004FD00E000E08E
:105300007EE700BF70BD000041542B434950535409
:10531000415455530D0A0000C00300204950204954
:105320004E495449414C0000A003002049502053ED
:105330005441525400000000495020434F4E46490A
:105340004700000049502047505253414354000049
:10535000495020535441545553000000434F4E4E82
:10536000454354494E470000434F4E4E4543542059
:105370004F4B0000434C4F53494E4700434C4F5353
:10538000454400005044502044454143540000002F
:1053900049502050524F43455353494E4700000057
:1053A0002DE9F05F05468A4690461E464FF0000BF9
:1053B000D946012030701BA12846FAF7C2FF0446E7
:1053C00034B92878392802DC2878302800DA25E03A
:1053D0002F19B8F1000F06D1002030703846FAF7C7
:1053E000C1FF83461AE018E051463846FAF7A9FF94
:1053F00004462CB1601C074409F101001FFA80F932
:10540000C14506D1002030703846FAF7ABFF83461D
:1054100004E00CB1387800B900E0E5E75846BDE893
:10542000F09F0000303132333435363738390000E0
:105430002DE9F84F0446884600F014FC0546002686
:10544000B1462846A96F88470646002E4BDA45A18B
:105450002068FAF75EFF20462269216890472846B7
:10546000296A884740B148A1206803F0D9F920464D
:105470002269216890471DE04C48007B0A2809DA20
:105480004A490A7B4AA1206803F0CAF920462269EA
:10549000216890474548408A40F6B831884209DA89
:1054A00042494A8A48A1206803F0BAF92046226995
:1054B0002168904700270CE04A4850F82700002850
:1054C00006DA484850F827004142464840F827107D
:1054D0007F1C042FF0DB05214046D8F810209047B0
:1054E0000020BDE8F88F4048007870B32846E9688E
:1054F00088472BE02846696F88470646002E1EDB4A
:10550000384850F8260000903748643000EB861386
:1055100000F5887000EB860231462846D5F844C075
:10552000E04760B92F482030FAF7DEFE8246534646
:105530002C4A203231462846D5F84CC0E04709F1C4
:105540000109B9F1040F01DD01E004E0D2E700BF79
:1055500028462969884702214046D8F810209047FC
:105560000020BEE75B434D4E5D204E6F6E652063AD
:105570006F6E6E6E6563742C207265636F6E6E6500
:1055800063742E2E2E0000005B434D4E5D20676538
:10559000745F73696D5F696E666F2073696D2066F5
:1055A00061696C656421202E2E2E0000A00300206E
:1055B0005B434D4E5D20626164207369676E616C70
:1055C00020256420212121005B434D4E5D206C6F1E
:1055D0007720706F77657220202564206D762021FA
:1055E00021210000800B00201C0A002000B502468B
:1055F000104603F0FBF80148906000BD31540008EC
:1056000010B5142005F014FA04460CB9002010BDA2
:105610002046FFF7EBFF2046F9E700002DE9FC47A5
:105620000546884600F01EFB064600244FF001099F
:1056300000275AA128462A699047012001F01AF94B
:105640003046F168884700F031FC94E05A4800EB9E
:1056500084005949103951F82410CDE900105749F8
:1056600001EB8413224656A1286803F0D9F8284696
:105670002A69296890475048103850F82400009053
:105680004E4800EB84134C4800EB84022146304620
:10569000D6F844C0E0470746002F35D132E04648EF
:1056A0001030FAF721FE82465346434A1032214613
:1056B0003046D6F84CC0E0470746E7B949A128462E
:1056C0002A699047002001F0D5F83C4864380078FA
:1056D00048B93A486438D0F8F811012007F04AFE7A
:1056E0004FF0000906E0354A643A601CD2F8F81120
:1056F00007F040FE07E0381D20B93FA128462A697F
:10570000904700E0CBE72CE007F10F0068B941A11A
:1057100028462A6990474FF4FA6005F0F3FA002111
:105720004046D8F81020904734E007F10A00A0B9AD
:1057300022486438007840B11F48103850F82400DF
:1057400041421D48103840F82410042001F092F81E
:1057500038A128462A69904703E03BA128462A69D8
:105760009047601C04B24FF4FA6005F0CBFA042CA9
:1057700001DB0024A146B9F1000F7FF467AF00F010
:1057800096FB30463169884701214046D8F81420FD
:10579000904700BF0020BDE8FC8700005B434E4EF1
:1057A0005D6770727320636E6E65637420737461DD
:1057B0007465200D0A000000900B0020800A002074
:1057C0005B434E4E5D20636E6E6E65637420444392
:1057D000203A25642C25732C25642C2573202E2E2D
:1057E0002E0000005B434E4E5D207375636365655C
:1057F0006420210A000000005B434E4E5D2063617F
:105800006E206E6F742073656E6420646174612015
:10581000210A00005B434E4E5D2053494D206361D9
:1058200072642063616E206E6F7420776F726B21DB
:105830000A0000005B434E4E5D20416464722065A7
:1058400072726F7220210A005B434E4E5D20636FBF
:105850006E6E656374206661696C65640A000000A1
:1058600000B50246104602F0C1FF0148906000BD3D
:105870001D56000810B5142005F0DAF804460CB9DE
:10588000002010BD2046FFF7EBFF2046F9E700009F
:105890002DE9FE4F04460D4600F0E4F90646A4F15A
:1058A000040800200290002782468346019098F861
:1058B0000000FEF7A7FD8146012000F0DBFF052177
:1058C00028466A6990473948007838B137480078E7
:1058D000401E364908700020BDE8FE8F34A12046E6
:1058E00022699047FF20314908703046F1688847A7
:1058F00055E0B4F90400029040213548FAF7CBFC9A
:1059000002A8009023681A4631493046D6F828C0CC
:10591000E0478246BAF1000F34DB002023490870CB
:10592000002727E02B4800EB0711294803F0F0FA85
:10593000F0B901972068D8F8181001AB264AD1F8C1
:1059400000C00299E0478346BBF1000F08D02068F1
:10595000D8F81C1000231A46D1F800C00299E0477D
:105960002268D9F804C039464846029BE04703E064
:10597000781C07B2042FD5DB00BF51463046326B8E
:1059800090470CE00BF1040020B9002128462A6959
:10599000904703E0012128462A69904700E0A8E7E4
:1059A00000BF304631698847002095E7500000204D
:1059B0005B534D535D2067707273206465616C208A
:1059C000736D73207374617465200D0A000000000C
:1059D000700C0020D00B00203976000800B502467C
:1059E000101D02F003FF0249D1600249116100BDA0
:1059F0009158000865D7000810B5202005F018F868
:105A000004460CB9002010BD2046FFF7E7FF2046F2
:105A1000F9E700002DE9FE4F04460E4600F022F99A
:105A20000546274600200290804682460190834624
:105A300000906348007A01280CD162A120462269B7
:105A400090474FF4FA6005F05DF900213046326965
:105A50009047B1E0A9E0BAF1100F00DDA6E00AF12D
:105A600001000FFA80FAB4F904000290216802AA3A
:105A700028466B6E98470190019800B196E0284641
:105A8000E9688847216802AA2846EB6E984701908A
:105A9000284629698847019800282BDB514AD2F80B
:105AA000F811019A501C07F065FC4FA12068FAF725
:105AB00009FC8146B9F1000F0BD04DA120462269A7
:105AC0009047AA6C2846019990473046F16988476B
:105AD00072E02068796901AB4C4AD1F800C00299A4
